{
	"default_workspace /StudentManagement.sol": {
		"StudentManagement": {
			"abi": [
				{
					"inputs": [],
					"stateMutability": "nonpayable",
					"type": "constructor"
				},
				{
					"inputs": [
						{
							"internalType": "string",
							"name": "_name",
							"type": "string"
						},
						{
							"internalType": "uint256",
							"name": "_sem",
							"type": "uint256"
						},
						{
							"internalType": "enum StudentManagement.Department",
							"name": "_dept",
							"type": "uint8"
						},
						{
							"internalType": "uint256",
							"name": "_CGPA",
							"type": "uint256"
						},
						{
							"internalType": "uint256",
							"name": "_rollno",
							"type": "uint256"
						}
					],
					"name": "addStudent",
					"outputs": [],
					"stateMutability": "nonpayable",
					"type": "function"
				},
				{
					"inputs": [
						{
							"internalType": "uint256",
							"name": "_sem",
							"type": "uint256"
						},
						{
							"internalType": "enum StudentManagement.Department",
							"name": "_dept",
							"type": "uint8"
						},
						{
							"internalType": "uint256",
							"name": "_CGPA",
							"type": "uint256"
						},
						{
							"internalType": "uint256",
							"name": "_rollno",
							"type": "uint256"
						}
					],
					"name": "editData",
					"outputs": [],
					"stateMutability": "nonpayable",
					"type": "function"
				},
				{
					"inputs": [
						{
							"internalType": "string",
							"name": "_name",
							"type": "string"
						},
						{
							"internalType": "uint256",
							"name": "_rollno",
							"type": "uint256"
						}
					],
					"name": "editName",
					"outputs": [],
					"stateMutability": "nonpayable",
					"type": "function"
				},
				{
					"inputs": [
						{
							"internalType": "uint256",
							"name": "_rollno",
							"type": "uint256"
						}
					],
					"name": "getStudent",
					"outputs": [
						{
							"internalType": "string",
							"name": "name",
							"type": "string"
						},
						{
							"internalType": "uint256",
							"name": "sem",
							"type": "uint256"
						},
						{
							"internalType": "enum StudentManagement.Department",
							"name": "dept",
							"type": "uint8"
						},
						{
							"internalType": "uint256",
							"name": "CGPA",
							"type": "uint256"
						},
						{
							"internalType": "uint256",
							"name": "rollno",
							"type": "uint256"
						}
					],
					"stateMutability": "view",
					"type": "function"
				},
				{
					"inputs": [],
					"name": "staffAdvisor",
					"outputs": [
						{
							"internalType": "address",
							"name": "",
							"type": "address"
						}
					],
					"stateMutability": "view",
					"type": "function"
				}
			],
			"devdoc": {
				"kind": "dev",
				"methods": {},
				"version": 1
			},
			"evm": {
				"assembly": "    /* \"default_workspace /StudentManagement.sol\":57:1828  contract StudentManagement{... */\n  mstore(0x40, 0x80)\n    /* \"default_workspace /StudentManagement.sol\":370:426  constructor() {... */\n  callvalue\n  dup1\n  iszero\n  tag_1\n  jumpi\n  revert(0x00, 0x00)\ntag_1:\n  pop\n    /* \"default_workspace /StudentManagement.sol\":409:419  msg.sender */\n  caller\n    /* \"default_workspace /StudentManagement.sol\":394:406  staffAdvisor */\n  0x00\n  0x00\n    /* \"default_workspace /StudentManagement.sol\":394:419  staffAdvisor = msg.sender */\n  0x0100\n  exp\n  dup2\n  sload\n  dup2\n  0xffffffffffffffffffffffffffffffffffffffff\n  mul\n  not\n  and\n  swap1\n  dup4\n  0xffffffffffffffffffffffffffffffffffffffff\n  and\n  mul\n  or\n  swap1\n  sstore\n  pop\n    /* \"default_workspace /StudentManagement.sol\":57:1828  contract StudentManagement{... */\n  dataSize(sub_0)\n  dup1\n  dataOffset(sub_0)\n  0x00\n  codecopy\n  0x00\n  return\nstop\n\nsub_0: assembly {\n        /* \"default_workspace /StudentManagement.sol\":57:1828  contract StudentManagement{... */\n      mstore(0x40, 0x80)\n      callvalue\n      dup1\n      iszero\n      tag_1\n      jumpi\n      revert(0x00, 0x00)\n    tag_1:\n      pop\n      jumpi(tag_2, lt(calldatasize, 0x04))\n      shr(0xe0, calldataload(0x00))\n      dup1\n      0x11f11b9c\n      eq\n      tag_3\n      jumpi\n      dup1\n      0x642f9163\n      eq\n      tag_4\n      jumpi\n      dup1\n      0x7b8c341d\n      eq\n      tag_5\n      jumpi\n      dup1\n      0xc75d76f9\n      eq\n      tag_6\n      jumpi\n      dup1\n      0xd54fe4fd\n      eq\n      tag_7\n      jumpi\n    tag_2:\n      revert(0x00, 0x00)\n        /* \"default_workspace /StudentManagement.sol\":1613:1822  function editName(string memory _name,uint256 _rollno) public VerifyStud(_rollno){... */\n    tag_3:\n      tag_8\n      0x04\n      dup1\n      calldatasize\n      sub\n      dup2\n      add\n      swap1\n      tag_9\n      swap2\n      swap1\n      tag_10\n      jump\t// in\n    tag_9:\n      tag_11\n      jump\t// in\n    tag_8:\n      stop\n        /* \"default_workspace /StudentManagement.sol\":997:1303  function getStudent(uint256 _rollno) public view admin returns (string memory name, uint256 sem, Department dept, uint256 CGPA, uint256 rollno) {... */\n    tag_4:\n      tag_12\n      0x04\n      dup1\n      calldatasize\n      sub\n      dup2\n      add\n      swap1\n      tag_13\n      swap2\n      swap1\n      tag_14\n      jump\t// in\n    tag_13:\n      tag_15\n      jump\t// in\n    tag_12:\n      mload(0x40)\n      tag_16\n      swap6\n      swap5\n      swap4\n      swap3\n      swap2\n      swap1\n      tag_17\n      jump\t// in\n    tag_16:\n      mload(0x40)\n      dup1\n      swap2\n      sub\n      swap1\n      return\n        /* \"default_workspace /StudentManagement.sol\":125:152  address public staffAdvisor */\n    tag_5:\n      tag_18\n      tag_19\n      jump\t// in\n    tag_18:\n      mload(0x40)\n      tag_20\n      swap2\n      swap1\n      tag_21\n      jump\t// in\n    tag_20:\n      mload(0x40)\n      dup1\n      swap2\n      sub\n      swap1\n      return\n        /* \"default_workspace /StudentManagement.sol\":1309:1607  function editData(uint256 _sem,Department _dept,uint256 _CGPA,uint256 _rollno) public admin VerifyStud(_rollno){... */\n    tag_6:\n      tag_22\n      0x04\n      dup1\n      calldatasize\n      sub\n      dup2\n      add\n      swap1\n      tag_23\n      swap2\n      swap1\n      tag_24\n      jump\t// in\n    tag_23:\n      tag_25\n      jump\t// in\n    tag_22:\n      stop\n        /* \"default_workspace /StudentManagement.sol\":685:990  function addStudent(string memory _name,uint256 _sem,Department _dept,uint256 _CGPA,uint256 _rollno) public  admin {... */\n    tag_7:\n      tag_26\n      0x04\n      dup1\n      calldatasize\n      sub\n      dup2\n      add\n      swap1\n      tag_27\n      swap2\n      swap1\n      tag_28\n      jump\t// in\n    tag_27:\n      tag_29\n      jump\t// in\n    tag_26:\n      stop\n        /* \"default_workspace /StudentManagement.sol\":1613:1822  function editName(string memory _name,uint256 _rollno) public VerifyStud(_rollno){... */\n    tag_11:\n        /* \"default_workspace /StudentManagement.sol\":1686:1693  _rollno */\n      dup1\n        /* \"default_workspace /StudentManagement.sol\":603:617  studentDetails */\n      0x01\n        /* \"default_workspace /StudentManagement.sol\":603:625  studentDetails[rollno] */\n      0x00\n        /* \"default_workspace /StudentManagement.sol\":618:624  rollno */\n      dup3\n        /* \"default_workspace /StudentManagement.sol\":603:625  studentDetails[rollno] */\n      dup2\n      mstore\n      0x20\n      add\n      swap1\n      dup2\n      mstore\n      0x20\n      add\n      0x00\n      keccak256\n        /* \"default_workspace /StudentManagement.sol\":603:631  studentDetails[rollno].exist */\n      0x05\n      add\n      0x00\n      swap1\n      sload\n      swap1\n      0x0100\n      exp\n      swap1\n      div\n      0xff\n      and\n        /* \"default_workspace /StudentManagement.sol\":595:661  require(studentDetails[rollno].exist,\"Roll Number does not exist\") */\n      tag_31\n      jumpi\n      mload(0x40)\n      0x08c379a000000000000000000000000000000000000000000000000000000000\n      dup2\n      mstore\n      0x04\n      add\n      tag_32\n      swap1\n      tag_33\n      jump\t// in\n    tag_32:\n      mload(0x40)\n      dup1\n      swap2\n      sub\n      swap1\n      revert\n    tag_31:\n        /* \"default_workspace /StudentManagement.sol\":1713:1736  Student storage student */\n      0x00\n        /* \"default_workspace /StudentManagement.sol\":1739:1753  studentDetails */\n      0x01\n        /* \"default_workspace /StudentManagement.sol\":1739:1762  studentDetails[_rollno] */\n      0x00\n        /* \"default_workspace /StudentManagement.sol\":1754:1761  _rollno */\n      dup5\n        /* \"default_workspace /StudentManagement.sol\":1739:1762  studentDetails[_rollno] */\n      dup2\n      mstore\n      0x20\n      add\n      swap1\n      dup2\n      mstore\n      0x20\n      add\n      0x00\n      keccak256\n        /* \"default_workspace /StudentManagement.sol\":1713:1762  Student storage student = studentDetails[_rollno] */\n      swap1\n      pop\n        /* \"default_workspace /StudentManagement.sol\":1794:1799  _name */\n      dup4\n        /* \"default_workspace /StudentManagement.sol\":1780:1787  student */\n      dup2\n        /* \"default_workspace /StudentManagement.sol\":1780:1792  student.name */\n      0x00\n      add\n        /* \"default_workspace /StudentManagement.sol\":1780:1799  student.name= _name */\n      swap1\n      dup2\n      tag_35\n      swap2\n      swap1\n      tag_36\n      jump\t// in\n    tag_35:\n      pop\n        /* \"default_workspace /StudentManagement.sol\":1694:1822  {... */\n      pop\n        /* \"default_workspace /StudentManagement.sol\":1613:1822  function editName(string memory _name,uint256 _rollno) public VerifyStud(_rollno){... */\n      pop\n      pop\n      pop\n      jump\t// out\n        /* \"default_workspace /StudentManagement.sol\":997:1303  function getStudent(uint256 _rollno) public view admin returns (string memory name, uint256 sem, Department dept, uint256 CGPA, uint256 rollno) {... */\n    tag_15:\n        /* \"default_workspace /StudentManagement.sol\":1061:1079  string memory name */\n      0x60\n        /* \"default_workspace /StudentManagement.sol\":1081:1092  uint256 sem */\n      0x00\n        /* \"default_workspace /StudentManagement.sol\":1094:1109  Department dept */\n      0x00\n        /* \"default_workspace /StudentManagement.sol\":1111:1123  uint256 CGPA */\n      0x00\n        /* \"default_workspace /StudentManagement.sol\":1125:1139  uint256 rollno */\n      0x00\n        /* \"default_workspace /StudentManagement.sol\":480:492  staffAdvisor */\n      0x00\n      0x00\n      swap1\n      sload\n      swap1\n      0x0100\n      exp\n      swap1\n      div\n      0xffffffffffffffffffffffffffffffffffffffff\n      and\n        /* \"default_workspace /StudentManagement.sol\":466:492  msg.sender == staffAdvisor */\n      0xffffffffffffffffffffffffffffffffffffffff\n      and\n        /* \"default_workspace /StudentManagement.sol\":466:476  msg.sender */\n      caller\n        /* \"default_workspace /StudentManagement.sol\":466:492  msg.sender == staffAdvisor */\n      0xffffffffffffffffffffffffffffffffffffffff\n      and\n      eq\n        /* \"default_workspace /StudentManagement.sol\":458:527  require(msg.sender == staffAdvisor,\"You cannot access this function\") */\n      tag_38\n      jumpi\n      mload(0x40)\n      0x08c379a000000000000000000000000000000000000000000000000000000000\n      dup2\n      mstore\n      0x04\n      add\n      tag_39\n      swap1\n      tag_40\n      jump\t// in\n    tag_39:\n      mload(0x40)\n      dup1\n      swap2\n      sub\n      swap1\n      revert\n    tag_38:\n        /* \"default_workspace /StudentManagement.sol\":1160:1182  Student memory student */\n      0x00\n        /* \"default_workspace /StudentManagement.sol\":1185:1199  studentDetails */\n      0x01\n        /* \"default_workspace /StudentManagement.sol\":1185:1208  studentDetails[_rollno] */\n      0x00\n        /* \"default_workspace /StudentManagement.sol\":1200:1207  _rollno */\n      dup9\n        /* \"default_workspace /StudentManagement.sol\":1185:1208  studentDetails[_rollno] */\n      dup2\n      mstore\n      0x20\n      add\n      swap1\n      dup2\n      mstore\n      0x20\n      add\n      0x00\n      keccak256\n        /* \"default_workspace /StudentManagement.sol\":1160:1208  Student memory student = studentDetails[_rollno] */\n      mload(0x40)\n      dup1\n      0xc0\n      add\n      0x40\n      mstore\n      swap1\n      dup2\n      0x00\n      dup3\n      add\n      dup1\n      sload\n      tag_42\n      swap1\n      tag_43\n      jump\t// in\n    tag_42:\n      dup1\n      0x1f\n      add\n      0x20\n      dup1\n      swap2\n      div\n      mul\n      0x20\n      add\n      mload(0x40)\n      swap1\n      dup2\n      add\n      0x40\n      mstore\n      dup1\n      swap3\n      swap2\n      swap1\n      dup2\n      dup2\n      mstore\n      0x20\n      add\n      dup3\n      dup1\n      sload\n      tag_44\n      swap1\n      tag_43\n      jump\t// in\n    tag_44:\n      dup1\n      iszero\n      tag_45\n      jumpi\n      dup1\n      0x1f\n      lt\n      tag_46\n      jumpi\n      0x0100\n      dup1\n      dup4\n      sload\n      div\n      mul\n      dup4\n      mstore\n      swap2\n      0x20\n      add\n      swap2\n      jump(tag_45)\n    tag_46:\n      dup3\n      add\n      swap2\n      swap1\n      0x00\n      mstore\n      keccak256(0x00, 0x20)\n      swap1\n    tag_47:\n      dup2\n      sload\n      dup2\n      mstore\n      swap1\n      0x01\n      add\n      swap1\n      0x20\n      add\n      dup1\n      dup4\n      gt\n      tag_47\n      jumpi\n      dup3\n      swap1\n      sub\n      0x1f\n      and\n      dup3\n      add\n      swap2\n    tag_45:\n      pop\n      pop\n      pop\n      pop\n      pop\n      dup2\n      mstore\n      0x20\n      add\n      0x01\n      dup3\n      add\n      sload\n      dup2\n      mstore\n      0x20\n      add\n      0x02\n      dup3\n      add\n      0x00\n      swap1\n      sload\n      swap1\n      0x0100\n      exp\n      swap1\n      div\n      0xff\n      and\n      0x02\n      dup2\n      gt\n      iszero\n      tag_48\n      jumpi\n      tag_49\n      tag_50\n      jump\t// in\n    tag_49:\n    tag_48:\n      0x02\n      dup2\n      gt\n      iszero\n      tag_51\n      jumpi\n      tag_52\n      tag_50\n      jump\t// in\n    tag_52:\n    tag_51:\n      dup2\n      mstore\n      0x20\n      add\n      0x03\n      dup3\n      add\n      sload\n      dup2\n      mstore\n      0x20\n      add\n      0x04\n      dup3\n      add\n      sload\n      dup2\n      mstore\n      0x20\n      add\n      0x05\n      dup3\n      add\n      0x00\n      swap1\n      sload\n      swap1\n      0x0100\n      exp\n      swap1\n      div\n      0xff\n      and\n      iszero\n      iszero\n      iszero\n      iszero\n      dup2\n      mstore\n      pop\n      pop\n      swap1\n      pop\n        /* \"default_workspace /StudentManagement.sol\":1226:1233  student */\n      dup1\n        /* \"default_workspace /StudentManagement.sol\":1226:1238  student.name */\n      0x00\n      add\n      mload\n        /* \"default_workspace /StudentManagement.sol\":1240:1247  student */\n      dup2\n        /* \"default_workspace /StudentManagement.sol\":1240:1251  student.sem */\n      0x20\n      add\n      mload\n        /* \"default_workspace /StudentManagement.sol\":1253:1260  student */\n      dup3\n        /* \"default_workspace /StudentManagement.sol\":1253:1265  student.dept */\n      0x40\n      add\n      mload\n        /* \"default_workspace /StudentManagement.sol\":1267:1274  student */\n      dup4\n        /* \"default_workspace /StudentManagement.sol\":1267:1279  student.CGPA */\n      0x60\n      add\n      mload\n        /* \"default_workspace /StudentManagement.sol\":1281:1288  student */\n      dup5\n        /* \"default_workspace /StudentManagement.sol\":1281:1295  student.rollno */\n      0x80\n      add\n      mload\n        /* \"default_workspace /StudentManagement.sol\":1218:1296  return (student.name, student.sem, student.dept, student.CGPA, student.rollno) */\n      swap6\n      pop\n      swap6\n      pop\n      swap6\n      pop\n      swap6\n      pop\n      swap6\n      pop\n      pop\n        /* \"default_workspace /StudentManagement.sol\":997:1303  function getStudent(uint256 _rollno) public view admin returns (string memory name, uint256 sem, Department dept, uint256 CGPA, uint256 rollno) {... */\n      swap2\n      swap4\n      swap6\n      swap1\n      swap3\n      swap5\n      pop\n      jump\t// out\n        /* \"default_workspace /StudentManagement.sol\":125:152  address public staffAdvisor */\n    tag_19:\n      0x00\n      0x00\n      swap1\n      sload\n      swap1\n      0x0100\n      exp\n      swap1\n      div\n      0xffffffffffffffffffffffffffffffffffffffff\n      and\n      dup2\n      jump\t// out\n        /* \"default_workspace /StudentManagement.sol\":1309:1607  function editData(uint256 _sem,Department _dept,uint256 _CGPA,uint256 _rollno) public admin VerifyStud(_rollno){... */\n    tag_25:\n        /* \"default_workspace /StudentManagement.sol\":480:492  staffAdvisor */\n      0x00\n      0x00\n      swap1\n      sload\n      swap1\n      0x0100\n      exp\n      swap1\n      div\n      0xffffffffffffffffffffffffffffffffffffffff\n      and\n        /* \"default_workspace /StudentManagement.sol\":466:492  msg.sender == staffAdvisor */\n      0xffffffffffffffffffffffffffffffffffffffff\n      and\n        /* \"default_workspace /StudentManagement.sol\":466:476  msg.sender */\n      caller\n        /* \"default_workspace /StudentManagement.sol\":466:492  msg.sender == staffAdvisor */\n      0xffffffffffffffffffffffffffffffffffffffff\n      and\n      eq\n        /* \"default_workspace /StudentManagement.sol\":458:527  require(msg.sender == staffAdvisor,\"You cannot access this function\") */\n      tag_54\n      jumpi\n      mload(0x40)\n      0x08c379a000000000000000000000000000000000000000000000000000000000\n      dup2\n      mstore\n      0x04\n      add\n      tag_55\n      swap1\n      tag_40\n      jump\t// in\n    tag_55:\n      mload(0x40)\n      dup1\n      swap2\n      sub\n      swap1\n      revert\n    tag_54:\n        /* \"default_workspace /StudentManagement.sol\":1412:1419  _rollno */\n      dup1\n        /* \"default_workspace /StudentManagement.sol\":603:617  studentDetails */\n      0x01\n        /* \"default_workspace /StudentManagement.sol\":603:625  studentDetails[rollno] */\n      0x00\n        /* \"default_workspace /StudentManagement.sol\":618:624  rollno */\n      dup3\n        /* \"default_workspace /StudentManagement.sol\":603:625  studentDetails[rollno] */\n      dup2\n      mstore\n      0x20\n      add\n      swap1\n      dup2\n      mstore\n      0x20\n      add\n      0x00\n      keccak256\n        /* \"default_workspace /StudentManagement.sol\":603:631  studentDetails[rollno].exist */\n      0x05\n      add\n      0x00\n      swap1\n      sload\n      swap1\n      0x0100\n      exp\n      swap1\n      div\n      0xff\n      and\n        /* \"default_workspace /StudentManagement.sol\":595:661  require(studentDetails[rollno].exist,\"Roll Number does not exist\") */\n      tag_57\n      jumpi\n      mload(0x40)\n      0x08c379a000000000000000000000000000000000000000000000000000000000\n      dup2\n      mstore\n      0x04\n      add\n      tag_58\n      swap1\n      tag_33\n      jump\t// in\n    tag_58:\n      mload(0x40)\n      dup1\n      swap2\n      sub\n      swap1\n      revert\n    tag_57:\n        /* \"default_workspace /StudentManagement.sol\":1439:1462  Student storage student */\n      0x00\n        /* \"default_workspace /StudentManagement.sol\":1465:1479  studentDetails */\n      0x01\n        /* \"default_workspace /StudentManagement.sol\":1465:1488  studentDetails[_rollno] */\n      0x00\n        /* \"default_workspace /StudentManagement.sol\":1480:1487  _rollno */\n      dup5\n        /* \"default_workspace /StudentManagement.sol\":1465:1488  studentDetails[_rollno] */\n      dup2\n      mstore\n      0x20\n      add\n      swap1\n      dup2\n      mstore\n      0x20\n      add\n      0x00\n      keccak256\n        /* \"default_workspace /StudentManagement.sol\":1439:1488  Student storage student = studentDetails[_rollno] */\n      swap1\n      pop\n        /* \"default_workspace /StudentManagement.sol\":1519:1523  _sem */\n      dup6\n        /* \"default_workspace /StudentManagement.sol\":1506:1513  student */\n      dup2\n        /* \"default_workspace /StudentManagement.sol\":1506:1517  student.sem */\n      0x01\n      add\n        /* \"default_workspace /StudentManagement.sol\":1506:1523  student.sem= _sem */\n      dup2\n      swap1\n      sstore\n      pop\n        /* \"default_workspace /StudentManagement.sol\":1556:1561  _dept */\n      dup5\n        /* \"default_workspace /StudentManagement.sol\":1541:1548  student */\n      dup2\n        /* \"default_workspace /StudentManagement.sol\":1541:1553  student.dept */\n      0x02\n      add\n      0x00\n        /* \"default_workspace /StudentManagement.sol\":1541:1561  student.dept = _dept */\n      0x0100\n      exp\n      dup2\n      sload\n      dup2\n      0xff\n      mul\n      not\n      and\n      swap1\n      dup4\n      0x02\n      dup2\n      gt\n      iszero\n      tag_60\n      jumpi\n      tag_61\n      tag_50\n      jump\t// in\n    tag_61:\n    tag_60:\n      mul\n      or\n      swap1\n      sstore\n      pop\n        /* \"default_workspace /StudentManagement.sol\":1594:1599  _CGPA */\n      dup4\n        /* \"default_workspace /StudentManagement.sol\":1579:1586  student */\n      dup2\n        /* \"default_workspace /StudentManagement.sol\":1579:1591  student.CGPA */\n      0x03\n      add\n        /* \"default_workspace /StudentManagement.sol\":1579:1599  student.CGPA = _CGPA */\n      dup2\n      swap1\n      sstore\n      pop\n        /* \"default_workspace /StudentManagement.sol\":1420:1607  {... */\n      pop\n        /* \"default_workspace /StudentManagement.sol\":537:538  _ */\n      pop\n        /* \"default_workspace /StudentManagement.sol\":1309:1607  function editData(uint256 _sem,Department _dept,uint256 _CGPA,uint256 _rollno) public admin VerifyStud(_rollno){... */\n      pop\n      pop\n      pop\n      pop\n      jump\t// out\n        /* \"default_workspace /StudentManagement.sol\":685:990  function addStudent(string memory _name,uint256 _sem,Department _dept,uint256 _CGPA,uint256 _rollno) public  admin {... */\n    tag_29:\n        /* \"default_workspace /StudentManagement.sol\":480:492  staffAdvisor */\n      0x00\n      0x00\n      swap1\n      sload\n      swap1\n      0x0100\n      exp\n      swap1\n      div\n      0xffffffffffffffffffffffffffffffffffffffff\n      and\n        /* \"default_workspace /StudentManagement.sol\":466:492  msg.sender == staffAdvisor */\n      0xffffffffffffffffffffffffffffffffffffffff\n      and\n        /* \"default_workspace /StudentManagement.sol\":466:476  msg.sender */\n      caller\n        /* \"default_workspace /StudentManagement.sol\":466:492  msg.sender == staffAdvisor */\n      0xffffffffffffffffffffffffffffffffffffffff\n      and\n      eq\n        /* \"default_workspace /StudentManagement.sol\":458:527  require(msg.sender == staffAdvisor,\"You cannot access this function\") */\n      tag_63\n      jumpi\n      mload(0x40)\n      0x08c379a000000000000000000000000000000000000000000000000000000000\n      dup2\n      mstore\n      0x04\n      add\n      tag_64\n      swap1\n      tag_40\n      jump\t// in\n    tag_64:\n      mload(0x40)\n      dup1\n      swap2\n      sub\n      swap1\n      revert\n    tag_63:\n        /* \"default_workspace /StudentManagement.sol\":836:850  studentDetails */\n      0x01\n        /* \"default_workspace /StudentManagement.sol\":836:859  studentDetails[_rollno] */\n      0x00\n        /* \"default_workspace /StudentManagement.sol\":851:858  _rollno */\n      dup3\n        /* \"default_workspace /StudentManagement.sol\":836:859  studentDetails[_rollno] */\n      dup2\n      mstore\n      0x20\n      add\n      swap1\n      dup2\n      mstore\n      0x20\n      add\n      0x00\n      keccak256\n        /* \"default_workspace /StudentManagement.sol\":836:865  studentDetails[_rollno].exist */\n      0x05\n      add\n      0x00\n      swap1\n      sload\n      swap1\n      0x0100\n      exp\n      swap1\n      div\n      0xff\n      and\n        /* \"default_workspace /StudentManagement.sol\":835:865  !studentDetails[_rollno].exist */\n      iszero\n        /* \"default_workspace /StudentManagement.sol\":827:899  require(!studentDetails[_rollno].exist, \"Roll number is already exists\") */\n      tag_66\n      jumpi\n      mload(0x40)\n      0x08c379a000000000000000000000000000000000000000000000000000000000\n      dup2\n      mstore\n      0x04\n      add\n      tag_67\n      swap1\n      tag_68\n      jump\t// in\n    tag_67:\n      mload(0x40)\n      dup1\n      swap2\n      sub\n      swap1\n      revert\n    tag_66:\n        /* \"default_workspace /StudentManagement.sol\":939:983  Student(_name,_sem,_dept,_CGPA,_rollno,true) */\n      mload(0x40)\n      dup1\n      0xc0\n      add\n      0x40\n      mstore\n      dup1\n        /* \"default_workspace /StudentManagement.sol\":947:952  _name */\n      dup7\n        /* \"default_workspace /StudentManagement.sol\":939:983  Student(_name,_sem,_dept,_CGPA,_rollno,true) */\n      dup2\n      mstore\n      0x20\n      add\n        /* \"default_workspace /StudentManagement.sol\":953:957  _sem */\n      dup6\n        /* \"default_workspace /StudentManagement.sol\":939:983  Student(_name,_sem,_dept,_CGPA,_rollno,true) */\n      dup2\n      mstore\n      0x20\n      add\n        /* \"default_workspace /StudentManagement.sol\":958:963  _dept */\n      dup5\n        /* \"default_workspace /StudentManagement.sol\":939:983  Student(_name,_sem,_dept,_CGPA,_rollno,true) */\n      0x02\n      dup2\n      gt\n      iszero\n      tag_69\n      jumpi\n      tag_70\n      tag_50\n      jump\t// in\n    tag_70:\n    tag_69:\n      dup2\n      mstore\n      0x20\n      add\n        /* \"default_workspace /StudentManagement.sol\":964:969  _CGPA */\n      dup4\n        /* \"default_workspace /StudentManagement.sol\":939:983  Student(_name,_sem,_dept,_CGPA,_rollno,true) */\n      dup2\n      mstore\n      0x20\n      add\n        /* \"default_workspace /StudentManagement.sol\":970:977  _rollno */\n      dup3\n        /* \"default_workspace /StudentManagement.sol\":939:983  Student(_name,_sem,_dept,_CGPA,_rollno,true) */\n      dup2\n      mstore\n      0x20\n      add\n        /* \"default_workspace /StudentManagement.sol\":978:982  true */\n      0x01\n        /* \"default_workspace /StudentManagement.sol\":939:983  Student(_name,_sem,_dept,_CGPA,_rollno,true) */\n      iszero\n      iszero\n      dup2\n      mstore\n      pop\n        /* \"default_workspace /StudentManagement.sol\":913:927  studentDetails */\n      0x01\n        /* \"default_workspace /StudentManagement.sol\":913:936  studentDetails[_rollno] */\n      0x00\n        /* \"default_workspace /StudentManagement.sol\":928:935  _rollno */\n      dup4\n        /* \"default_workspace /StudentManagement.sol\":913:936  studentDetails[_rollno] */\n      dup2\n      mstore\n      0x20\n      add\n      swap1\n      dup2\n      mstore\n      0x20\n      add\n      0x00\n      keccak256\n        /* \"default_workspace /StudentManagement.sol\":913:983  studentDetails[_rollno] = Student(_name,_sem,_dept,_CGPA,_rollno,true) */\n      0x00\n      dup3\n      add\n      mload\n      dup2\n      0x00\n      add\n      swap1\n      dup2\n      tag_71\n      swap2\n      swap1\n      tag_36\n      jump\t// in\n    tag_71:\n      pop\n      0x20\n      dup3\n      add\n      mload\n      dup2\n      0x01\n      add\n      sstore\n      0x40\n      dup3\n      add\n      mload\n      dup2\n      0x02\n      add\n      exp(0x0100, 0x00)\n      dup2\n      sload\n      dup2\n      0xff\n      mul\n      not\n      and\n      swap1\n      dup4\n      0x02\n      dup2\n      gt\n      iszero\n      tag_72\n      jumpi\n      tag_73\n      tag_50\n      jump\t// in\n    tag_73:\n    tag_72:\n      mul\n      or\n      swap1\n      sstore\n      pop\n      0x60\n      dup3\n      add\n      mload\n      dup2\n      0x03\n      add\n      sstore\n      0x80\n      dup3\n      add\n      mload\n      dup2\n      0x04\n      add\n      sstore\n      0xa0\n      dup3\n      add\n      mload\n      dup2\n      0x05\n      add\n      exp(0x0100, 0x00)\n      dup2\n      sload\n      dup2\n      0xff\n      mul\n      not\n      and\n      swap1\n      dup4\n      iszero\n      iszero\n      mul\n      or\n      swap1\n      sstore\n      pop\n      swap1\n      pop\n      pop\n        /* \"default_workspace /StudentManagement.sol\":685:990  function addStudent(string memory _name,uint256 _sem,Department _dept,uint256 _CGPA,uint256 _rollno) public  admin {... */\n      pop\n      pop\n      pop\n      pop\n      pop\n      jump\t// out\n        /* \"#utility.yul\":7:82   */\n    tag_74:\n        /* \"#utility.yul\":40:46   */\n      0x00\n        /* \"#utility.yul\":73:75   */\n      0x40\n        /* \"#utility.yul\":67:76   */\n      mload\n        /* \"#utility.yul\":57:76   */\n      swap1\n      pop\n        /* \"#utility.yul\":7:82   */\n      swap1\n      jump\t// out\n        /* \"#utility.yul\":88:205   */\n    tag_75:\n        /* \"#utility.yul\":197:198   */\n      0x00\n        /* \"#utility.yul\":194:195   */\n      0x00\n        /* \"#utility.yul\":187:199   */\n      revert\n        /* \"#utility.yul\":211:328   */\n    tag_76:\n        /* \"#utility.yul\":320:321   */\n      0x00\n        /* \"#utility.yul\":317:318   */\n      0x00\n        /* \"#utility.yul\":310:322   */\n      revert\n        /* \"#utility.yul\":334:451   */\n    tag_77:\n        /* \"#utility.yul\":443:444   */\n      0x00\n        /* \"#utility.yul\":440:441   */\n      0x00\n        /* \"#utility.yul\":433:445   */\n      revert\n        /* \"#utility.yul\":457:574   */\n    tag_78:\n        /* \"#utility.yul\":566:567   */\n      0x00\n        /* \"#utility.yul\":563:564   */\n      0x00\n        /* \"#utility.yul\":556:568   */\n      revert\n        /* \"#utility.yul\":580:682   */\n    tag_79:\n        /* \"#utility.yul\":621:627   */\n      0x00\n        /* \"#utility.yul\":672:674   */\n      0x1f\n        /* \"#utility.yul\":668:675   */\n      not\n        /* \"#utility.yul\":663:665   */\n      0x1f\n        /* \"#utility.yul\":656:661   */\n      dup4\n        /* \"#utility.yul\":652:666   */\n      add\n        /* \"#utility.yul\":648:676   */\n      and\n        /* \"#utility.yul\":638:676   */\n      swap1\n      pop\n        /* \"#utility.yul\":580:682   */\n      swap2\n      swap1\n      pop\n      jump\t// out\n        /* \"#utility.yul\":688:868   */\n    tag_80:\n        /* \"#utility.yul\":736:813   */\n      0x4e487b7100000000000000000000000000000000000000000000000000000000\n        /* \"#utility.yul\":733:734   */\n      0x00\n        /* \"#utility.yul\":726:814   */\n      mstore\n        /* \"#utility.yul\":833:837   */\n      0x41\n        /* \"#utility.yul\":830:831   */\n      0x04\n        /* \"#utility.yul\":823:838   */\n      mstore\n        /* \"#utility.yul\":857:861   */\n      0x24\n        /* \"#utility.yul\":854:855   */\n      0x00\n        /* \"#utility.yul\":847:862   */\n      revert\n        /* \"#utility.yul\":874:1155   */\n    tag_81:\n        /* \"#utility.yul\":957:984   */\n      tag_135\n        /* \"#utility.yul\":979:983   */\n      dup3\n        /* \"#utility.yul\":957:984   */\n      tag_79\n      jump\t// in\n    tag_135:\n        /* \"#utility.yul\":949:955   */\n      dup2\n        /* \"#utility.yul\":945:985   */\n      add\n        /* \"#utility.yul\":1087:1093   */\n      dup2\n        /* \"#utility.yul\":1075:1085   */\n      dup2\n        /* \"#utility.yul\":1072:1094   */\n      lt\n        /* \"#utility.yul\":1051:1069   */\n      0xffffffffffffffff\n        /* \"#utility.yul\":1039:1049   */\n      dup3\n        /* \"#utility.yul\":1036:1070   */\n      gt\n        /* \"#utility.yul\":1033:1095   */\n      or\n        /* \"#utility.yul\":1030:1118   */\n      iszero\n      tag_136\n      jumpi\n        /* \"#utility.yul\":1098:1116   */\n      tag_137\n      tag_80\n      jump\t// in\n    tag_137:\n        /* \"#utility.yul\":1030:1118   */\n    tag_136:\n        /* \"#utility.yul\":1138:1148   */\n      dup1\n        /* \"#utility.yul\":1134:1136   */\n      0x40\n        /* \"#utility.yul\":1127:1149   */\n      mstore\n        /* \"#utility.yul\":917:1155   */\n      pop\n        /* \"#utility.yul\":874:1155   */\n      pop\n      pop\n      jump\t// out\n        /* \"#utility.yul\":1161:1290   */\n    tag_82:\n        /* \"#utility.yul\":1195:1201   */\n      0x00\n        /* \"#utility.yul\":1222:1242   */\n      tag_139\n      tag_74\n      jump\t// in\n    tag_139:\n        /* \"#utility.yul\":1212:1242   */\n      swap1\n      pop\n        /* \"#utility.yul\":1251:1284   */\n      tag_140\n        /* \"#utility.yul\":1279:1283   */\n      dup3\n        /* \"#utility.yul\":1271:1277   */\n      dup3\n        /* \"#utility.yul\":1251:1284   */\n      tag_81\n      jump\t// in\n    tag_140:\n        /* \"#utility.yul\":1161:1290   */\n      swap2\n      swap1\n      pop\n      jump\t// out\n        /* \"#utility.yul\":1296:1604   */\n    tag_83:\n        /* \"#utility.yul\":1358:1362   */\n      0x00\n        /* \"#utility.yul\":1448:1466   */\n      0xffffffffffffffff\n        /* \"#utility.yul\":1440:1446   */\n      dup3\n        /* \"#utility.yul\":1437:1467   */\n      gt\n        /* \"#utility.yul\":1434:1490   */\n      iszero\n      tag_142\n      jumpi\n        /* \"#utility.yul\":1470:1488   */\n      tag_143\n      tag_80\n      jump\t// in\n    tag_143:\n        /* \"#utility.yul\":1434:1490   */\n    tag_142:\n        /* \"#utility.yul\":1508:1537   */\n      tag_144\n        /* \"#utility.yul\":1530:1536   */\n      dup3\n        /* \"#utility.yul\":1508:1537   */\n      tag_79\n      jump\t// in\n    tag_144:\n        /* \"#utility.yul\":1500:1537   */\n      swap1\n      pop\n        /* \"#utility.yul\":1592:1596   */\n      0x20\n        /* \"#utility.yul\":1586:1590   */\n      dup2\n        /* \"#utility.yul\":1582:1597   */\n      add\n        /* \"#utility.yul\":1574:1597   */\n      swap1\n      pop\n        /* \"#utility.yul\":1296:1604   */\n      swap2\n      swap1\n      pop\n      jump\t// out\n        /* \"#utility.yul\":1610:1758   */\n    tag_84:\n        /* \"#utility.yul\":1708:1714   */\n      dup3\n        /* \"#utility.yul\":1703:1706   */\n      dup2\n        /* \"#utility.yul\":1698:1701   */\n      dup4\n        /* \"#utility.yul\":1685:1715   */\n      calldatacopy\n        /* \"#utility.yul\":1749:1750   */\n      0x00\n        /* \"#utility.yul\":1740:1746   */\n      dup4\n        /* \"#utility.yul\":1735:1738   */\n      dup4\n        /* \"#utility.yul\":1731:1747   */\n      add\n        /* \"#utility.yul\":1724:1751   */\n      mstore\n        /* \"#utility.yul\":1610:1758   */\n      pop\n      pop\n      pop\n      jump\t// out\n        /* \"#utility.yul\":1764:2189   */\n    tag_85:\n        /* \"#utility.yul\":1842:1847   */\n      0x00\n        /* \"#utility.yul\":1867:1933   */\n      tag_147\n        /* \"#utility.yul\":1883:1932   */\n      tag_148\n        /* \"#utility.yul\":1925:1931   */\n      dup5\n        /* \"#utility.yul\":1883:1932   */\n      tag_83\n      jump\t// in\n    tag_148:\n        /* \"#utility.yul\":1867:1933   */\n      tag_82\n      jump\t// in\n    tag_147:\n        /* \"#utility.yul\":1858:1933   */\n      swap1\n      pop\n        /* \"#utility.yul\":1956:1962   */\n      dup3\n        /* \"#utility.yul\":1949:1954   */\n      dup2\n        /* \"#utility.yul\":1942:1963   */\n      mstore\n        /* \"#utility.yul\":1994:1998   */\n      0x20\n        /* \"#utility.yul\":1987:1992   */\n      dup2\n        /* \"#utility.yul\":1983:1999   */\n      add\n        /* \"#utility.yul\":2032:2035   */\n      dup5\n        /* \"#utility.yul\":2023:2029   */\n      dup5\n        /* \"#utility.yul\":2018:2021   */\n      dup5\n        /* \"#utility.yul\":2014:2030   */\n      add\n        /* \"#utility.yul\":2011:2036   */\n      gt\n        /* \"#utility.yul\":2008:2120   */\n      iszero\n      tag_149\n      jumpi\n        /* \"#utility.yul\":2039:2118   */\n      tag_150\n      tag_78\n      jump\t// in\n    tag_150:\n        /* \"#utility.yul\":2008:2120   */\n    tag_149:\n        /* \"#utility.yul\":2129:2183   */\n      tag_151\n        /* \"#utility.yul\":2176:2182   */\n      dup5\n        /* \"#utility.yul\":2171:2174   */\n      dup3\n        /* \"#utility.yul\":2166:2169   */\n      dup6\n        /* \"#utility.yul\":2129:2183   */\n      tag_84\n      jump\t// in\n    tag_151:\n        /* \"#utility.yul\":1848:2189   */\n      pop\n        /* \"#utility.yul\":1764:2189   */\n      swap4\n      swap3\n      pop\n      pop\n      pop\n      jump\t// out\n        /* \"#utility.yul\":2209:2549   */\n    tag_86:\n        /* \"#utility.yul\":2265:2270   */\n      0x00\n        /* \"#utility.yul\":2314:2317   */\n      dup3\n        /* \"#utility.yul\":2307:2311   */\n      0x1f\n        /* \"#utility.yul\":2299:2305   */\n      dup4\n        /* \"#utility.yul\":2295:2312   */\n      add\n        /* \"#utility.yul\":2291:2318   */\n      slt\n        /* \"#utility.yul\":2281:2403   */\n      tag_153\n      jumpi\n        /* \"#utility.yul\":2322:2401   */\n      tag_154\n      tag_77\n      jump\t// in\n    tag_154:\n        /* \"#utility.yul\":2281:2403   */\n    tag_153:\n        /* \"#utility.yul\":2439:2445   */\n      dup2\n        /* \"#utility.yul\":2426:2446   */\n      calldataload\n        /* \"#utility.yul\":2464:2543   */\n      tag_155\n        /* \"#utility.yul\":2539:2542   */\n      dup5\n        /* \"#utility.yul\":2531:2537   */\n      dup3\n        /* \"#utility.yul\":2524:2528   */\n      0x20\n        /* \"#utility.yul\":2516:2522   */\n      dup7\n        /* \"#utility.yul\":2512:2529   */\n      add\n        /* \"#utility.yul\":2464:2543   */\n      tag_85\n      jump\t// in\n    tag_155:\n        /* \"#utility.yul\":2455:2543   */\n      swap2\n      pop\n        /* \"#utility.yul\":2271:2549   */\n      pop\n        /* \"#utility.yul\":2209:2549   */\n      swap3\n      swap2\n      pop\n      pop\n      jump\t// out\n        /* \"#utility.yul\":2555:2632   */\n    tag_87:\n        /* \"#utility.yul\":2592:2599   */\n      0x00\n        /* \"#utility.yul\":2621:2626   */\n      dup2\n        /* \"#utility.yul\":2610:2626   */\n      swap1\n      pop\n        /* \"#utility.yul\":2555:2632   */\n      swap2\n      swap1\n      pop\n      jump\t// out\n        /* \"#utility.yul\":2638:2760   */\n    tag_88:\n        /* \"#utility.yul\":2711:2735   */\n      tag_158\n        /* \"#utility.yul\":2729:2734   */\n      dup2\n        /* \"#utility.yul\":2711:2735   */\n      tag_87\n      jump\t// in\n    tag_158:\n        /* \"#utility.yul\":2704:2709   */\n      dup2\n        /* \"#utility.yul\":2701:2736   */\n      eq\n        /* \"#utility.yul\":2691:2754   */\n      tag_159\n      jumpi\n        /* \"#utility.yul\":2750:2751   */\n      0x00\n        /* \"#utility.yul\":2747:2748   */\n      0x00\n        /* \"#utility.yul\":2740:2752   */\n      revert\n        /* \"#utility.yul\":2691:2754   */\n    tag_159:\n        /* \"#utility.yul\":2638:2760   */\n      pop\n      jump\t// out\n        /* \"#utility.yul\":2766:2905   */\n    tag_89:\n        /* \"#utility.yul\":2812:2817   */\n      0x00\n        /* \"#utility.yul\":2850:2856   */\n      dup2\n        /* \"#utility.yul\":2837:2857   */\n      calldataload\n        /* \"#utility.yul\":2828:2857   */\n      swap1\n      pop\n        /* \"#utility.yul\":2866:2899   */\n      tag_161\n        /* \"#utility.yul\":2893:2898   */\n      dup2\n        /* \"#utility.yul\":2866:2899   */\n      tag_88\n      jump\t// in\n    tag_161:\n        /* \"#utility.yul\":2766:2905   */\n      swap3\n      swap2\n      pop\n      pop\n      jump\t// out\n        /* \"#utility.yul\":2911:3565   */\n    tag_10:\n        /* \"#utility.yul\":2989:2995   */\n      0x00\n        /* \"#utility.yul\":2997:3003   */\n      0x00\n        /* \"#utility.yul\":3046:3048   */\n      0x40\n        /* \"#utility.yul\":3034:3043   */\n      dup4\n        /* \"#utility.yul\":3025:3032   */\n      dup6\n        /* \"#utility.yul\":3021:3044   */\n      sub\n        /* \"#utility.yul\":3017:3049   */\n      slt\n        /* \"#utility.yul\":3014:3133   */\n      iszero\n      tag_163\n      jumpi\n        /* \"#utility.yul\":3052:3131   */\n      tag_164\n      tag_75\n      jump\t// in\n    tag_164:\n        /* \"#utility.yul\":3014:3133   */\n    tag_163:\n        /* \"#utility.yul\":3200:3201   */\n      0x00\n        /* \"#utility.yul\":3189:3198   */\n      dup4\n        /* \"#utility.yul\":3185:3202   */\n      add\n        /* \"#utility.yul\":3172:3203   */\n      calldataload\n        /* \"#utility.yul\":3230:3248   */\n      0xffffffffffffffff\n        /* \"#utility.yul\":3222:3228   */\n      dup2\n        /* \"#utility.yul\":3219:3249   */\n      gt\n        /* \"#utility.yul\":3216:3333   */\n      iszero\n      tag_165\n      jumpi\n        /* \"#utility.yul\":3252:3331   */\n      tag_166\n      tag_76\n      jump\t// in\n    tag_166:\n        /* \"#utility.yul\":3216:3333   */\n    tag_165:\n        /* \"#utility.yul\":3357:3420   */\n      tag_167\n        /* \"#utility.yul\":3412:3419   */\n      dup6\n        /* \"#utility.yul\":3403:3409   */\n      dup3\n        /* \"#utility.yul\":3392:3401   */\n      dup7\n        /* \"#utility.yul\":3388:3410   */\n      add\n        /* \"#utility.yul\":3357:3420   */\n      tag_86\n      jump\t// in\n    tag_167:\n        /* \"#utility.yul\":3347:3420   */\n      swap3\n      pop\n        /* \"#utility.yul\":3143:3430   */\n      pop\n        /* \"#utility.yul\":3469:3471   */\n      0x20\n        /* \"#utility.yul\":3495:3548   */\n      tag_168\n        /* \"#utility.yul\":3540:3547   */\n      dup6\n        /* \"#utility.yul\":3531:3537   */\n      dup3\n        /* \"#utility.yul\":3520:3529   */\n      dup7\n        /* \"#utility.yul\":3516:3538   */\n      add\n        /* \"#utility.yul\":3495:3548   */\n      tag_89\n      jump\t// in\n    tag_168:\n        /* \"#utility.yul\":3485:3548   */\n      swap2\n      pop\n        /* \"#utility.yul\":3440:3558   */\n      pop\n        /* \"#utility.yul\":2911:3565   */\n      swap3\n      pop\n      swap3\n      swap1\n      pop\n      jump\t// out\n        /* \"#utility.yul\":3571:3900   */\n    tag_14:\n        /* \"#utility.yul\":3630:3636   */\n      0x00\n        /* \"#utility.yul\":3679:3681   */\n      0x20\n        /* \"#utility.yul\":3667:3676   */\n      dup3\n        /* \"#utility.yul\":3658:3665   */\n      dup5\n        /* \"#utility.yul\":3654:3677   */\n      sub\n        /* \"#utility.yul\":3650:3682   */\n      slt\n        /* \"#utility.yul\":3647:3766   */\n      iszero\n      tag_170\n      jumpi\n        /* \"#utility.yul\":3685:3764   */\n      tag_171\n      tag_75\n      jump\t// in\n    tag_171:\n        /* \"#utility.yul\":3647:3766   */\n    tag_170:\n        /* \"#utility.yul\":3805:3806   */\n      0x00\n        /* \"#utility.yul\":3830:3883   */\n      tag_172\n        /* \"#utility.yul\":3875:3882   */\n      dup5\n        /* \"#utility.yul\":3866:3872   */\n      dup3\n        /* \"#utility.yul\":3855:3864   */\n      dup6\n        /* \"#utility.yul\":3851:3873   */\n      add\n        /* \"#utility.yul\":3830:3883   */\n      tag_89\n      jump\t// in\n    tag_172:\n        /* \"#utility.yul\":3820:3883   */\n      swap2\n      pop\n        /* \"#utility.yul\":3776:3893   */\n      pop\n        /* \"#utility.yul\":3571:3900   */\n      swap3\n      swap2\n      pop\n      pop\n      jump\t// out\n        /* \"#utility.yul\":3906:4005   */\n    tag_90:\n        /* \"#utility.yul\":3958:3964   */\n      0x00\n        /* \"#utility.yul\":3992:3997   */\n      dup2\n        /* \"#utility.yul\":3986:3998   */\n      mload\n        /* \"#utility.yul\":3976:3998   */\n      swap1\n      pop\n        /* \"#utility.yul\":3906:4005   */\n      swap2\n      swap1\n      pop\n      jump\t// out\n        /* \"#utility.yul\":4011:4180   */\n    tag_91:\n        /* \"#utility.yul\":4095:4106   */\n      0x00\n        /* \"#utility.yul\":4129:4135   */\n      dup3\n        /* \"#utility.yul\":4124:4127   */\n      dup3\n        /* \"#utility.yul\":4117:4136   */\n      mstore\n        /* \"#utility.yul\":4169:4173   */\n      0x20\n        /* \"#utility.yul\":4164:4167   */\n      dup3\n        /* \"#utility.yul\":4160:4174   */\n      add\n        /* \"#utility.yul\":4145:4174   */\n      swap1\n      pop\n        /* \"#utility.yul\":4011:4180   */\n      swap3\n      swap2\n      pop\n      pop\n      jump\t// out\n        /* \"#utility.yul\":4186:4325   */\n    tag_92:\n        /* \"#utility.yul\":4275:4281   */\n      dup3\n        /* \"#utility.yul\":4270:4273   */\n      dup2\n        /* \"#utility.yul\":4265:4268   */\n      dup4\n        /* \"#utility.yul\":4259:4282   */\n      mcopy\n        /* \"#utility.yul\":4316:4317   */\n      0x00\n        /* \"#utility.yul\":4307:4313   */\n      dup4\n        /* \"#utility.yul\":4302:4305   */\n      dup4\n        /* \"#utility.yul\":4298:4314   */\n      add\n        /* \"#utility.yul\":4291:4318   */\n      mstore\n        /* \"#utility.yul\":4186:4325   */\n      pop\n      pop\n      pop\n      jump\t// out\n        /* \"#utility.yul\":4331:4708   */\n    tag_93:\n        /* \"#utility.yul\":4419:4422   */\n      0x00\n        /* \"#utility.yul\":4447:4486   */\n      tag_177\n        /* \"#utility.yul\":4480:4485   */\n      dup3\n        /* \"#utility.yul\":4447:4486   */\n      tag_90\n      jump\t// in\n    tag_177:\n        /* \"#utility.yul\":4502:4573   */\n      tag_178\n        /* \"#utility.yul\":4566:4572   */\n      dup2\n        /* \"#utility.yul\":4561:4564   */\n      dup6\n        /* \"#utility.yul\":4502:4573   */\n      tag_91\n      jump\t// in\n    tag_178:\n        /* \"#utility.yul\":4495:4573   */\n      swap4\n      pop\n        /* \"#utility.yul\":4582:4647   */\n      tag_179\n        /* \"#utility.yul\":4640:4646   */\n      dup2\n        /* \"#utility.yul\":4635:4638   */\n      dup6\n        /* \"#utility.yul\":4628:4632   */\n      0x20\n        /* \"#utility.yul\":4621:4626   */\n      dup7\n        /* \"#utility.yul\":4617:4633   */\n      add\n        /* \"#utility.yul\":4582:4647   */\n      tag_92\n      jump\t// in\n    tag_179:\n        /* \"#utility.yul\":4672:4701   */\n      tag_180\n        /* \"#utility.yul\":4694:4700   */\n      dup2\n        /* \"#utility.yul\":4672:4701   */\n      tag_79\n      jump\t// in\n    tag_180:\n        /* \"#utility.yul\":4667:4670   */\n      dup5\n        /* \"#utility.yul\":4663:4702   */\n      add\n        /* \"#utility.yul\":4656:4702   */\n      swap2\n      pop\n        /* \"#utility.yul\":4423:4708   */\n      pop\n        /* \"#utility.yul\":4331:4708   */\n      swap3\n      swap2\n      pop\n      pop\n      jump\t// out\n        /* \"#utility.yul\":4714:4832   */\n    tag_94:\n        /* \"#utility.yul\":4801:4825   */\n      tag_182\n        /* \"#utility.yul\":4819:4824   */\n      dup2\n        /* \"#utility.yul\":4801:4825   */\n      tag_87\n      jump\t// in\n    tag_182:\n        /* \"#utility.yul\":4796:4799   */\n      dup3\n        /* \"#utility.yul\":4789:4826   */\n      mstore\n        /* \"#utility.yul\":4714:4832   */\n      pop\n      pop\n      jump\t// out\n        /* \"#utility.yul\":4838:5018   */\n    tag_50:\n        /* \"#utility.yul\":4886:4963   */\n      0x4e487b7100000000000000000000000000000000000000000000000000000000\n        /* \"#utility.yul\":4883:4884   */\n      0x00\n        /* \"#utility.yul\":4876:4964   */\n      mstore\n        /* \"#utility.yul\":4983:4987   */\n      0x21\n        /* \"#utility.yul\":4980:4981   */\n      0x04\n        /* \"#utility.yul\":4973:4988   */\n      mstore\n        /* \"#utility.yul\":5007:5011   */\n      0x24\n        /* \"#utility.yul\":5004:5005   */\n      0x00\n        /* \"#utility.yul\":4997:5012   */\n      revert\n        /* \"#utility.yul\":5024:5141   */\n    tag_95:\n        /* \"#utility.yul\":5109:5110   */\n      0x03\n        /* \"#utility.yul\":5102:5107   */\n      dup2\n        /* \"#utility.yul\":5099:5111   */\n      lt\n        /* \"#utility.yul\":5089:5135   */\n      tag_185\n      jumpi\n        /* \"#utility.yul\":5115:5133   */\n      tag_186\n      tag_50\n      jump\t// in\n    tag_186:\n        /* \"#utility.yul\":5089:5135   */\n    tag_185:\n        /* \"#utility.yul\":5024:5141   */\n      pop\n      jump\t// out\n        /* \"#utility.yul\":5147:5282   */\n    tag_96:\n        /* \"#utility.yul\":5196:5203   */\n      0x00\n        /* \"#utility.yul\":5225:5230   */\n      dup2\n        /* \"#utility.yul\":5214:5230   */\n      swap1\n      pop\n        /* \"#utility.yul\":5231:5276   */\n      tag_188\n        /* \"#utility.yul\":5270:5275   */\n      dup3\n        /* \"#utility.yul\":5231:5276   */\n      tag_95\n      jump\t// in\n    tag_188:\n        /* \"#utility.yul\":5147:5282   */\n      swap2\n      swap1\n      pop\n      jump\t// out\n        /* \"#utility.yul\":5288:5423   */\n    tag_97:\n        /* \"#utility.yul\":5348:5357   */\n      0x00\n        /* \"#utility.yul\":5381:5417   */\n      tag_190\n        /* \"#utility.yul\":5411:5416   */\n      dup3\n        /* \"#utility.yul\":5381:5417   */\n      tag_96\n      jump\t// in\n    tag_190:\n        /* \"#utility.yul\":5368:5417   */\n      swap1\n      pop\n        /* \"#utility.yul\":5288:5423   */\n      swap2\n      swap1\n      pop\n      jump\t// out\n        /* \"#utility.yul\":5429:5580   */\n    tag_98:\n        /* \"#utility.yul\":5526:5573   */\n      tag_192\n        /* \"#utility.yul\":5567:5572   */\n      dup2\n        /* \"#utility.yul\":5526:5573   */\n      tag_97\n      jump\t// in\n    tag_192:\n        /* \"#utility.yul\":5521:5524   */\n      dup3\n        /* \"#utility.yul\":5514:5574   */\n      mstore\n        /* \"#utility.yul\":5429:5580   */\n      pop\n      pop\n      jump\t// out\n        /* \"#utility.yul\":5586:6361   */\n    tag_17:\n        /* \"#utility.yul\":5821:5825   */\n      0x00\n        /* \"#utility.yul\":5859:5862   */\n      0xa0\n        /* \"#utility.yul\":5848:5857   */\n      dup3\n        /* \"#utility.yul\":5844:5863   */\n      add\n        /* \"#utility.yul\":5836:5863   */\n      swap1\n      pop\n        /* \"#utility.yul\":5909:5918   */\n      dup2\n        /* \"#utility.yul\":5903:5907   */\n      dup2\n        /* \"#utility.yul\":5899:5919   */\n      sub\n        /* \"#utility.yul\":5895:5896   */\n      0x00\n        /* \"#utility.yul\":5884:5893   */\n      dup4\n        /* \"#utility.yul\":5880:5897   */\n      add\n        /* \"#utility.yul\":5873:5920   */\n      mstore\n        /* \"#utility.yul\":5937:6015   */\n      tag_194\n        /* \"#utility.yul\":6010:6014   */\n      dup2\n        /* \"#utility.yul\":6001:6007   */\n      dup9\n        /* \"#utility.yul\":5937:6015   */\n      tag_93\n      jump\t// in\n    tag_194:\n        /* \"#utility.yul\":5929:6015   */\n      swap1\n      pop\n        /* \"#utility.yul\":6025:6097   */\n      tag_195\n        /* \"#utility.yul\":6093:6095   */\n      0x20\n        /* \"#utility.yul\":6082:6091   */\n      dup4\n        /* \"#utility.yul\":6078:6096   */\n      add\n        /* \"#utility.yul\":6069:6075   */\n      dup8\n        /* \"#utility.yul\":6025:6097   */\n      tag_94\n      jump\t// in\n    tag_195:\n        /* \"#utility.yul\":6107:6189   */\n      tag_196\n        /* \"#utility.yul\":6185:6187   */\n      0x40\n        /* \"#utility.yul\":6174:6183   */\n      dup4\n        /* \"#utility.yul\":6170:6188   */\n      add\n        /* \"#utility.yul\":6161:6167   */\n      dup7\n        /* \"#utility.yul\":6107:6189   */\n      tag_98\n      jump\t// in\n    tag_196:\n        /* \"#utility.yul\":6199:6271   */\n      tag_197\n        /* \"#utility.yul\":6267:6269   */\n      0x60\n        /* \"#utility.yul\":6256:6265   */\n      dup4\n        /* \"#utility.yul\":6252:6270   */\n      add\n        /* \"#utility.yul\":6243:6249   */\n      dup6\n        /* \"#utility.yul\":6199:6271   */\n      tag_94\n      jump\t// in\n    tag_197:\n        /* \"#utility.yul\":6281:6354   */\n      tag_198\n        /* \"#utility.yul\":6349:6352   */\n      0x80\n        /* \"#utility.yul\":6338:6347   */\n      dup4\n        /* \"#utility.yul\":6334:6353   */\n      add\n        /* \"#utility.yul\":6325:6331   */\n      dup5\n        /* \"#utility.yul\":6281:6354   */\n      tag_94\n      jump\t// in\n    tag_198:\n        /* \"#utility.yul\":5586:6361   */\n      swap7\n      swap6\n      pop\n      pop\n      pop\n      pop\n      pop\n      pop\n      jump\t// out\n        /* \"#utility.yul\":6367:6493   */\n    tag_99:\n        /* \"#utility.yul\":6404:6411   */\n      0x00\n        /* \"#utility.yul\":6444:6486   */\n      0xffffffffffffffffffffffffffffffffffffffff\n        /* \"#utility.yul\":6437:6442   */\n      dup3\n        /* \"#utility.yul\":6433:6487   */\n      and\n        /* \"#utility.yul\":6422:6487   */\n      swap1\n      pop\n        /* \"#utility.yul\":6367:6493   */\n      swap2\n      swap1\n      pop\n      jump\t// out\n        /* \"#utility.yul\":6499:6595   */\n    tag_100:\n        /* \"#utility.yul\":6536:6543   */\n      0x00\n        /* \"#utility.yul\":6565:6589   */\n      tag_201\n        /* \"#utility.yul\":6583:6588   */\n      dup3\n        /* \"#utility.yul\":6565:6589   */\n      tag_99\n      jump\t// in\n    tag_201:\n        /* \"#utility.yul\":6554:6589   */\n      swap1\n      pop\n        /* \"#utility.yul\":6499:6595   */\n      swap2\n      swap1\n      pop\n      jump\t// out\n        /* \"#utility.yul\":6601:6719   */\n    tag_101:\n        /* \"#utility.yul\":6688:6712   */\n      tag_203\n        /* \"#utility.yul\":6706:6711   */\n      dup2\n        /* \"#utility.yul\":6688:6712   */\n      tag_100\n      jump\t// in\n    tag_203:\n        /* \"#utility.yul\":6683:6686   */\n      dup3\n        /* \"#utility.yul\":6676:6713   */\n      mstore\n        /* \"#utility.yul\":6601:6719   */\n      pop\n      pop\n      jump\t// out\n        /* \"#utility.yul\":6725:6947   */\n    tag_21:\n        /* \"#utility.yul\":6818:6822   */\n      0x00\n        /* \"#utility.yul\":6856:6858   */\n      0x20\n        /* \"#utility.yul\":6845:6854   */\n      dup3\n        /* \"#utility.yul\":6841:6859   */\n      add\n        /* \"#utility.yul\":6833:6859   */\n      swap1\n      pop\n        /* \"#utility.yul\":6869:6940   */\n      tag_205\n        /* \"#utility.yul\":6937:6938   */\n      0x00\n        /* \"#utility.yul\":6926:6935   */\n      dup4\n        /* \"#utility.yul\":6922:6939   */\n      add\n        /* \"#utility.yul\":6913:6919   */\n      dup5\n        /* \"#utility.yul\":6869:6940   */\n      tag_101\n      jump\t// in\n    tag_205:\n        /* \"#utility.yul\":6725:6947   */\n      swap3\n      swap2\n      pop\n      pop\n      jump\t// out\n        /* \"#utility.yul\":6953:7064   */\n    tag_102:\n        /* \"#utility.yul\":7038:7039   */\n      0x03\n        /* \"#utility.yul\":7031:7036   */\n      dup2\n        /* \"#utility.yul\":7028:7040   */\n      lt\n        /* \"#utility.yul\":7018:7058   */\n      tag_207\n      jumpi\n        /* \"#utility.yul\":7054:7055   */\n      0x00\n        /* \"#utility.yul\":7051:7052   */\n      0x00\n        /* \"#utility.yul\":7044:7056   */\n      revert\n        /* \"#utility.yul\":7018:7058   */\n    tag_207:\n        /* \"#utility.yul\":6953:7064   */\n      pop\n      jump\t// out\n        /* \"#utility.yul\":7070:7233   */\n    tag_103:\n        /* \"#utility.yul\":7128:7133   */\n      0x00\n        /* \"#utility.yul\":7166:7172   */\n      dup2\n        /* \"#utility.yul\":7153:7173   */\n      calldataload\n        /* \"#utility.yul\":7144:7173   */\n      swap1\n      pop\n        /* \"#utility.yul\":7182:7227   */\n      tag_209\n        /* \"#utility.yul\":7221:7226   */\n      dup2\n        /* \"#utility.yul\":7182:7227   */\n      tag_102\n      jump\t// in\n    tag_209:\n        /* \"#utility.yul\":7070:7233   */\n      swap3\n      swap2\n      pop\n      pop\n      jump\t// out\n        /* \"#utility.yul\":7239:8028   */\n    tag_24:\n        /* \"#utility.yul\":7337:7343   */\n      0x00\n        /* \"#utility.yul\":7345:7351   */\n      0x00\n        /* \"#utility.yul\":7353:7359   */\n      0x00\n        /* \"#utility.yul\":7361:7367   */\n      0x00\n        /* \"#utility.yul\":7410:7413   */\n      0x80\n        /* \"#utility.yul\":7398:7407   */\n      dup6\n        /* \"#utility.yul\":7389:7396   */\n      dup8\n        /* \"#utility.yul\":7385:7408   */\n      sub\n        /* \"#utility.yul\":7381:7414   */\n      slt\n        /* \"#utility.yul\":7378:7498   */\n      iszero\n      tag_211\n      jumpi\n        /* \"#utility.yul\":7417:7496   */\n      tag_212\n      tag_75\n      jump\t// in\n    tag_212:\n        /* \"#utility.yul\":7378:7498   */\n    tag_211:\n        /* \"#utility.yul\":7537:7538   */\n      0x00\n        /* \"#utility.yul\":7562:7615   */\n      tag_213\n        /* \"#utility.yul\":7607:7614   */\n      dup8\n        /* \"#utility.yul\":7598:7604   */\n      dup3\n        /* \"#utility.yul\":7587:7596   */\n      dup9\n        /* \"#utility.yul\":7583:7605   */\n      add\n        /* \"#utility.yul\":7562:7615   */\n      tag_89\n      jump\t// in\n    tag_213:\n        /* \"#utility.yul\":7552:7615   */\n      swap5\n      pop\n        /* \"#utility.yul\":7508:7625   */\n      pop\n        /* \"#utility.yul\":7664:7666   */\n      0x20\n        /* \"#utility.yul\":7690:7755   */\n      tag_214\n        /* \"#utility.yul\":7747:7754   */\n      dup8\n        /* \"#utility.yul\":7738:7744   */\n      dup3\n        /* \"#utility.yul\":7727:7736   */\n      dup9\n        /* \"#utility.yul\":7723:7745   */\n      add\n        /* \"#utility.yul\":7690:7755   */\n      tag_103\n      jump\t// in\n    tag_214:\n        /* \"#utility.yul\":7680:7755   */\n      swap4\n      pop\n        /* \"#utility.yul\":7635:7765   */\n      pop\n        /* \"#utility.yul\":7804:7806   */\n      0x40\n        /* \"#utility.yul\":7830:7883   */\n      tag_215\n        /* \"#utility.yul\":7875:7882   */\n      dup8\n        /* \"#utility.yul\":7866:7872   */\n      dup3\n        /* \"#utility.yul\":7855:7864   */\n      dup9\n        /* \"#utility.yul\":7851:7873   */\n      add\n        /* \"#utility.yul\":7830:7883   */\n      tag_89\n      jump\t// in\n    tag_215:\n        /* \"#utility.yul\":7820:7883   */\n      swap3\n      pop\n        /* \"#utility.yul\":7775:7893   */\n      pop\n        /* \"#utility.yul\":7932:7934   */\n      0x60\n        /* \"#utility.yul\":7958:8011   */\n      tag_216\n        /* \"#utility.yul\":8003:8010   */\n      dup8\n        /* \"#utility.yul\":7994:8000   */\n      dup3\n        /* \"#utility.yul\":7983:7992   */\n      dup9\n        /* \"#utility.yul\":7979:8001   */\n      add\n        /* \"#utility.yul\":7958:8011   */\n      tag_89\n      jump\t// in\n    tag_216:\n        /* \"#utility.yul\":7948:8011   */\n      swap2\n      pop\n        /* \"#utility.yul\":7903:8021   */\n      pop\n        /* \"#utility.yul\":7239:8028   */\n      swap3\n      swap6\n      swap2\n      swap5\n      pop\n      swap3\n      pop\n      jump\t// out\n        /* \"#utility.yul\":8034:9149   */\n    tag_28:\n        /* \"#utility.yul\":8151:8157   */\n      0x00\n        /* \"#utility.yul\":8159:8165   */\n      0x00\n        /* \"#utility.yul\":8167:8173   */\n      0x00\n        /* \"#utility.yul\":8175:8181   */\n      0x00\n        /* \"#utility.yul\":8183:8189   */\n      0x00\n        /* \"#utility.yul\":8232:8235   */\n      0xa0\n        /* \"#utility.yul\":8220:8229   */\n      dup7\n        /* \"#utility.yul\":8211:8218   */\n      dup9\n        /* \"#utility.yul\":8207:8230   */\n      sub\n        /* \"#utility.yul\":8203:8236   */\n      slt\n        /* \"#utility.yul\":8200:8320   */\n      iszero\n      tag_218\n      jumpi\n        /* \"#utility.yul\":8239:8318   */\n      tag_219\n      tag_75\n      jump\t// in\n    tag_219:\n        /* \"#utility.yul\":8200:8320   */\n    tag_218:\n        /* \"#utility.yul\":8387:8388   */\n      0x00\n        /* \"#utility.yul\":8376:8385   */\n      dup7\n        /* \"#utility.yul\":8372:8389   */\n      add\n        /* \"#utility.yul\":8359:8390   */\n      calldataload\n        /* \"#utility.yul\":8417:8435   */\n      0xffffffffffffffff\n        /* \"#utility.yul\":8409:8415   */\n      dup2\n        /* \"#utility.yul\":8406:8436   */\n      gt\n        /* \"#utility.yul\":8403:8520   */\n      iszero\n      tag_220\n      jumpi\n        /* \"#utility.yul\":8439:8518   */\n      tag_221\n      tag_76\n      jump\t// in\n    tag_221:\n        /* \"#utility.yul\":8403:8520   */\n    tag_220:\n        /* \"#utility.yul\":8544:8607   */\n      tag_222\n        /* \"#utility.yul\":8599:8606   */\n      dup9\n        /* \"#utility.yul\":8590:8596   */\n      dup3\n        /* \"#utility.yul\":8579:8588   */\n      dup10\n        /* \"#utility.yul\":8575:8597   */\n      add\n        /* \"#utility.yul\":8544:8607   */\n      tag_86\n      jump\t// in\n    tag_222:\n        /* \"#utility.yul\":8534:8607   */\n      swap6\n      pop\n        /* \"#utility.yul\":8330:8617   */\n      pop\n        /* \"#utility.yul\":8656:8658   */\n      0x20\n        /* \"#utility.yul\":8682:8735   */\n      tag_223\n        /* \"#utility.yul\":8727:8734   */\n      dup9\n        /* \"#utility.yul\":8718:8724   */\n      dup3\n        /* \"#utility.yul\":8707:8716   */\n      dup10\n        /* \"#utility.yul\":8703:8725   */\n      add\n        /* \"#utility.yul\":8682:8735   */\n      tag_89\n      jump\t// in\n    tag_223:\n        /* \"#utility.yul\":8672:8735   */\n      swap5\n      pop\n        /* \"#utility.yul\":8627:8745   */\n      pop\n        /* \"#utility.yul\":8784:8786   */\n      0x40\n        /* \"#utility.yul\":8810:8875   */\n      tag_224\n        /* \"#utility.yul\":8867:8874   */\n      dup9\n        /* \"#utility.yul\":8858:8864   */\n      dup3\n        /* \"#utility.yul\":8847:8856   */\n      dup10\n        /* \"#utility.yul\":8843:8865   */\n      add\n        /* \"#utility.yul\":8810:8875   */\n      tag_103\n      jump\t// in\n    tag_224:\n        /* \"#utility.yul\":8800:8875   */\n      swap4\n      pop\n        /* \"#utility.yul\":8755:8885   */\n      pop\n        /* \"#utility.yul\":8924:8926   */\n      0x60\n        /* \"#utility.yul\":8950:9003   */\n      tag_225\n        /* \"#utility.yul\":8995:9002   */\n      dup9\n        /* \"#utility.yul\":8986:8992   */\n      dup3\n        /* \"#utility.yul\":8975:8984   */\n      dup10\n        /* \"#utility.yul\":8971:8993   */\n      add\n        /* \"#utility.yul\":8950:9003   */\n      tag_89\n      jump\t// in\n    tag_225:\n        /* \"#utility.yul\":8940:9003   */\n      swap3\n      pop\n        /* \"#utility.yul\":8895:9013   */\n      pop\n        /* \"#utility.yul\":9052:9055   */\n      0x80\n        /* \"#utility.yul\":9079:9132   */\n      tag_226\n        /* \"#utility.yul\":9124:9131   */\n      dup9\n        /* \"#utility.yul\":9115:9121   */\n      dup3\n        /* \"#utility.yul\":9104:9113   */\n      dup10\n        /* \"#utility.yul\":9100:9122   */\n      add\n        /* \"#utility.yul\":9079:9132   */\n      tag_89\n      jump\t// in\n    tag_226:\n        /* \"#utility.yul\":9069:9132   */\n      swap2\n      pop\n        /* \"#utility.yul\":9023:9142   */\n      pop\n        /* \"#utility.yul\":8034:9149   */\n      swap3\n      swap6\n      pop\n      swap3\n      swap6\n      swap1\n      swap4\n      pop\n      jump\t// out\n        /* \"#utility.yul\":9155:9331   */\n    tag_104:\n        /* \"#utility.yul\":9295:9323   */\n      0x526f6c6c204e756d62657220646f6573206e6f74206578697374000000000000\n        /* \"#utility.yul\":9291:9292   */\n      0x00\n        /* \"#utility.yul\":9283:9289   */\n      dup3\n        /* \"#utility.yul\":9279:9293   */\n      add\n        /* \"#utility.yul\":9272:9324   */\n      mstore\n        /* \"#utility.yul\":9155:9331   */\n      pop\n      jump\t// out\n        /* \"#utility.yul\":9337:9703   */\n    tag_105:\n        /* \"#utility.yul\":9479:9482   */\n      0x00\n        /* \"#utility.yul\":9500:9567   */\n      tag_229\n        /* \"#utility.yul\":9564:9566   */\n      0x1a\n        /* \"#utility.yul\":9559:9562   */\n      dup4\n        /* \"#utility.yul\":9500:9567   */\n      tag_91\n      jump\t// in\n    tag_229:\n        /* \"#utility.yul\":9493:9567   */\n      swap2\n      pop\n        /* \"#utility.yul\":9576:9669   */\n      tag_230\n        /* \"#utility.yul\":9665:9668   */\n      dup3\n        /* \"#utility.yul\":9576:9669   */\n      tag_104\n      jump\t// in\n    tag_230:\n        /* \"#utility.yul\":9694:9696   */\n      0x20\n        /* \"#utility.yul\":9689:9692   */\n      dup3\n        /* \"#utility.yul\":9685:9697   */\n      add\n        /* \"#utility.yul\":9678:9697   */\n      swap1\n      pop\n        /* \"#utility.yul\":9337:9703   */\n      swap2\n      swap1\n      pop\n      jump\t// out\n        /* \"#utility.yul\":9709:10128   */\n    tag_33:\n        /* \"#utility.yul\":9875:9879   */\n      0x00\n        /* \"#utility.yul\":9913:9915   */\n      0x20\n        /* \"#utility.yul\":9902:9911   */\n      dup3\n        /* \"#utility.yul\":9898:9916   */\n      add\n        /* \"#utility.yul\":9890:9916   */\n      swap1\n      pop\n        /* \"#utility.yul\":9962:9971   */\n      dup2\n        /* \"#utility.yul\":9956:9960   */\n      dup2\n        /* \"#utility.yul\":9952:9972   */\n      sub\n        /* \"#utility.yul\":9948:9949   */\n      0x00\n        /* \"#utility.yul\":9937:9946   */\n      dup4\n        /* \"#utility.yul\":9933:9950   */\n      add\n        /* \"#utility.yul\":9926:9973   */\n      mstore\n        /* \"#utility.yul\":9990:10121   */\n      tag_232\n        /* \"#utility.yul\":10116:10120   */\n      dup2\n        /* \"#utility.yul\":9990:10121   */\n      tag_105\n      jump\t// in\n    tag_232:\n        /* \"#utility.yul\":9982:10121   */\n      swap1\n      pop\n        /* \"#utility.yul\":9709:10128   */\n      swap2\n      swap1\n      pop\n      jump\t// out\n        /* \"#utility.yul\":10134:10314   */\n    tag_106:\n        /* \"#utility.yul\":10182:10259   */\n      0x4e487b7100000000000000000000000000000000000000000000000000000000\n        /* \"#utility.yul\":10179:10180   */\n      0x00\n        /* \"#utility.yul\":10172:10260   */\n      mstore\n        /* \"#utility.yul\":10279:10283   */\n      0x22\n        /* \"#utility.yul\":10276:10277   */\n      0x04\n        /* \"#utility.yul\":10269:10284   */\n      mstore\n        /* \"#utility.yul\":10303:10307   */\n      0x24\n        /* \"#utility.yul\":10300:10301   */\n      0x00\n        /* \"#utility.yul\":10293:10308   */\n      revert\n        /* \"#utility.yul\":10320:10640   */\n    tag_43:\n        /* \"#utility.yul\":10364:10370   */\n      0x00\n        /* \"#utility.yul\":10401:10402   */\n      0x02\n        /* \"#utility.yul\":10395:10399   */\n      dup3\n        /* \"#utility.yul\":10391:10403   */\n      div\n        /* \"#utility.yul\":10381:10403   */\n      swap1\n      pop\n        /* \"#utility.yul\":10448:10449   */\n      0x01\n        /* \"#utility.yul\":10442:10446   */\n      dup3\n        /* \"#utility.yul\":10438:10450   */\n      and\n        /* \"#utility.yul\":10469:10487   */\n      dup1\n        /* \"#utility.yul\":10459:10540   */\n      tag_235\n      jumpi\n        /* \"#utility.yul\":10525:10529   */\n      0x7f\n        /* \"#utility.yul\":10517:10523   */\n      dup3\n        /* \"#utility.yul\":10513:10530   */\n      and\n        /* \"#utility.yul\":10503:10530   */\n      swap2\n      pop\n        /* \"#utility.yul\":10459:10540   */\n    tag_235:\n        /* \"#utility.yul\":10587:10589   */\n      0x20\n        /* \"#utility.yul\":10579:10585   */\n      dup3\n        /* \"#utility.yul\":10576:10590   */\n      lt\n        /* \"#utility.yul\":10556:10574   */\n      dup2\n        /* \"#utility.yul\":10553:10591   */\n      sub\n        /* \"#utility.yul\":10550:10634   */\n      tag_236\n      jumpi\n        /* \"#utility.yul\":10606:10624   */\n      tag_237\n      tag_106\n      jump\t// in\n    tag_237:\n        /* \"#utility.yul\":10550:10634   */\n    tag_236:\n        /* \"#utility.yul\":10371:10640   */\n      pop\n        /* \"#utility.yul\":10320:10640   */\n      swap2\n      swap1\n      pop\n      jump\t// out\n        /* \"#utility.yul\":10646:10787   */\n    tag_107:\n        /* \"#utility.yul\":10695:10699   */\n      0x00\n        /* \"#utility.yul\":10718:10721   */\n      dup2\n        /* \"#utility.yul\":10710:10721   */\n      swap1\n      pop\n        /* \"#utility.yul\":10741:10744   */\n      dup2\n        /* \"#utility.yul\":10738:10739   */\n      0x00\n        /* \"#utility.yul\":10731:10745   */\n      mstore\n        /* \"#utility.yul\":10775:10779   */\n      0x20\n        /* \"#utility.yul\":10772:10773   */\n      0x00\n        /* \"#utility.yul\":10762:10780   */\n      keccak256\n        /* \"#utility.yul\":10754:10780   */\n      swap1\n      pop\n        /* \"#utility.yul\":10646:10787   */\n      swap2\n      swap1\n      pop\n      jump\t// out\n        /* \"#utility.yul\":10793:10886   */\n    tag_108:\n        /* \"#utility.yul\":10830:10836   */\n      0x00\n        /* \"#utility.yul\":10877:10879   */\n      0x20\n        /* \"#utility.yul\":10872:10874   */\n      0x1f\n        /* \"#utility.yul\":10865:10870   */\n      dup4\n        /* \"#utility.yul\":10861:10875   */\n      add\n        /* \"#utility.yul\":10857:10880   */\n      div\n        /* \"#utility.yul\":10847:10880   */\n      swap1\n      pop\n        /* \"#utility.yul\":10793:10886   */\n      swap2\n      swap1\n      pop\n      jump\t// out\n        /* \"#utility.yul\":10892:10999   */\n    tag_109:\n        /* \"#utility.yul\":10936:10944   */\n      0x00\n        /* \"#utility.yul\":10986:10991   */\n      dup3\n        /* \"#utility.yul\":10980:10984   */\n      dup3\n        /* \"#utility.yul\":10976:10992   */\n      shl\n        /* \"#utility.yul\":10955:10992   */\n      swap1\n      pop\n        /* \"#utility.yul\":10892:10999   */\n      swap3\n      swap2\n      pop\n      pop\n      jump\t// out\n        /* \"#utility.yul\":11005:11398   */\n    tag_110:\n        /* \"#utility.yul\":11074:11080   */\n      0x00\n        /* \"#utility.yul\":11124:11125   */\n      0x08\n        /* \"#utility.yul\":11112:11122   */\n      dup4\n        /* \"#utility.yul\":11108:11126   */\n      mul\n        /* \"#utility.yul\":11147:11244   */\n      tag_242\n        /* \"#utility.yul\":11177:11243   */\n      0xffffffffffffffffffffffffffffffffffffffffffffffffffffffffffffffff\n        /* \"#utility.yul\":11166:11175   */\n      dup3\n        /* \"#utility.yul\":11147:11244   */\n      tag_109\n      jump\t// in\n    tag_242:\n        /* \"#utility.yul\":11265:11304   */\n      tag_243\n        /* \"#utility.yul\":11295:11303   */\n      dup7\n        /* \"#utility.yul\":11284:11293   */\n      dup4\n        /* \"#utility.yul\":11265:11304   */\n      tag_109\n      jump\t// in\n    tag_243:\n        /* \"#utility.yul\":11253:11304   */\n      swap6\n      pop\n        /* \"#utility.yul\":11337:11341   */\n      dup1\n        /* \"#utility.yul\":11333:11342   */\n      not\n        /* \"#utility.yul\":11326:11331   */\n      dup5\n        /* \"#utility.yul\":11322:11343   */\n      and\n        /* \"#utility.yul\":11313:11343   */\n      swap4\n      pop\n        /* \"#utility.yul\":11386:11390   */\n      dup1\n        /* \"#utility.yul\":11376:11384   */\n      dup7\n        /* \"#utility.yul\":11372:11391   */\n      and\n        /* \"#utility.yul\":11365:11370   */\n      dup5\n        /* \"#utility.yul\":11362:11392   */\n      or\n        /* \"#utility.yul\":11352:11392   */\n      swap3\n      pop\n        /* \"#utility.yul\":11081:11398   */\n      pop\n      pop\n        /* \"#utility.yul\":11005:11398   */\n      swap4\n      swap3\n      pop\n      pop\n      pop\n      jump\t// out\n        /* \"#utility.yul\":11404:11464   */\n    tag_111:\n        /* \"#utility.yul\":11432:11435   */\n      0x00\n        /* \"#utility.yul\":11453:11458   */\n      dup2\n        /* \"#utility.yul\":11446:11458   */\n      swap1\n      pop\n        /* \"#utility.yul\":11404:11464   */\n      swap2\n      swap1\n      pop\n      jump\t// out\n        /* \"#utility.yul\":11470:11612   */\n    tag_112:\n        /* \"#utility.yul\":11520:11529   */\n      0x00\n        /* \"#utility.yul\":11553:11606   */\n      tag_246\n        /* \"#utility.yul\":11571:11605   */\n      tag_247\n        /* \"#utility.yul\":11580:11604   */\n      tag_248\n        /* \"#utility.yul\":11598:11603   */\n      dup5\n        /* \"#utility.yul\":11580:11604   */\n      tag_87\n      jump\t// in\n    tag_248:\n        /* \"#utility.yul\":11571:11605   */\n      tag_111\n      jump\t// in\n    tag_247:\n        /* \"#utility.yul\":11553:11606   */\n      tag_87\n      jump\t// in\n    tag_246:\n        /* \"#utility.yul\":11540:11606   */\n      swap1\n      pop\n        /* \"#utility.yul\":11470:11612   */\n      swap2\n      swap1\n      pop\n      jump\t// out\n        /* \"#utility.yul\":11618:11693   */\n    tag_113:\n        /* \"#utility.yul\":11661:11664   */\n      0x00\n        /* \"#utility.yul\":11682:11687   */\n      dup2\n        /* \"#utility.yul\":11675:11687   */\n      swap1\n      pop\n        /* \"#utility.yul\":11618:11693   */\n      swap2\n      swap1\n      pop\n      jump\t// out\n        /* \"#utility.yul\":11699:11968   */\n    tag_114:\n        /* \"#utility.yul\":11809:11848   */\n      tag_251\n        /* \"#utility.yul\":11840:11847   */\n      dup4\n        /* \"#utility.yul\":11809:11848   */\n      tag_112\n      jump\t// in\n    tag_251:\n        /* \"#utility.yul\":11870:11961   */\n      tag_252\n        /* \"#utility.yul\":11919:11960   */\n      tag_253\n        /* \"#utility.yul\":11943:11959   */\n      dup3\n        /* \"#utility.yul\":11919:11960   */\n      tag_113\n      jump\t// in\n    tag_253:\n        /* \"#utility.yul\":11911:11917   */\n      dup5\n        /* \"#utility.yul\":11904:11908   */\n      dup5\n        /* \"#utility.yul\":11898:11909   */\n      sload\n        /* \"#utility.yul\":11870:11961   */\n      tag_110\n      jump\t// in\n    tag_252:\n        /* \"#utility.yul\":11864:11868   */\n      dup3\n        /* \"#utility.yul\":11857:11962   */\n      sstore\n        /* \"#utility.yul\":11775:11968   */\n      pop\n        /* \"#utility.yul\":11699:11968   */\n      pop\n      pop\n      pop\n      jump\t// out\n        /* \"#utility.yul\":11974:12047   */\n    tag_115:\n        /* \"#utility.yul\":12019:12022   */\n      0x00\n        /* \"#utility.yul\":12040:12041   */\n      0x00\n        /* \"#utility.yul\":12033:12041   */\n      swap1\n      pop\n        /* \"#utility.yul\":11974:12047   */\n      swap1\n      jump\t// out\n        /* \"#utility.yul\":12053:12242   */\n    tag_116:\n        /* \"#utility.yul\":12130:12162   */\n      tag_256\n      tag_115\n      jump\t// in\n    tag_256:\n        /* \"#utility.yul\":12171:12236   */\n      tag_257\n        /* \"#utility.yul\":12229:12235   */\n      dup2\n        /* \"#utility.yul\":12221:12227   */\n      dup5\n        /* \"#utility.yul\":12215:12219   */\n      dup5\n        /* \"#utility.yul\":12171:12236   */\n      tag_114\n      jump\t// in\n    tag_257:\n        /* \"#utility.yul\":12106:12242   */\n      pop\n        /* \"#utility.yul\":12053:12242   */\n      pop\n      pop\n      jump\t// out\n        /* \"#utility.yul\":12248:12434   */\n    tag_117:\n        /* \"#utility.yul\":12308:12428   */\n    tag_259:\n        /* \"#utility.yul\":12325:12328   */\n      dup2\n        /* \"#utility.yul\":12318:12323   */\n      dup2\n        /* \"#utility.yul\":12315:12329   */\n      lt\n        /* \"#utility.yul\":12308:12428   */\n      iszero\n      tag_261\n      jumpi\n        /* \"#utility.yul\":12379:12418   */\n      tag_262\n        /* \"#utility.yul\":12416:12417   */\n      0x00\n        /* \"#utility.yul\":12409:12414   */\n      dup3\n        /* \"#utility.yul\":12379:12418   */\n      tag_116\n      jump\t// in\n    tag_262:\n        /* \"#utility.yul\":12352:12353   */\n      0x01\n        /* \"#utility.yul\":12345:12350   */\n      dup2\n        /* \"#utility.yul\":12341:12354   */\n      add\n        /* \"#utility.yul\":12332:12354   */\n      swap1\n      pop\n        /* \"#utility.yul\":12308:12428   */\n      jump(tag_259)\n    tag_261:\n        /* \"#utility.yul\":12248:12434   */\n      pop\n      pop\n      jump\t// out\n        /* \"#utility.yul\":12440:12983   */\n    tag_118:\n        /* \"#utility.yul\":12541:12543   */\n      0x1f\n        /* \"#utility.yul\":12536:12539   */\n      dup3\n        /* \"#utility.yul\":12533:12544   */\n      gt\n        /* \"#utility.yul\":12530:12976   */\n      iszero\n      tag_264\n      jumpi\n        /* \"#utility.yul\":12575:12613   */\n      tag_265\n        /* \"#utility.yul\":12607:12612   */\n      dup2\n        /* \"#utility.yul\":12575:12613   */\n      tag_107\n      jump\t// in\n    tag_265:\n        /* \"#utility.yul\":12659:12688   */\n      tag_266\n        /* \"#utility.yul\":12677:12687   */\n      dup5\n        /* \"#utility.yul\":12659:12688   */\n      tag_108\n      jump\t// in\n    tag_266:\n        /* \"#utility.yul\":12649:12657   */\n      dup2\n        /* \"#utility.yul\":12645:12689   */\n      add\n        /* \"#utility.yul\":12842:12844   */\n      0x20\n        /* \"#utility.yul\":12830:12840   */\n      dup6\n        /* \"#utility.yul\":12827:12845   */\n      lt\n        /* \"#utility.yul\":12824:12873   */\n      iszero\n      tag_267\n      jumpi\n        /* \"#utility.yul\":12863:12871   */\n      dup2\n        /* \"#utility.yul\":12848:12871   */\n      swap1\n      pop\n        /* \"#utility.yul\":12824:12873   */\n    tag_267:\n        /* \"#utility.yul\":12886:12966   */\n      tag_268\n        /* \"#utility.yul\":12942:12964   */\n      tag_269\n        /* \"#utility.yul\":12960:12963   */\n      dup6\n        /* \"#utility.yul\":12942:12964   */\n      tag_108\n      jump\t// in\n    tag_269:\n        /* \"#utility.yul\":12932:12940   */\n      dup4\n        /* \"#utility.yul\":12928:12965   */\n      add\n        /* \"#utility.yul\":12915:12926   */\n      dup3\n        /* \"#utility.yul\":12886:12966   */\n      tag_117\n      jump\t// in\n    tag_268:\n        /* \"#utility.yul\":12545:12976   */\n      pop\n      pop\n        /* \"#utility.yul\":12530:12976   */\n    tag_264:\n        /* \"#utility.yul\":12440:12983   */\n      pop\n      pop\n      pop\n      jump\t// out\n        /* \"#utility.yul\":12989:13106   */\n    tag_119:\n        /* \"#utility.yul\":13043:13051   */\n      0x00\n        /* \"#utility.yul\":13093:13098   */\n      dup3\n        /* \"#utility.yul\":13087:13091   */\n      dup3\n        /* \"#utility.yul\":13083:13099   */\n      shr\n        /* \"#utility.yul\":13062:13099   */\n      swap1\n      pop\n        /* \"#utility.yul\":12989:13106   */\n      swap3\n      swap2\n      pop\n      pop\n      jump\t// out\n        /* \"#utility.yul\":13112:13281   */\n    tag_120:\n        /* \"#utility.yul\":13156:13162   */\n      0x00\n        /* \"#utility.yul\":13189:13240   */\n      tag_272\n        /* \"#utility.yul\":13237:13238   */\n      0x00\n        /* \"#utility.yul\":13233:13239   */\n      not\n        /* \"#utility.yul\":13225:13230   */\n      dup5\n        /* \"#utility.yul\":13222:13223   */\n      0x08\n        /* \"#utility.yul\":13218:13231   */\n      mul\n        /* \"#utility.yul\":13189:13240   */\n      tag_119\n      jump\t// in\n    tag_272:\n        /* \"#utility.yul\":13185:13241   */\n      not\n        /* \"#utility.yul\":13270:13274   */\n      dup1\n        /* \"#utility.yul\":13264:13268   */\n      dup4\n        /* \"#utility.yul\":13260:13275   */\n      and\n        /* \"#utility.yul\":13250:13275   */\n      swap2\n      pop\n        /* \"#utility.yul\":13163:13281   */\n      pop\n        /* \"#utility.yul\":13112:13281   */\n      swap3\n      swap2\n      pop\n      pop\n      jump\t// out\n        /* \"#utility.yul\":13286:13581   */\n    tag_121:\n        /* \"#utility.yul\":13362:13366   */\n      0x00\n        /* \"#utility.yul\":13508:13537   */\n      tag_274\n        /* \"#utility.yul\":13533:13536   */\n      dup4\n        /* \"#utility.yul\":13527:13531   */\n      dup4\n        /* \"#utility.yul\":13508:13537   */\n      tag_120\n      jump\t// in\n    tag_274:\n        /* \"#utility.yul\":13500:13537   */\n      swap2\n      pop\n        /* \"#utility.yul\":13570:13573   */\n      dup3\n        /* \"#utility.yul\":13567:13568   */\n      0x02\n        /* \"#utility.yul\":13563:13574   */\n      mul\n        /* \"#utility.yul\":13557:13561   */\n      dup3\n        /* \"#utility.yul\":13554:13575   */\n      or\n        /* \"#utility.yul\":13546:13575   */\n      swap1\n      pop\n        /* \"#utility.yul\":13286:13581   */\n      swap3\n      swap2\n      pop\n      pop\n      jump\t// out\n        /* \"#utility.yul\":13586:14981   */\n    tag_36:\n        /* \"#utility.yul\":13703:13740   */\n      tag_276\n        /* \"#utility.yul\":13736:13739   */\n      dup3\n        /* \"#utility.yul\":13703:13740   */\n      tag_90\n      jump\t// in\n    tag_276:\n        /* \"#utility.yul\":13805:13823   */\n      0xffffffffffffffff\n        /* \"#utility.yul\":13797:13803   */\n      dup2\n        /* \"#utility.yul\":13794:13824   */\n      gt\n        /* \"#utility.yul\":13791:13847   */\n      iszero\n      tag_277\n      jumpi\n        /* \"#utility.yul\":13827:13845   */\n      tag_278\n      tag_80\n      jump\t// in\n    tag_278:\n        /* \"#utility.yul\":13791:13847   */\n    tag_277:\n        /* \"#utility.yul\":13871:13909   */\n      tag_279\n        /* \"#utility.yul\":13903:13907   */\n      dup3\n        /* \"#utility.yul\":13897:13908   */\n      sload\n        /* \"#utility.yul\":13871:13909   */\n      tag_43\n      jump\t// in\n    tag_279:\n        /* \"#utility.yul\":13956:14023   */\n      tag_280\n        /* \"#utility.yul\":14016:14022   */\n      dup3\n        /* \"#utility.yul\":14008:14014   */\n      dup3\n        /* \"#utility.yul\":14002:14006   */\n      dup6\n        /* \"#utility.yul\":13956:14023   */\n      tag_118\n      jump\t// in\n    tag_280:\n        /* \"#utility.yul\":14050:14051   */\n      0x00\n        /* \"#utility.yul\":14074:14078   */\n      0x20\n        /* \"#utility.yul\":14061:14078   */\n      swap1\n      pop\n        /* \"#utility.yul\":14106:14108   */\n      0x1f\n        /* \"#utility.yul\":14098:14104   */\n      dup4\n        /* \"#utility.yul\":14095:14109   */\n      gt\n        /* \"#utility.yul\":14123:14124   */\n      0x01\n        /* \"#utility.yul\":14118:14736   */\n      dup2\n      eq\n      tag_282\n      jumpi\n        /* \"#utility.yul\":14780:14781   */\n      0x00\n        /* \"#utility.yul\":14797:14803   */\n      dup5\n        /* \"#utility.yul\":14794:14871   */\n      iszero\n      tag_283\n      jumpi\n        /* \"#utility.yul\":14846:14855   */\n      dup3\n        /* \"#utility.yul\":14841:14844   */\n      dup8\n        /* \"#utility.yul\":14837:14856   */\n      add\n        /* \"#utility.yul\":14831:14857   */\n      mload\n        /* \"#utility.yul\":14822:14857   */\n      swap1\n      pop\n        /* \"#utility.yul\":14794:14871   */\n    tag_283:\n        /* \"#utility.yul\":14897:14964   */\n      tag_284\n        /* \"#utility.yul\":14957:14963   */\n      dup6\n        /* \"#utility.yul\":14950:14955   */\n      dup3\n        /* \"#utility.yul\":14897:14964   */\n      tag_121\n      jump\t// in\n    tag_284:\n        /* \"#utility.yul\":14891:14895   */\n      dup7\n        /* \"#utility.yul\":14884:14965   */\n      sstore\n        /* \"#utility.yul\":14753:14975   */\n      pop\n        /* \"#utility.yul\":14088:14975   */\n      jump(tag_281)\n        /* \"#utility.yul\":14118:14736   */\n    tag_282:\n        /* \"#utility.yul\":14170:14174   */\n      0x1f\n        /* \"#utility.yul\":14166:14175   */\n      not\n        /* \"#utility.yul\":14158:14164   */\n      dup5\n        /* \"#utility.yul\":14154:14176   */\n      and\n        /* \"#utility.yul\":14204:14241   */\n      tag_285\n        /* \"#utility.yul\":14236:14240   */\n      dup7\n        /* \"#utility.yul\":14204:14241   */\n      tag_107\n      jump\t// in\n    tag_285:\n        /* \"#utility.yul\":14263:14264   */\n      0x00\n        /* \"#utility.yul\":14277:14485   */\n    tag_286:\n        /* \"#utility.yul\":14291:14298   */\n      dup3\n        /* \"#utility.yul\":14288:14289   */\n      dup2\n        /* \"#utility.yul\":14285:14299   */\n      lt\n        /* \"#utility.yul\":14277:14485   */\n      iszero\n      tag_288\n      jumpi\n        /* \"#utility.yul\":14370:14379   */\n      dup5\n        /* \"#utility.yul\":14365:14368   */\n      dup10\n        /* \"#utility.yul\":14361:14380   */\n      add\n        /* \"#utility.yul\":14355:14381   */\n      mload\n        /* \"#utility.yul\":14347:14353   */\n      dup3\n        /* \"#utility.yul\":14340:14382   */\n      sstore\n        /* \"#utility.yul\":14421:14422   */\n      0x01\n        /* \"#utility.yul\":14413:14419   */\n      dup3\n        /* \"#utility.yul\":14409:14423   */\n      add\n        /* \"#utility.yul\":14399:14423   */\n      swap2\n      pop\n        /* \"#utility.yul\":14468:14470   */\n      0x20\n        /* \"#utility.yul\":14457:14466   */\n      dup6\n        /* \"#utility.yul\":14453:14471   */\n      add\n        /* \"#utility.yul\":14440:14471   */\n      swap5\n      pop\n        /* \"#utility.yul\":14314:14318   */\n      0x20\n        /* \"#utility.yul\":14311:14312   */\n      dup2\n        /* \"#utility.yul\":14307:14319   */\n      add\n        /* \"#utility.yul\":14302:14319   */\n      swap1\n      pop\n        /* \"#utility.yul\":14277:14485   */\n      jump(tag_286)\n    tag_288:\n        /* \"#utility.yul\":14513:14519   */\n      dup7\n        /* \"#utility.yul\":14504:14511   */\n      dup4\n        /* \"#utility.yul\":14501:14520   */\n      lt\n        /* \"#utility.yul\":14498:14677   */\n      iszero\n      tag_289\n      jumpi\n        /* \"#utility.yul\":14571:14580   */\n      dup5\n        /* \"#utility.yul\":14566:14569   */\n      dup10\n        /* \"#utility.yul\":14562:14581   */\n      add\n        /* \"#utility.yul\":14556:14582   */\n      mload\n        /* \"#utility.yul\":14614:14662   */\n      tag_290\n        /* \"#utility.yul\":14656:14660   */\n      0x1f\n        /* \"#utility.yul\":14648:14654   */\n      dup10\n        /* \"#utility.yul\":14644:14661   */\n      and\n        /* \"#utility.yul\":14633:14642   */\n      dup3\n        /* \"#utility.yul\":14614:14662   */\n      tag_120\n      jump\t// in\n    tag_290:\n        /* \"#utility.yul\":14606:14612   */\n      dup4\n        /* \"#utility.yul\":14599:14663   */\n      sstore\n        /* \"#utility.yul\":14521:14677   */\n      pop\n        /* \"#utility.yul\":14498:14677   */\n    tag_289:\n        /* \"#utility.yul\":14723:14724   */\n      0x01\n        /* \"#utility.yul\":14719:14720   */\n      0x02\n        /* \"#utility.yul\":14711:14717   */\n      dup9\n        /* \"#utility.yul\":14707:14721   */\n      mul\n        /* \"#utility.yul\":14703:14725   */\n      add\n        /* \"#utility.yul\":14697:14701   */\n      dup9\n        /* \"#utility.yul\":14690:14726   */\n      sstore\n        /* \"#utility.yul\":14125:14736   */\n      pop\n      pop\n      pop\n        /* \"#utility.yul\":14088:14975   */\n    tag_281:\n      pop\n        /* \"#utility.yul\":13678:14981   */\n      pop\n      pop\n      pop\n        /* \"#utility.yul\":13586:14981   */\n      pop\n      pop\n      jump\t// out\n        /* \"#utility.yul\":14987:15168   */\n    tag_122:\n        /* \"#utility.yul\":15127:15160   */\n      0x596f752063616e6e6f742061636365737320746869732066756e6374696f6e00\n        /* \"#utility.yul\":15123:15124   */\n      0x00\n        /* \"#utility.yul\":15115:15121   */\n      dup3\n        /* \"#utility.yul\":15111:15125   */\n      add\n        /* \"#utility.yul\":15104:15161   */\n      mstore\n        /* \"#utility.yul\":14987:15168   */\n      pop\n      jump\t// out\n        /* \"#utility.yul\":15174:15540   */\n    tag_123:\n        /* \"#utility.yul\":15316:15319   */\n      0x00\n        /* \"#utility.yul\":15337:15404   */\n      tag_293\n        /* \"#utility.yul\":15401:15403   */\n      0x1f\n        /* \"#utility.yul\":15396:15399   */\n      dup4\n        /* \"#utility.yul\":15337:15404   */\n      tag_91\n      jump\t// in\n    tag_293:\n        /* \"#utility.yul\":15330:15404   */\n      swap2\n      pop\n        /* \"#utility.yul\":15413:15506   */\n      tag_294\n        /* \"#utility.yul\":15502:15505   */\n      dup3\n        /* \"#utility.yul\":15413:15506   */\n      tag_122\n      jump\t// in\n    tag_294:\n        /* \"#utility.yul\":15531:15533   */\n      0x20\n        /* \"#utility.yul\":15526:15529   */\n      dup3\n        /* \"#utility.yul\":15522:15534   */\n      add\n        /* \"#utility.yul\":15515:15534   */\n      swap1\n      pop\n        /* \"#utility.yul\":15174:15540   */\n      swap2\n      swap1\n      pop\n      jump\t// out\n        /* \"#utility.yul\":15546:15965   */\n    tag_40:\n        /* \"#utility.yul\":15712:15716   */\n      0x00\n        /* \"#utility.yul\":15750:15752   */\n      0x20\n        /* \"#utility.yul\":15739:15748   */\n      dup3\n        /* \"#utility.yul\":15735:15753   */\n      add\n        /* \"#utility.yul\":15727:15753   */\n      swap1\n      pop\n        /* \"#utility.yul\":15799:15808   */\n      dup2\n        /* \"#utility.yul\":15793:15797   */\n      dup2\n        /* \"#utility.yul\":15789:15809   */\n      sub\n        /* \"#utility.yul\":15785:15786   */\n      0x00\n        /* \"#utility.yul\":15774:15783   */\n      dup4\n        /* \"#utility.yul\":15770:15787   */\n      add\n        /* \"#utility.yul\":15763:15810   */\n      mstore\n        /* \"#utility.yul\":15827:15958   */\n      tag_296\n        /* \"#utility.yul\":15953:15957   */\n      dup2\n        /* \"#utility.yul\":15827:15958   */\n      tag_123\n      jump\t// in\n    tag_296:\n        /* \"#utility.yul\":15819:15958   */\n      swap1\n      pop\n        /* \"#utility.yul\":15546:15965   */\n      swap2\n      swap1\n      pop\n      jump\t// out\n        /* \"#utility.yul\":15971:16150   */\n    tag_124:\n        /* \"#utility.yul\":16111:16142   */\n      0x526f6c6c206e756d62657220697320616c726561647920657869737473000000\n        /* \"#utility.yul\":16107:16108   */\n      0x00\n        /* \"#utility.yul\":16099:16105   */\n      dup3\n        /* \"#utility.yul\":16095:16109   */\n      add\n        /* \"#utility.yul\":16088:16143   */\n      mstore\n        /* \"#utility.yul\":15971:16150   */\n      pop\n      jump\t// out\n        /* \"#utility.yul\":16156:16522   */\n    tag_125:\n        /* \"#utility.yul\":16298:16301   */\n      0x00\n        /* \"#utility.yul\":16319:16386   */\n      tag_299\n        /* \"#utility.yul\":16383:16385   */\n      0x1d\n        /* \"#utility.yul\":16378:16381   */\n      dup4\n        /* \"#utility.yul\":16319:16386   */\n      tag_91\n      jump\t// in\n    tag_299:\n        /* \"#utility.yul\":16312:16386   */\n      swap2\n      pop\n        /* \"#utility.yul\":16395:16488   */\n      tag_300\n        /* \"#utility.yul\":16484:16487   */\n      dup3\n        /* \"#utility.yul\":16395:16488   */\n      tag_124\n      jump\t// in\n    tag_300:\n        /* \"#utility.yul\":16513:16515   */\n      0x20\n        /* \"#utility.yul\":16508:16511   */\n      dup3\n        /* \"#utility.yul\":16504:16516   */\n      add\n        /* \"#utility.yul\":16497:16516   */\n      swap1\n      pop\n        /* \"#utility.yul\":16156:16522   */\n      swap2\n      swap1\n      pop\n      jump\t// out\n        /* \"#utility.yul\":16528:16947   */\n    tag_68:\n        /* \"#utility.yul\":16694:16698   */\n      0x00\n        /* \"#utility.yul\":16732:16734   */\n      0x20\n        /* \"#utility.yul\":16721:16730   */\n      dup3\n        /* \"#utility.yul\":16717:16735   */\n      add\n        /* \"#utility.yul\":16709:16735   */\n      swap1\n      pop\n        /* \"#utility.yul\":16781:16790   */\n      dup2\n        /* \"#utility.yul\":16775:16779   */\n      dup2\n        /* \"#utility.yul\":16771:16791   */\n      sub\n        /* \"#utility.yul\":16767:16768   */\n      0x00\n        /* \"#utility.yul\":16756:16765   */\n      dup4\n        /* \"#utility.yul\":16752:16769   */\n      add\n        /* \"#utility.yul\":16745:16792   */\n      mstore\n        /* \"#utility.yul\":16809:16940   */\n      tag_302\n        /* \"#utility.yul\":16935:16939   */\n      dup2\n        /* \"#utility.yul\":16809:16940   */\n      tag_125\n      jump\t// in\n    tag_302:\n        /* \"#utility.yul\":16801:16940   */\n      swap1\n      pop\n        /* \"#utility.yul\":16528:16947   */\n      swap2\n      swap1\n      pop\n      jump\t// out\n\n    auxdata: 0xa2646970667358221220b0532534e2248839504cab0c276ad51cb3333ff5cc4bda4ac380e215cdf7aac864736f6c634300081c0033\n}\n",
				"bytecode": {
					"linkReferences": {},
					"object": "6080604052348015600e575f5ffd5b50335f5f6101000a81548173ffffffffffffffffffffffffffffffffffffffff021916908373ffffffffffffffffffffffffffffffffffffffff160217905550610f8e8061005b5f395ff3fe608060405234801561000f575f5ffd5b5060043610610055575f3560e01c806311f11b9c14610059578063642f9163146100755780637b8c341d146100a9578063c75d76f9146100c7578063d54fe4fd146100e3575b5f5ffd5b610073600480360381019061006e9190610823565b6100ff565b005b61008f600480360381019061008a919061087d565b61018b565b6040516100a095949392919061098a565b60405180910390f35b6100b161036b565b6040516100be9190610a21565b60405180910390f35b6100e160048036038101906100dc9190610a5d565b61038f565b005b6100fd60048036038101906100f89190610ac1565b6104d7565b005b8060015f8281526020019081526020015f206005015f9054906101000a900460ff16610160576040517f08c379a000000000000000000000000000000000000000000000000000000000815260040161015790610b9e565b60405180910390fd5b5f60015f8481526020019081526020015f20905083815f0190816101849190610db9565b5050505050565b60605f5f5f5f5f5f9054906101000a900473ffffffffffffffffffffffffffffffffffffffff1673ffffffffffffffffffffffffffffffffffffffff163373ffffffffffffffffffffffffffffffffffffffff161461021f576040517f08c379a000000000000000000000000000000000000000000000000000000000815260040161021690610ed2565b60405180910390fd5b5f60015f8881526020019081526020015f206040518060c00160405290815f8201805461024b90610be9565b80601f016020809104026020016040519081016040528092919081815260200182805461027790610be9565b80156102c25780601f10610299576101008083540402835291602001916102c2565b820191905f5260205f20905b8154815290600101906020018083116102a557829003601f168201915b5050505050815260200160018201548152602001600282015f9054906101000a900460ff1660028111156102f9576102f8610917565b5b600281111561030b5761030a610917565b5b81526020016003820154815260200160048201548152602001600582015f9054906101000a900460ff1615151515815250509050805f01518160200151826040015183606001518460800151955095509550955095505091939590929450565b5f5f9054906101000a900473ffffffffffffffffffffffffffffffffffffffff1681565b5f5f9054906101000a900473ffffffffffffffffffffffffffffffffffffffff1673ffffffffffffffffffffffffffffffffffffffff163373ffffffffffffffffffffffffffffffffffffffff161461041d576040517f08c379a000000000000000000000000000000000000000000000000000000000815260040161041490610ed2565b60405180910390fd5b8060015f8281526020019081526020015f206005015f9054906101000a900460ff1661047e576040517f08c379a000000000000000000000000000000000000000000000000000000000815260040161047590610b9e565b60405180910390fd5b5f60015f8481526020019081526020015f20905085816001018190555084816002015f6101000a81548160ff021916908360028111156104c1576104c0610917565b5b0217905550838160030181905550505050505050565b5f5f9054906101000a900473ffffffffffffffffffffffffffffffffffffffff1673ffffffffffffffffffffffffffffffffffffffff163373ffffffffffffffffffffffffffffffffffffffff1614610565576040517f08c379a000000000000000000000000000000000000000000000000000000000815260040161055c90610ed2565b60405180910390fd5b60015f8281526020019081526020015f206005015f9054906101000a900460ff16156105c6576040517f08c379a00000000000000000000000000000000000000000000000000000000081526004016105bd90610f3a565b60405180910390fd5b6040518060c001604052808681526020018581526020018460028111156105f0576105ef610917565b5b81526020018381526020018281526020016001151581525060015f8381526020019081526020015f205f820151815f01908161062c9190610db9565b50602082015181600101556040820151816002015f6101000a81548160ff0219169083600281111561066157610660610917565b5b0217905550606082015181600301556080820151816004015560a0820151816005015f6101000a81548160ff0219169083151502179055509050505050505050565b5f604051905090565b5f5ffd5b5f5ffd5b5f5ffd5b5f5ffd5b5f601f19601f8301169050919050565b7f4e487b71000000000000000000000000000000000000000000000000000000005f52604160045260245ffd5b610702826106bc565b810181811067ffffffffffffffff82111715610721576107206106cc565b5b80604052505050565b5f6107336106a3565b905061073f82826106f9565b919050565b5f67ffffffffffffffff82111561075e5761075d6106cc565b5b610767826106bc565b9050602081019050919050565b828183375f83830152505050565b5f61079461078f84610744565b61072a565b9050828152602081018484840111156107b0576107af6106b8565b5b6107bb848285610774565b509392505050565b5f82601f8301126107d7576107d66106b4565b5b81356107e7848260208601610782565b91505092915050565b5f819050919050565b610802816107f0565b811461080c575f5ffd5b50565b5f8135905061081d816107f9565b92915050565b5f5f60408385031215610839576108386106ac565b5b5f83013567ffffffffffffffff811115610856576108556106b0565b5b610862858286016107c3565b92505060206108738582860161080f565b9150509250929050565b5f60208284031215610892576108916106ac565b5b5f61089f8482850161080f565b91505092915050565b5f81519050919050565b5f82825260208201905092915050565b8281835e5f83830152505050565b5f6108da826108a8565b6108e481856108b2565b93506108f48185602086016108c2565b6108fd816106bc565b840191505092915050565b610911816107f0565b82525050565b7f4e487b71000000000000000000000000000000000000000000000000000000005f52602160045260245ffd5b6003811061095557610954610917565b5b50565b5f81905061096582610944565b919050565b5f61097482610958565b9050919050565b6109848161096a565b82525050565b5f60a0820190508181035f8301526109a281886108d0565b90506109b16020830187610908565b6109be604083018661097b565b6109cb6060830185610908565b6109d86080830184610908565b9695505050505050565b5f73ffffffffffffffffffffffffffffffffffffffff82169050919050565b5f610a0b826109e2565b9050919050565b610a1b81610a01565b82525050565b5f602082019050610a345f830184610a12565b92915050565b60038110610a46575f5ffd5b50565b5f81359050610a5781610a3a565b92915050565b5f5f5f5f60808587031215610a7557610a746106ac565b5b5f610a828782880161080f565b9450506020610a9387828801610a49565b9350506040610aa48782880161080f565b9250506060610ab58782880161080f565b91505092959194509250565b5f5f5f5f5f60a08688031215610ada57610ad96106ac565b5b5f86013567ffffffffffffffff811115610af757610af66106b0565b5b610b03888289016107c3565b9550506020610b148882890161080f565b9450506040610b2588828901610a49565b9350506060610b368882890161080f565b9250506080610b478882890161080f565b9150509295509295909350565b7f526f6c6c204e756d62657220646f6573206e6f742065786973740000000000005f82015250565b5f610b88601a836108b2565b9150610b9382610b54565b602082019050919050565b5f6020820190508181035f830152610bb581610b7c565b9050919050565b7f4e487b71000000000000000000000000000000000000000000000000000000005f52602260045260245ffd5b5f6002820490506001821680610c0057607f821691505b602082108103610c1357610c12610bbc565b5b50919050565b5f819050815f5260205f209050919050565b5f6020601f8301049050919050565b5f82821b905092915050565b5f60088302610c757fffffffffffffffffffffffffffffffffffffffffffffffffffffffffffffffff82610c3a565b610c7f8683610c3a565b95508019841693508086168417925050509392505050565b5f819050919050565b5f610cba610cb5610cb0846107f0565b610c97565b6107f0565b9050919050565b5f819050919050565b610cd383610ca0565b610ce7610cdf82610cc1565b848454610c46565b825550505050565b5f5f905090565b610cfe610cef565b610d09818484610cca565b505050565b5b81811015610d2c57610d215f82610cf6565b600181019050610d0f565b5050565b601f821115610d7157610d4281610c19565b610d4b84610c2b565b81016020851015610d5a578190505b610d6e610d6685610c2b565b830182610d0e565b50505b505050565b5f82821c905092915050565b5f610d915f1984600802610d76565b1980831691505092915050565b5f610da98383610d82565b9150826002028217905092915050565b610dc2826108a8565b67ffffffffffffffff811115610ddb57610dda6106cc565b5b610de58254610be9565b610df0828285610d30565b5f60209050601f831160018114610e21575f8415610e0f578287015190505b610e198582610d9e565b865550610e80565b601f198416610e2f86610c19565b5f5b82811015610e5657848901518255600182019150602085019450602081019050610e31565b86831015610e735784890151610e6f601f891682610d82565b8355505b6001600288020188555050505b505050505050565b7f596f752063616e6e6f742061636365737320746869732066756e6374696f6e005f82015250565b5f610ebc601f836108b2565b9150610ec782610e88565b602082019050919050565b5f6020820190508181035f830152610ee981610eb0565b9050919050565b7f526f6c6c206e756d62657220697320616c7265616479206578697374730000005f82015250565b5f610f24601d836108b2565b9150610f2f82610ef0565b602082019050919050565b5f6020820190508181035f830152610f5181610f18565b905091905056fea2646970667358221220b0532534e2248839504cab0c276ad51cb3333ff5cc4bda4ac380e215cdf7aac864736f6c634300081c0033",
					"opcodes": "PUSH1 0x80 PUSH1 0x40 MSTORE CALLVALUE DUP1 ISZERO PUSH1 0xE JUMPI PUSH0 PUSH0 REVERT JUMPDEST POP CALLER PUSH0 PUSH0 PUSH2 0x100 EXP DUP2 SLOAD DUP2 PUSH20 0xFFFFFFFFFFFFFFFFFFFFFFFFFFFFFFFFFFFFFFFF MUL NOT AND SWAP1 DUP4 PUSH20 0xFFFFFFFFFFFFFFFFFFFFFFFFFFFFFFFFFFFFFFFF AND MUL OR SWAP1 SSTORE POP PUSH2 0xF8E DUP1 PUSH2 0x5B PUSH0 CODECOPY PUSH0 RETURN INVALID PUSH1 0x80 PUSH1 0x40 MSTORE CALLVALUE DUP1 ISZERO PUSH2 0xF JUMPI PUSH0 PUSH0 REVERT JUMPDEST POP PUSH1 0x4 CALLDATASIZE LT PUSH2 0x55 JUMPI PUSH0 CALLDATALOAD PUSH1 0xE0 SHR DUP1 PUSH4 0x11F11B9C EQ PUSH2 0x59 JUMPI DUP1 PUSH4 0x642F9163 EQ PUSH2 0x75 JUMPI DUP1 PUSH4 0x7B8C341D EQ PUSH2 0xA9 JUMPI DUP1 PUSH4 0xC75D76F9 EQ PUSH2 0xC7 JUMPI DUP1 PUSH4 0xD54FE4FD EQ PUSH2 0xE3 JUMPI JUMPDEST PUSH0 PUSH0 REVERT JUMPDEST PUSH2 0x73 PUSH1 0x4 DUP1 CALLDATASIZE SUB DUP2 ADD SWAP1 PUSH2 0x6E SWAP2 SWAP1 PUSH2 0x823 JUMP JUMPDEST PUSH2 0xFF JUMP JUMPDEST STOP JUMPDEST PUSH2 0x8F PUSH1 0x4 DUP1 CALLDATASIZE SUB DUP2 ADD SWAP1 PUSH2 0x8A SWAP2 SWAP1 PUSH2 0x87D JUMP JUMPDEST PUSH2 0x18B JUMP JUMPDEST PUSH1 0x40 MLOAD PUSH2 0xA0 SWAP6 SWAP5 SWAP4 SWAP3 SWAP2 SWAP1 PUSH2 0x98A JUMP JUMPDEST PUSH1 0x40 MLOAD DUP1 SWAP2 SUB SWAP1 RETURN JUMPDEST PUSH2 0xB1 PUSH2 0x36B JUMP JUMPDEST PUSH1 0x40 MLOAD PUSH2 0xBE SWAP2 SWAP1 PUSH2 0xA21 JUMP JUMPDEST PUSH1 0x40 MLOAD DUP1 SWAP2 SUB SWAP1 RETURN JUMPDEST PUSH2 0xE1 PUSH1 0x4 DUP1 CALLDATASIZE SUB DUP2 ADD SWAP1 PUSH2 0xDC SWAP2 SWAP1 PUSH2 0xA5D JUMP JUMPDEST PUSH2 0x38F JUMP JUMPDEST STOP JUMPDEST PUSH2 0xFD PUSH1 0x4 DUP1 CALLDATASIZE SUB DUP2 ADD SWAP1 PUSH2 0xF8 SWAP2 SWAP1 PUSH2 0xAC1 JUMP JUMPDEST PUSH2 0x4D7 JUMP JUMPDEST STOP JUMPDEST DUP1 PUSH1 0x1 PUSH0 DUP3 DUP2 MSTORE PUSH1 0x20 ADD SWAP1 DUP2 MSTORE PUSH1 0x20 ADD PUSH0 KECCAK256 PUSH1 0x5 ADD PUSH0 SWAP1 SLOAD SWAP1 PUSH2 0x100 EXP SWAP1 DIV PUSH1 0xFF AND PUSH2 0x160 JUMPI PUSH1 0x40 MLOAD PUSH32 0x8C379A000000000000000000000000000000000000000000000000000000000 DUP2 MSTORE PUSH1 0x4 ADD PUSH2 0x157 SWAP1 PUSH2 0xB9E JUMP JUMPDEST PUSH1 0x40 MLOAD DUP1 SWAP2 SUB SWAP1 REVERT JUMPDEST PUSH0 PUSH1 0x1 PUSH0 DUP5 DUP2 MSTORE PUSH1 0x20 ADD SWAP1 DUP2 MSTORE PUSH1 0x20 ADD PUSH0 KECCAK256 SWAP1 POP DUP4 DUP2 PUSH0 ADD SWAP1 DUP2 PUSH2 0x184 SWAP2 SWAP1 PUSH2 0xDB9 JUMP JUMPDEST POP POP POP POP POP JUMP JUMPDEST PUSH1 0x60 PUSH0 PUSH0 PUSH0 PUSH0 PUSH0 PUSH0 SWAP1 SLOAD SWAP1 PUSH2 0x100 EXP SWAP1 DIV PUSH20 0xFFFFFFFFFFFFFFFFFFFFFFFFFFFFFFFFFFFFFFFF AND PUSH20 0xFFFFFFFFFFFFFFFFFFFFFFFFFFFFFFFFFFFFFFFF AND CALLER PUSH20 0xFFFFFFFFFFFFFFFFFFFFFFFFFFFFFFFFFFFFFFFF AND EQ PUSH2 0x21F JUMPI PUSH1 0x40 MLOAD PUSH32 0x8C379A000000000000000000000000000000000000000000000000000000000 DUP2 MSTORE PUSH1 0x4 ADD PUSH2 0x216 SWAP1 PUSH2 0xED2 JUMP JUMPDEST PUSH1 0x40 MLOAD DUP1 SWAP2 SUB SWAP1 REVERT JUMPDEST PUSH0 PUSH1 0x1 PUSH0 DUP9 DUP2 MSTORE PUSH1 0x20 ADD SWAP1 DUP2 MSTORE PUSH1 0x20 ADD PUSH0 KECCAK256 PUSH1 0x40 MLOAD DUP1 PUSH1 0xC0 ADD PUSH1 0x40 MSTORE SWAP1 DUP2 PUSH0 DUP3 ADD DUP1 SLOAD PUSH2 0x24B SWAP1 PUSH2 0xBE9 JUMP JUMPDEST DUP1 PUSH1 0x1F ADD PUSH1 0x20 DUP1 SWAP2 DIV MUL PUSH1 0x20 ADD PUSH1 0x40 MLOAD SWAP1 DUP2 ADD PUSH1 0x40 MSTORE DUP1 SWAP3 SWAP2 SWAP1 DUP2 DUP2 MSTORE PUSH1 0x20 ADD DUP3 DUP1 SLOAD PUSH2 0x277 SWAP1 PUSH2 0xBE9 JUMP JUMPDEST DUP1 ISZERO PUSH2 0x2C2 JUMPI DUP1 PUSH1 0x1F LT PUSH2 0x299 JUMPI PUSH2 0x100 DUP1 DUP4 SLOAD DIV MUL DUP4 MSTORE SWAP2 PUSH1 0x20 ADD SWAP2 PUSH2 0x2C2 JUMP JUMPDEST DUP3 ADD SWAP2 SWAP1 PUSH0 MSTORE PUSH1 0x20 PUSH0 KECCAK256 SWAP1 JUMPDEST DUP2 SLOAD DUP2 MSTORE SWAP1 PUSH1 0x1 ADD SWAP1 PUSH1 0x20 ADD DUP1 DUP4 GT PUSH2 0x2A5 JUMPI DUP3 SWAP1 SUB PUSH1 0x1F AND DUP3 ADD SWAP2 JUMPDEST POP POP POP POP POP DUP2 MSTORE PUSH1 0x20 ADD PUSH1 0x1 DUP3 ADD SLOAD DUP2 MSTORE PUSH1 0x20 ADD PUSH1 0x2 DUP3 ADD PUSH0 SWAP1 SLOAD SWAP1 PUSH2 0x100 EXP SWAP1 DIV PUSH1 0xFF AND PUSH1 0x2 DUP2 GT ISZERO PUSH2 0x2F9 JUMPI PUSH2 0x2F8 PUSH2 0x917 JUMP JUMPDEST JUMPDEST PUSH1 0x2 DUP2 GT ISZERO PUSH2 0x30B JUMPI PUSH2 0x30A PUSH2 0x917 JUMP JUMPDEST JUMPDEST DUP2 MSTORE PUSH1 0x20 ADD PUSH1 0x3 DUP3 ADD SLOAD DUP2 MSTORE PUSH1 0x20 ADD PUSH1 0x4 DUP3 ADD SLOAD DUP2 MSTORE PUSH1 0x20 ADD PUSH1 0x5 DUP3 ADD PUSH0 SWAP1 SLOAD SWAP1 PUSH2 0x100 EXP SWAP1 DIV PUSH1 0xFF AND ISZERO ISZERO ISZERO ISZERO DUP2 MSTORE POP POP SWAP1 POP DUP1 PUSH0 ADD MLOAD DUP2 PUSH1 0x20 ADD MLOAD DUP3 PUSH1 0x40 ADD MLOAD DUP4 PUSH1 0x60 ADD MLOAD DUP5 PUSH1 0x80 ADD MLOAD SWAP6 POP SWAP6 POP SWAP6 POP SWAP6 POP SWAP6 POP POP SWAP2 SWAP4 SWAP6 SWAP1 SWAP3 SWAP5 POP JUMP JUMPDEST PUSH0 PUSH0 SWAP1 SLOAD SWAP1 PUSH2 0x100 EXP SWAP1 DIV PUSH20 0xFFFFFFFFFFFFFFFFFFFFFFFFFFFFFFFFFFFFFFFF AND DUP2 JUMP JUMPDEST PUSH0 PUSH0 SWAP1 SLOAD SWAP1 PUSH2 0x100 EXP SWAP1 DIV PUSH20 0xFFFFFFFFFFFFFFFFFFFFFFFFFFFFFFFFFFFFFFFF AND PUSH20 0xFFFFFFFFFFFFFFFFFFFFFFFFFFFFFFFFFFFFFFFF AND CALLER PUSH20 0xFFFFFFFFFFFFFFFFFFFFFFFFFFFFFFFFFFFFFFFF AND EQ PUSH2 0x41D JUMPI PUSH1 0x40 MLOAD PUSH32 0x8C379A000000000000000000000000000000000000000000000000000000000 DUP2 MSTORE PUSH1 0x4 ADD PUSH2 0x414 SWAP1 PUSH2 0xED2 JUMP JUMPDEST PUSH1 0x40 MLOAD DUP1 SWAP2 SUB SWAP1 REVERT JUMPDEST DUP1 PUSH1 0x1 PUSH0 DUP3 DUP2 MSTORE PUSH1 0x20 ADD SWAP1 DUP2 MSTORE PUSH1 0x20 ADD PUSH0 KECCAK256 PUSH1 0x5 ADD PUSH0 SWAP1 SLOAD SWAP1 PUSH2 0x100 EXP SWAP1 DIV PUSH1 0xFF AND PUSH2 0x47E JUMPI PUSH1 0x40 MLOAD PUSH32 0x8C379A000000000000000000000000000000000000000000000000000000000 DUP2 MSTORE PUSH1 0x4 ADD PUSH2 0x475 SWAP1 PUSH2 0xB9E JUMP JUMPDEST PUSH1 0x40 MLOAD DUP1 SWAP2 SUB SWAP1 REVERT JUMPDEST PUSH0 PUSH1 0x1 PUSH0 DUP5 DUP2 MSTORE PUSH1 0x20 ADD SWAP1 DUP2 MSTORE PUSH1 0x20 ADD PUSH0 KECCAK256 SWAP1 POP DUP6 DUP2 PUSH1 0x1 ADD DUP2 SWAP1 SSTORE POP DUP5 DUP2 PUSH1 0x2 ADD PUSH0 PUSH2 0x100 EXP DUP2 SLOAD DUP2 PUSH1 0xFF MUL NOT AND SWAP1 DUP4 PUSH1 0x2 DUP2 GT ISZERO PUSH2 0x4C1 JUMPI PUSH2 0x4C0 PUSH2 0x917 JUMP JUMPDEST JUMPDEST MUL OR SWAP1 SSTORE POP DUP4 DUP2 PUSH1 0x3 ADD DUP2 SWAP1 SSTORE POP POP POP POP POP POP POP JUMP JUMPDEST PUSH0 PUSH0 SWAP1 SLOAD SWAP1 PUSH2 0x100 EXP SWAP1 DIV PUSH20 0xFFFFFFFFFFFFFFFFFFFFFFFFFFFFFFFFFFFFFFFF AND PUSH20 0xFFFFFFFFFFFFFFFFFFFFFFFFFFFFFFFFFFFFFFFF AND CALLER PUSH20 0xFFFFFFFFFFFFFFFFFFFFFFFFFFFFFFFFFFFFFFFF AND EQ PUSH2 0x565 JUMPI PUSH1 0x40 MLOAD PUSH32 0x8C379A000000000000000000000000000000000000000000000000000000000 DUP2 MSTORE PUSH1 0x4 ADD PUSH2 0x55C SWAP1 PUSH2 0xED2 JUMP JUMPDEST PUSH1 0x40 MLOAD DUP1 SWAP2 SUB SWAP1 REVERT JUMPDEST PUSH1 0x1 PUSH0 DUP3 DUP2 MSTORE PUSH1 0x20 ADD SWAP1 DUP2 MSTORE PUSH1 0x20 ADD PUSH0 KECCAK256 PUSH1 0x5 ADD PUSH0 SWAP1 SLOAD SWAP1 PUSH2 0x100 EXP SWAP1 DIV PUSH1 0xFF AND ISZERO PUSH2 0x5C6 JUMPI PUSH1 0x40 MLOAD PUSH32 0x8C379A000000000000000000000000000000000000000000000000000000000 DUP2 MSTORE PUSH1 0x4 ADD PUSH2 0x5BD SWAP1 PUSH2 0xF3A JUMP JUMPDEST PUSH1 0x40 MLOAD DUP1 SWAP2 SUB SWAP1 REVERT JUMPDEST PUSH1 0x40 MLOAD DUP1 PUSH1 0xC0 ADD PUSH1 0x40 MSTORE DUP1 DUP7 DUP2 MSTORE PUSH1 0x20 ADD DUP6 DUP2 MSTORE PUSH1 0x20 ADD DUP5 PUSH1 0x2 DUP2 GT ISZERO PUSH2 0x5F0 JUMPI PUSH2 0x5EF PUSH2 0x917 JUMP JUMPDEST JUMPDEST DUP2 MSTORE PUSH1 0x20 ADD DUP4 DUP2 MSTORE PUSH1 0x20 ADD DUP3 DUP2 MSTORE PUSH1 0x20 ADD PUSH1 0x1 ISZERO ISZERO DUP2 MSTORE POP PUSH1 0x1 PUSH0 DUP4 DUP2 MSTORE PUSH1 0x20 ADD SWAP1 DUP2 MSTORE PUSH1 0x20 ADD PUSH0 KECCAK256 PUSH0 DUP3 ADD MLOAD DUP2 PUSH0 ADD SWAP1 DUP2 PUSH2 0x62C SWAP2 SWAP1 PUSH2 0xDB9 JUMP JUMPDEST POP PUSH1 0x20 DUP3 ADD MLOAD DUP2 PUSH1 0x1 ADD SSTORE PUSH1 0x40 DUP3 ADD MLOAD DUP2 PUSH1 0x2 ADD PUSH0 PUSH2 0x100 EXP DUP2 SLOAD DUP2 PUSH1 0xFF MUL NOT AND SWAP1 DUP4 PUSH1 0x2 DUP2 GT ISZERO PUSH2 0x661 JUMPI PUSH2 0x660 PUSH2 0x917 JUMP JUMPDEST JUMPDEST MUL OR SWAP1 SSTORE POP PUSH1 0x60 DUP3 ADD MLOAD DUP2 PUSH1 0x3 ADD SSTORE PUSH1 0x80 DUP3 ADD MLOAD DUP2 PUSH1 0x4 ADD SSTORE PUSH1 0xA0 DUP3 ADD MLOAD DUP2 PUSH1 0x5 ADD PUSH0 PUSH2 0x100 EXP DUP2 SLOAD DUP2 PUSH1 0xFF MUL NOT AND SWAP1 DUP4 ISZERO ISZERO MUL OR SWAP1 SSTORE POP SWAP1 POP POP POP POP POP POP POP JUMP JUMPDEST PUSH0 PUSH1 0x40 MLOAD SWAP1 POP SWAP1 JUMP JUMPDEST PUSH0 PUSH0 REVERT JUMPDEST PUSH0 PUSH0 REVERT JUMPDEST PUSH0 PUSH0 REVERT JUMPDEST PUSH0 PUSH0 REVERT JUMPDEST PUSH0 PUSH1 0x1F NOT PUSH1 0x1F DUP4 ADD AND SWAP1 POP SWAP2 SWAP1 POP JUMP JUMPDEST PUSH32 0x4E487B7100000000000000000000000000000000000000000000000000000000 PUSH0 MSTORE PUSH1 0x41 PUSH1 0x4 MSTORE PUSH1 0x24 PUSH0 REVERT JUMPDEST PUSH2 0x702 DUP3 PUSH2 0x6BC JUMP JUMPDEST DUP2 ADD DUP2 DUP2 LT PUSH8 0xFFFFFFFFFFFFFFFF DUP3 GT OR ISZERO PUSH2 0x721 JUMPI PUSH2 0x720 PUSH2 0x6CC JUMP JUMPDEST JUMPDEST DUP1 PUSH1 0x40 MSTORE POP POP POP JUMP JUMPDEST PUSH0 PUSH2 0x733 PUSH2 0x6A3 JUMP JUMPDEST SWAP1 POP PUSH2 0x73F DUP3 DUP3 PUSH2 0x6F9 JUMP JUMPDEST SWAP2 SWAP1 POP JUMP JUMPDEST PUSH0 PUSH8 0xFFFFFFFFFFFFFFFF DUP3 GT ISZERO PUSH2 0x75E JUMPI PUSH2 0x75D PUSH2 0x6CC JUMP JUMPDEST JUMPDEST PUSH2 0x767 DUP3 PUSH2 0x6BC JUMP JUMPDEST SWAP1 POP PUSH1 0x20 DUP2 ADD SWAP1 POP SWAP2 SWAP1 POP JUMP JUMPDEST DUP3 DUP2 DUP4 CALLDATACOPY PUSH0 DUP4 DUP4 ADD MSTORE POP POP POP JUMP JUMPDEST PUSH0 PUSH2 0x794 PUSH2 0x78F DUP5 PUSH2 0x744 JUMP JUMPDEST PUSH2 0x72A JUMP JUMPDEST SWAP1 POP DUP3 DUP2 MSTORE PUSH1 0x20 DUP2 ADD DUP5 DUP5 DUP5 ADD GT ISZERO PUSH2 0x7B0 JUMPI PUSH2 0x7AF PUSH2 0x6B8 JUMP JUMPDEST JUMPDEST PUSH2 0x7BB DUP5 DUP3 DUP6 PUSH2 0x774 JUMP JUMPDEST POP SWAP4 SWAP3 POP POP POP JUMP JUMPDEST PUSH0 DUP3 PUSH1 0x1F DUP4 ADD SLT PUSH2 0x7D7 JUMPI PUSH2 0x7D6 PUSH2 0x6B4 JUMP JUMPDEST JUMPDEST DUP2 CALLDATALOAD PUSH2 0x7E7 DUP5 DUP3 PUSH1 0x20 DUP7 ADD PUSH2 0x782 JUMP JUMPDEST SWAP2 POP POP SWAP3 SWAP2 POP POP JUMP JUMPDEST PUSH0 DUP2 SWAP1 POP SWAP2 SWAP1 POP JUMP JUMPDEST PUSH2 0x802 DUP2 PUSH2 0x7F0 JUMP JUMPDEST DUP2 EQ PUSH2 0x80C JUMPI PUSH0 PUSH0 REVERT JUMPDEST POP JUMP JUMPDEST PUSH0 DUP2 CALLDATALOAD SWAP1 POP PUSH2 0x81D DUP2 PUSH2 0x7F9 JUMP JUMPDEST SWAP3 SWAP2 POP POP JUMP JUMPDEST PUSH0 PUSH0 PUSH1 0x40 DUP4 DUP6 SUB SLT ISZERO PUSH2 0x839 JUMPI PUSH2 0x838 PUSH2 0x6AC JUMP JUMPDEST JUMPDEST PUSH0 DUP4 ADD CALLDATALOAD PUSH8 0xFFFFFFFFFFFFFFFF DUP2 GT ISZERO PUSH2 0x856 JUMPI PUSH2 0x855 PUSH2 0x6B0 JUMP JUMPDEST JUMPDEST PUSH2 0x862 DUP6 DUP3 DUP7 ADD PUSH2 0x7C3 JUMP JUMPDEST SWAP3 POP POP PUSH1 0x20 PUSH2 0x873 DUP6 DUP3 DUP7 ADD PUSH2 0x80F JUMP JUMPDEST SWAP2 POP POP SWAP3 POP SWAP3 SWAP1 POP JUMP JUMPDEST PUSH0 PUSH1 0x20 DUP3 DUP5 SUB SLT ISZERO PUSH2 0x892 JUMPI PUSH2 0x891 PUSH2 0x6AC JUMP JUMPDEST JUMPDEST PUSH0 PUSH2 0x89F DUP5 DUP3 DUP6 ADD PUSH2 0x80F JUMP JUMPDEST SWAP2 POP POP SWAP3 SWAP2 POP POP JUMP JUMPDEST PUSH0 DUP2 MLOAD SWAP1 POP SWAP2 SWAP1 POP JUMP JUMPDEST PUSH0 DUP3 DUP3 MSTORE PUSH1 0x20 DUP3 ADD SWAP1 POP SWAP3 SWAP2 POP POP JUMP JUMPDEST DUP3 DUP2 DUP4 MCOPY PUSH0 DUP4 DUP4 ADD MSTORE POP POP POP JUMP JUMPDEST PUSH0 PUSH2 0x8DA DUP3 PUSH2 0x8A8 JUMP JUMPDEST PUSH2 0x8E4 DUP2 DUP6 PUSH2 0x8B2 JUMP JUMPDEST SWAP4 POP PUSH2 0x8F4 DUP2 DUP6 PUSH1 0x20 DUP7 ADD PUSH2 0x8C2 JUMP JUMPDEST PUSH2 0x8FD DUP2 PUSH2 0x6BC JUMP JUMPDEST DUP5 ADD SWAP2 POP POP SWAP3 SWAP2 POP POP JUMP JUMPDEST PUSH2 0x911 DUP2 PUSH2 0x7F0 JUMP JUMPDEST DUP3 MSTORE POP POP JUMP JUMPDEST PUSH32 0x4E487B7100000000000000000000000000000000000000000000000000000000 PUSH0 MSTORE PUSH1 0x21 PUSH1 0x4 MSTORE PUSH1 0x24 PUSH0 REVERT JUMPDEST PUSH1 0x3 DUP2 LT PUSH2 0x955 JUMPI PUSH2 0x954 PUSH2 0x917 JUMP JUMPDEST JUMPDEST POP JUMP JUMPDEST PUSH0 DUP2 SWAP1 POP PUSH2 0x965 DUP3 PUSH2 0x944 JUMP JUMPDEST SWAP2 SWAP1 POP JUMP JUMPDEST PUSH0 PUSH2 0x974 DUP3 PUSH2 0x958 JUMP JUMPDEST SWAP1 POP SWAP2 SWAP1 POP JUMP JUMPDEST PUSH2 0x984 DUP2 PUSH2 0x96A JUMP JUMPDEST DUP3 MSTORE POP POP JUMP JUMPDEST PUSH0 PUSH1 0xA0 DUP3 ADD SWAP1 POP DUP2 DUP2 SUB PUSH0 DUP4 ADD MSTORE PUSH2 0x9A2 DUP2 DUP9 PUSH2 0x8D0 JUMP JUMPDEST SWAP1 POP PUSH2 0x9B1 PUSH1 0x20 DUP4 ADD DUP8 PUSH2 0x908 JUMP JUMPDEST PUSH2 0x9BE PUSH1 0x40 DUP4 ADD DUP7 PUSH2 0x97B JUMP JUMPDEST PUSH2 0x9CB PUSH1 0x60 DUP4 ADD DUP6 PUSH2 0x908 JUMP JUMPDEST PUSH2 0x9D8 PUSH1 0x80 DUP4 ADD DUP5 PUSH2 0x908 JUMP JUMPDEST SWAP7 SWAP6 POP POP POP POP POP POP JUMP JUMPDEST PUSH0 PUSH20 0xFFFFFFFFFFFFFFFFFFFFFFFFFFFFFFFFFFFFFFFF DUP3 AND SWAP1 POP SWAP2 SWAP1 POP JUMP JUMPDEST PUSH0 PUSH2 0xA0B DUP3 PUSH2 0x9E2 JUMP JUMPDEST SWAP1 POP SWAP2 SWAP1 POP JUMP JUMPDEST PUSH2 0xA1B DUP2 PUSH2 0xA01 JUMP JUMPDEST DUP3 MSTORE POP POP JUMP JUMPDEST PUSH0 PUSH1 0x20 DUP3 ADD SWAP1 POP PUSH2 0xA34 PUSH0 DUP4 ADD DUP5 PUSH2 0xA12 JUMP JUMPDEST SWAP3 SWAP2 POP POP JUMP JUMPDEST PUSH1 0x3 DUP2 LT PUSH2 0xA46 JUMPI PUSH0 PUSH0 REVERT JUMPDEST POP JUMP JUMPDEST PUSH0 DUP2 CALLDATALOAD SWAP1 POP PUSH2 0xA57 DUP2 PUSH2 0xA3A JUMP JUMPDEST SWAP3 SWAP2 POP POP JUMP JUMPDEST PUSH0 PUSH0 PUSH0 PUSH0 PUSH1 0x80 DUP6 DUP8 SUB SLT ISZERO PUSH2 0xA75 JUMPI PUSH2 0xA74 PUSH2 0x6AC JUMP JUMPDEST JUMPDEST PUSH0 PUSH2 0xA82 DUP8 DUP3 DUP9 ADD PUSH2 0x80F JUMP JUMPDEST SWAP5 POP POP PUSH1 0x20 PUSH2 0xA93 DUP8 DUP3 DUP9 ADD PUSH2 0xA49 JUMP JUMPDEST SWAP4 POP POP PUSH1 0x40 PUSH2 0xAA4 DUP8 DUP3 DUP9 ADD PUSH2 0x80F JUMP JUMPDEST SWAP3 POP POP PUSH1 0x60 PUSH2 0xAB5 DUP8 DUP3 DUP9 ADD PUSH2 0x80F JUMP JUMPDEST SWAP2 POP POP SWAP3 SWAP6 SWAP2 SWAP5 POP SWAP3 POP JUMP JUMPDEST PUSH0 PUSH0 PUSH0 PUSH0 PUSH0 PUSH1 0xA0 DUP7 DUP9 SUB SLT ISZERO PUSH2 0xADA JUMPI PUSH2 0xAD9 PUSH2 0x6AC JUMP JUMPDEST JUMPDEST PUSH0 DUP7 ADD CALLDATALOAD PUSH8 0xFFFFFFFFFFFFFFFF DUP2 GT ISZERO PUSH2 0xAF7 JUMPI PUSH2 0xAF6 PUSH2 0x6B0 JUMP JUMPDEST JUMPDEST PUSH2 0xB03 DUP9 DUP3 DUP10 ADD PUSH2 0x7C3 JUMP JUMPDEST SWAP6 POP POP PUSH1 0x20 PUSH2 0xB14 DUP9 DUP3 DUP10 ADD PUSH2 0x80F JUMP JUMPDEST SWAP5 POP POP PUSH1 0x40 PUSH2 0xB25 DUP9 DUP3 DUP10 ADD PUSH2 0xA49 JUMP JUMPDEST SWAP4 POP POP PUSH1 0x60 PUSH2 0xB36 DUP9 DUP3 DUP10 ADD PUSH2 0x80F JUMP JUMPDEST SWAP3 POP POP PUSH1 0x80 PUSH2 0xB47 DUP9 DUP3 DUP10 ADD PUSH2 0x80F JUMP JUMPDEST SWAP2 POP POP SWAP3 SWAP6 POP SWAP3 SWAP6 SWAP1 SWAP4 POP JUMP JUMPDEST PUSH32 0x526F6C6C204E756D62657220646F6573206E6F74206578697374000000000000 PUSH0 DUP3 ADD MSTORE POP JUMP JUMPDEST PUSH0 PUSH2 0xB88 PUSH1 0x1A DUP4 PUSH2 0x8B2 JUMP JUMPDEST SWAP2 POP PUSH2 0xB93 DUP3 PUSH2 0xB54 JUMP JUMPDEST PUSH1 0x20 DUP3 ADD SWAP1 POP SWAP2 SWAP1 POP JUMP JUMPDEST PUSH0 PUSH1 0x20 DUP3 ADD SWAP1 POP DUP2 DUP2 SUB PUSH0 DUP4 ADD MSTORE PUSH2 0xBB5 DUP2 PUSH2 0xB7C JUMP JUMPDEST SWAP1 POP SWAP2 SWAP1 POP JUMP JUMPDEST PUSH32 0x4E487B7100000000000000000000000000000000000000000000000000000000 PUSH0 MSTORE PUSH1 0x22 PUSH1 0x4 MSTORE PUSH1 0x24 PUSH0 REVERT JUMPDEST PUSH0 PUSH1 0x2 DUP3 DIV SWAP1 POP PUSH1 0x1 DUP3 AND DUP1 PUSH2 0xC00 JUMPI PUSH1 0x7F DUP3 AND SWAP2 POP JUMPDEST PUSH1 0x20 DUP3 LT DUP2 SUB PUSH2 0xC13 JUMPI PUSH2 0xC12 PUSH2 0xBBC JUMP JUMPDEST JUMPDEST POP SWAP2 SWAP1 POP JUMP JUMPDEST PUSH0 DUP2 SWAP1 POP DUP2 PUSH0 MSTORE PUSH1 0x20 PUSH0 KECCAK256 SWAP1 POP SWAP2 SWAP1 POP JUMP JUMPDEST PUSH0 PUSH1 0x20 PUSH1 0x1F DUP4 ADD DIV SWAP1 POP SWAP2 SWAP1 POP JUMP JUMPDEST PUSH0 DUP3 DUP3 SHL SWAP1 POP SWAP3 SWAP2 POP POP JUMP JUMPDEST PUSH0 PUSH1 0x8 DUP4 MUL PUSH2 0xC75 PUSH32 0xFFFFFFFFFFFFFFFFFFFFFFFFFFFFFFFFFFFFFFFFFFFFFFFFFFFFFFFFFFFFFFFF DUP3 PUSH2 0xC3A JUMP JUMPDEST PUSH2 0xC7F DUP7 DUP4 PUSH2 0xC3A JUMP JUMPDEST SWAP6 POP DUP1 NOT DUP5 AND SWAP4 POP DUP1 DUP7 AND DUP5 OR SWAP3 POP POP POP SWAP4 SWAP3 POP POP POP JUMP JUMPDEST PUSH0 DUP2 SWAP1 POP SWAP2 SWAP1 POP JUMP JUMPDEST PUSH0 PUSH2 0xCBA PUSH2 0xCB5 PUSH2 0xCB0 DUP5 PUSH2 0x7F0 JUMP JUMPDEST PUSH2 0xC97 JUMP JUMPDEST PUSH2 0x7F0 JUMP JUMPDEST SWAP1 POP SWAP2 SWAP1 POP JUMP JUMPDEST PUSH0 DUP2 SWAP1 POP SWAP2 SWAP1 POP JUMP JUMPDEST PUSH2 0xCD3 DUP4 PUSH2 0xCA0 JUMP JUMPDEST PUSH2 0xCE7 PUSH2 0xCDF DUP3 PUSH2 0xCC1 JUMP JUMPDEST DUP5 DUP5 SLOAD PUSH2 0xC46 JUMP JUMPDEST DUP3 SSTORE POP POP POP POP JUMP JUMPDEST PUSH0 PUSH0 SWAP1 POP SWAP1 JUMP JUMPDEST PUSH2 0xCFE PUSH2 0xCEF JUMP JUMPDEST PUSH2 0xD09 DUP2 DUP5 DUP5 PUSH2 0xCCA JUMP JUMPDEST POP POP POP JUMP JUMPDEST JUMPDEST DUP2 DUP2 LT ISZERO PUSH2 0xD2C JUMPI PUSH2 0xD21 PUSH0 DUP3 PUSH2 0xCF6 JUMP JUMPDEST PUSH1 0x1 DUP2 ADD SWAP1 POP PUSH2 0xD0F JUMP JUMPDEST POP POP JUMP JUMPDEST PUSH1 0x1F DUP3 GT ISZERO PUSH2 0xD71 JUMPI PUSH2 0xD42 DUP2 PUSH2 0xC19 JUMP JUMPDEST PUSH2 0xD4B DUP5 PUSH2 0xC2B JUMP JUMPDEST DUP2 ADD PUSH1 0x20 DUP6 LT ISZERO PUSH2 0xD5A JUMPI DUP2 SWAP1 POP JUMPDEST PUSH2 0xD6E PUSH2 0xD66 DUP6 PUSH2 0xC2B JUMP JUMPDEST DUP4 ADD DUP3 PUSH2 0xD0E JUMP JUMPDEST POP POP JUMPDEST POP POP POP JUMP JUMPDEST PUSH0 DUP3 DUP3 SHR SWAP1 POP SWAP3 SWAP2 POP POP JUMP JUMPDEST PUSH0 PUSH2 0xD91 PUSH0 NOT DUP5 PUSH1 0x8 MUL PUSH2 0xD76 JUMP JUMPDEST NOT DUP1 DUP4 AND SWAP2 POP POP SWAP3 SWAP2 POP POP JUMP JUMPDEST PUSH0 PUSH2 0xDA9 DUP4 DUP4 PUSH2 0xD82 JUMP JUMPDEST SWAP2 POP DUP3 PUSH1 0x2 MUL DUP3 OR SWAP1 POP SWAP3 SWAP2 POP POP JUMP JUMPDEST PUSH2 0xDC2 DUP3 PUSH2 0x8A8 JUMP JUMPDEST PUSH8 0xFFFFFFFFFFFFFFFF DUP2 GT ISZERO PUSH2 0xDDB JUMPI PUSH2 0xDDA PUSH2 0x6CC JUMP JUMPDEST JUMPDEST PUSH2 0xDE5 DUP3 SLOAD PUSH2 0xBE9 JUMP JUMPDEST PUSH2 0xDF0 DUP3 DUP3 DUP6 PUSH2 0xD30 JUMP JUMPDEST PUSH0 PUSH1 0x20 SWAP1 POP PUSH1 0x1F DUP4 GT PUSH1 0x1 DUP2 EQ PUSH2 0xE21 JUMPI PUSH0 DUP5 ISZERO PUSH2 0xE0F JUMPI DUP3 DUP8 ADD MLOAD SWAP1 POP JUMPDEST PUSH2 0xE19 DUP6 DUP3 PUSH2 0xD9E JUMP JUMPDEST DUP7 SSTORE POP PUSH2 0xE80 JUMP JUMPDEST PUSH1 0x1F NOT DUP5 AND PUSH2 0xE2F DUP7 PUSH2 0xC19 JUMP JUMPDEST PUSH0 JUMPDEST DUP3 DUP2 LT ISZERO PUSH2 0xE56 JUMPI DUP5 DUP10 ADD MLOAD DUP3 SSTORE PUSH1 0x1 DUP3 ADD SWAP2 POP PUSH1 0x20 DUP6 ADD SWAP5 POP PUSH1 0x20 DUP2 ADD SWAP1 POP PUSH2 0xE31 JUMP JUMPDEST DUP7 DUP4 LT ISZERO PUSH2 0xE73 JUMPI DUP5 DUP10 ADD MLOAD PUSH2 0xE6F PUSH1 0x1F DUP10 AND DUP3 PUSH2 0xD82 JUMP JUMPDEST DUP4 SSTORE POP JUMPDEST PUSH1 0x1 PUSH1 0x2 DUP9 MUL ADD DUP9 SSTORE POP POP POP JUMPDEST POP POP POP POP POP POP JUMP JUMPDEST PUSH32 0x596F752063616E6E6F742061636365737320746869732066756E6374696F6E00 PUSH0 DUP3 ADD MSTORE POP JUMP JUMPDEST PUSH0 PUSH2 0xEBC PUSH1 0x1F DUP4 PUSH2 0x8B2 JUMP JUMPDEST SWAP2 POP PUSH2 0xEC7 DUP3 PUSH2 0xE88 JUMP JUMPDEST PUSH1 0x20 DUP3 ADD SWAP1 POP SWAP2 SWAP1 POP JUMP JUMPDEST PUSH0 PUSH1 0x20 DUP3 ADD SWAP1 POP DUP2 DUP2 SUB PUSH0 DUP4 ADD MSTORE PUSH2 0xEE9 DUP2 PUSH2 0xEB0 JUMP JUMPDEST SWAP1 POP SWAP2 SWAP1 POP JUMP JUMPDEST PUSH32 0x526F6C6C206E756D62657220697320616C726561647920657869737473000000 PUSH0 DUP3 ADD MSTORE POP JUMP JUMPDEST PUSH0 PUSH2 0xF24 PUSH1 0x1D DUP4 PUSH2 0x8B2 JUMP JUMPDEST SWAP2 POP PUSH2 0xF2F DUP3 PUSH2 0xEF0 JUMP JUMPDEST PUSH1 0x20 DUP3 ADD SWAP1 POP SWAP2 SWAP1 POP JUMP JUMPDEST PUSH0 PUSH1 0x20 DUP3 ADD SWAP1 POP DUP2 DUP2 SUB PUSH0 DUP4 ADD MSTORE PUSH2 0xF51 DUP2 PUSH2 0xF18 JUMP JUMPDEST SWAP1 POP SWAP2 SWAP1 POP JUMP INVALID LOG2 PUSH5 0x6970667358 0x22 SLT KECCAK256 0xB0 MSTORE8 0x25 CALLVALUE 0xE2 0x24 DUP9 CODECOPY POP 0x4C 0xAB 0xC 0x27 PUSH11 0xD51CB3333FF5CC4BDA4AC3 DUP1 0xE2 ISZERO 0xCD 0xF7 0xAA 0xC8 PUSH5 0x736F6C6343 STOP ADDMOD SHR STOP CALLER "
				},
				"gasEstimates": {
					"creation": {
						"codeDepositCost": "796400",
						"executionCost": "25093",
						"totalCost": "821493"
					},
					"external": {
						"addStudent(string,uint256,uint8,uint256,uint256)": "infinite",
						"editData(uint256,uint8,uint256,uint256)": "infinite",
						"editName(string,uint256)": "infinite",
						"getStudent(uint256)": "infinite",
						"staffAdvisor()": "2529"
					}
				},
				"methodIdentifiers": {
					"addStudent(string,uint256,uint8,uint256,uint256)": "d54fe4fd",
					"editData(uint256,uint8,uint256,uint256)": "c75d76f9",
					"editName(string,uint256)": "11f11b9c",
					"getStudent(uint256)": "642f9163",
					"staffAdvisor()": "7b8c341d"
				}
			},
			"storageLayout": {
				"storage": [
					{
						"astId": 7,
						"contract": "default_workspace /StudentManagement.sol:StudentManagement",
						"label": "staffAdvisor",
						"offset": 0,
						"slot": "0",
						"type": "t_address"
					},
					{
						"astId": 26,
						"contract": "default_workspace /StudentManagement.sol:StudentManagement",
						"label": "studentDetails",
						"offset": 0,
						"slot": "1",
						"type": "t_mapping(t_uint256,t_struct(Student)21_storage)"
					}
				],
				"types": {
					"t_address": {
						"encoding": "inplace",
						"label": "address",
						"numberOfBytes": "20"
					},
					"t_bool": {
						"encoding": "inplace",
						"label": "bool",
						"numberOfBytes": "1"
					},
					"t_enum(Department)5": {
						"encoding": "inplace",
						"label": "enum StudentManagement.Department",
						"numberOfBytes": "1"
					},
					"t_mapping(t_uint256,t_struct(Student)21_storage)": {
						"encoding": "mapping",
						"key": "t_uint256",
						"label": "mapping(uint256 => struct StudentManagement.Student)",
						"numberOfBytes": "32",
						"value": "t_struct(Student)21_storage"
					},
					"t_string_storage": {
						"encoding": "bytes",
						"label": "string",
						"numberOfBytes": "32"
					},
					"t_struct(Student)21_storage": {
						"encoding": "inplace",
						"label": "struct StudentManagement.Student",
						"members": [
							{
								"astId": 9,
								"contract": "default_workspace /StudentManagement.sol:StudentManagement",
								"label": "name",
								"offset": 0,
								"slot": "0",
								"type": "t_string_storage"
							},
							{
								"astId": 11,
								"contract": "default_workspace /StudentManagement.sol:StudentManagement",
								"label": "sem",
								"offset": 0,
								"slot": "1",
								"type": "t_uint256"
							},
							{
								"astId": 14,
								"contract": "default_workspace /StudentManagement.sol:StudentManagement",
								"label": "dept",
								"offset": 0,
								"slot": "2",
								"type": "t_enum(Department)5"
							},
							{
								"astId": 16,
								"contract": "default_workspace /StudentManagement.sol:StudentManagement",
								"label": "CGPA",
								"offset": 0,
								"slot": "3",
								"type": "t_uint256"
							},
							{
								"astId": 18,
								"contract": "default_workspace /StudentManagement.sol:StudentManagement",
								"label": "rollno",
								"offset": 0,
								"slot": "4",
								"type": "t_uint256"
							},
							{
								"astId": 20,
								"contract": "default_workspace /StudentManagement.sol:StudentManagement",
								"label": "exist",
								"offset": 0,
								"slot": "5",
								"type": "t_bool"
							}
						],
						"numberOfBytes": "192"
					},
					"t_uint256": {
						"encoding": "inplace",
						"label": "uint256",
						"numberOfBytes": "32"
					}
				}
			},
			"userdoc": {
				"kind": "user",
				"methods": {},
				"version": 1
			}
		}
	}
}