{
	"MathFunctions.sol": {
		"MathFunctions": {
			"abi": [
				{
					"inputs": [
						{
							"internalType": "int256",
							"name": "num",
							"type": "int256"
						}
					],
					"name": "checkSign",
					"outputs": [],
					"stateMutability": "nonpayable",
					"type": "function"
				},
				{
					"inputs": [],
					"name": "digitInWord",
					"outputs": [
						{
							"internalType": "string",
							"name": "",
							"type": "string"
						}
					],
					"stateMutability": "view",
					"type": "function"
				},
				{
					"inputs": [
						{
							"internalType": "int256",
							"name": "num1",
							"type": "int256"
						},
						{
							"internalType": "int256",
							"name": "num2",
							"type": "int256"
						},
						{
							"internalType": "int256",
							"name": "num3",
							"type": "int256"
						}
					],
					"name": "findLargest",
					"outputs": [],
					"stateMutability": "nonpayable",
					"type": "function"
				},
				{
					"inputs": [
						{
							"internalType": "int256",
							"name": "num",
							"type": "int256"
						}
					],
					"name": "getDigit",
					"outputs": [],
					"stateMutability": "nonpayable",
					"type": "function"
				},
				{
					"inputs": [],
					"name": "largestNumber",
					"outputs": [
						{
							"internalType": "int256",
							"name": "",
							"type": "int256"
						}
					],
					"stateMutability": "view",
					"type": "function"
				},
				{
					"inputs": [],
					"name": "signOfNumber",
					"outputs": [
						{
							"internalType": "string",
							"name": "",
							"type": "string"
						}
					],
					"stateMutability": "view",
					"type": "function"
				}
			],
			"devdoc": {
				"kind": "dev",
				"methods": {},
				"version": 1
			},
			"evm": {
				"assembly": "    /* \"MathFunctions.sol\":54:1373  contract MathFunctions{... */\n  mstore(0x40, 0x80)\n  callvalue\n  dup1\n  iszero\n  tag_1\n  jumpi\n  revert(0x00, 0x00)\ntag_1:\n  pop\n  dataSize(sub_0)\n  dup1\n  dataOffset(sub_0)\n  0x00\n  codecopy\n  0x00\n  return\nstop\n\nsub_0: assembly {\n        /* \"MathFunctions.sol\":54:1373  contract MathFunctions{... */\n      mstore(0x40, 0x80)\n      callvalue\n      dup1\n      iszero\n      tag_1\n      jumpi\n      revert(0x00, 0x00)\n    tag_1:\n      pop\n      jumpi(tag_2, lt(calldatasize, 0x04))\n      shr(0xe0, calldataload(0x00))\n      dup1\n      0x03f233cd\n      eq\n      tag_3\n      jumpi\n      dup1\n      0x294fe43b\n      eq\n      tag_4\n      jumpi\n      dup1\n      0x602ec5c8\n      eq\n      tag_5\n      jumpi\n      dup1\n      0xaf3fbef8\n      eq\n      tag_6\n      jumpi\n      dup1\n      0xc821075f\n      eq\n      tag_7\n      jumpi\n      dup1\n      0xedad6531\n      eq\n      tag_8\n      jumpi\n    tag_2:\n      revert(0x00, 0x00)\n        /* \"MathFunctions.sol\":82:106  int public largestNumber */\n    tag_3:\n      tag_9\n      tag_10\n      jump\t// in\n    tag_9:\n      mload(0x40)\n      tag_11\n      swap2\n      swap1\n      tag_12\n      jump\t// in\n    tag_11:\n      mload(0x40)\n      dup1\n      swap2\n      sub\n      swap1\n      return\n        /* \"MathFunctions.sol\":1136:1371  function checkSign(int num) public {... */\n    tag_4:\n      tag_13\n      0x04\n      dup1\n      calldatasize\n      sub\n      dup2\n      add\n      swap1\n      tag_14\n      swap2\n      swap1\n      tag_15\n      jump\t// in\n    tag_14:\n      tag_16\n      jump\t// in\n    tag_13:\n      stop\n        /* \"MathFunctions.sol\":112:137  string public digitInWord */\n    tag_5:\n      tag_17\n      tag_18\n      jump\t// in\n    tag_17:\n      mload(0x40)\n      tag_19\n      swap2\n      swap1\n      tag_20\n      jump\t// in\n    tag_19:\n      mload(0x40)\n      dup1\n      swap2\n      sub\n      swap1\n      return\n        /* \"MathFunctions.sol\":456:1129  function getDigit(int num) public {... */\n    tag_6:\n      tag_21\n      0x04\n      dup1\n      calldatasize\n      sub\n      dup2\n      add\n      swap1\n      tag_22\n      swap2\n      swap1\n      tag_15\n      jump\t// in\n    tag_22:\n      tag_23\n      jump\t// in\n    tag_21:\n      stop\n        /* \"MathFunctions.sol\":176:450  function findLargest(int num1,int num2,int num3) public{... */\n    tag_7:\n      tag_24\n      0x04\n      dup1\n      calldatasize\n      sub\n      dup2\n      add\n      swap1\n      tag_25\n      swap2\n      swap1\n      tag_26\n      jump\t// in\n    tag_25:\n      tag_27\n      jump\t// in\n    tag_24:\n      stop\n        /* \"MathFunctions.sol\":143:169  string public signOfNumber */\n    tag_8:\n      tag_28\n      tag_29\n      jump\t// in\n    tag_28:\n      mload(0x40)\n      tag_30\n      swap2\n      swap1\n      tag_20\n      jump\t// in\n    tag_30:\n      mload(0x40)\n      dup1\n      swap2\n      sub\n      swap1\n      return\n        /* \"MathFunctions.sol\":82:106  int public largestNumber */\n    tag_10:\n      sload(0x00)\n      dup2\n      jump\t// out\n        /* \"MathFunctions.sol\":1136:1371  function checkSign(int num) public {... */\n    tag_16:\n        /* \"MathFunctions.sol\":1191:1192  0 */\n      0x00\n        /* \"MathFunctions.sol\":1185:1188  num */\n      dup2\n        /* \"MathFunctions.sol\":1185:1192  num > 0 */\n      sgt\n        /* \"MathFunctions.sol\":1181:1365  if (num > 0) {... */\n      iszero\n      tag_32\n      jumpi\n        /* \"MathFunctions.sol\":1208:1233  signOfNumber = \"positive\" */\n      mload(0x40)\n      dup1\n      0x40\n      add\n      0x40\n      mstore\n      dup1\n      0x08\n      dup2\n      mstore\n      0x20\n      add\n      0x706f736974697665000000000000000000000000000000000000000000000000\n      dup2\n      mstore\n      pop\n        /* \"MathFunctions.sol\":1208:1220  signOfNumber */\n      0x02\n        /* \"MathFunctions.sol\":1208:1233  signOfNumber = \"positive\" */\n      swap1\n      dup2\n      tag_33\n      swap2\n      swap1\n      tag_34\n      jump\t// in\n    tag_33:\n      pop\n        /* \"MathFunctions.sol\":1181:1365  if (num > 0) {... */\n      jump(tag_35)\n    tag_32:\n        /* \"MathFunctions.sol\":1260:1261  0 */\n      0x00\n        /* \"MathFunctions.sol\":1254:1257  num */\n      dup2\n        /* \"MathFunctions.sol\":1254:1261  num < 0 */\n      slt\n        /* \"MathFunctions.sol\":1250:1365  if (num < 0) {... */\n      iszero\n      tag_36\n      jumpi\n        /* \"MathFunctions.sol\":1277:1302  signOfNumber = \"negative\" */\n      mload(0x40)\n      dup1\n      0x40\n      add\n      0x40\n      mstore\n      dup1\n      0x08\n      dup2\n      mstore\n      0x20\n      add\n      0x6e65676174697665000000000000000000000000000000000000000000000000\n      dup2\n      mstore\n      pop\n        /* \"MathFunctions.sol\":1277:1289  signOfNumber */\n      0x02\n        /* \"MathFunctions.sol\":1277:1302  signOfNumber = \"negative\" */\n      swap1\n      dup2\n      tag_37\n      swap2\n      swap1\n      tag_34\n      jump\t// in\n    tag_37:\n      pop\n        /* \"MathFunctions.sol\":1250:1365  if (num < 0) {... */\n      jump(tag_38)\n    tag_36:\n        /* \"MathFunctions.sol\":1333:1354  signOfNumber = \"zero\" */\n      mload(0x40)\n      dup1\n      0x40\n      add\n      0x40\n      mstore\n      dup1\n      0x04\n      dup2\n      mstore\n      0x20\n      add\n      0x7a65726f00000000000000000000000000000000000000000000000000000000\n      dup2\n      mstore\n      pop\n        /* \"MathFunctions.sol\":1333:1345  signOfNumber */\n      0x02\n        /* \"MathFunctions.sol\":1333:1354  signOfNumber = \"zero\" */\n      swap1\n      dup2\n      tag_39\n      swap2\n      swap1\n      tag_34\n      jump\t// in\n    tag_39:\n      pop\n        /* \"MathFunctions.sol\":1250:1365  if (num < 0) {... */\n    tag_38:\n        /* \"MathFunctions.sol\":1181:1365  if (num > 0) {... */\n    tag_35:\n        /* \"MathFunctions.sol\":1136:1371  function checkSign(int num) public {... */\n      pop\n      jump\t// out\n        /* \"MathFunctions.sol\":112:137  string public digitInWord */\n    tag_18:\n      0x01\n      dup1\n      sload\n      tag_40\n      swap1\n      tag_41\n      jump\t// in\n    tag_40:\n      dup1\n      0x1f\n      add\n      0x20\n      dup1\n      swap2\n      div\n      mul\n      0x20\n      add\n      mload(0x40)\n      swap1\n      dup2\n      add\n      0x40\n      mstore\n      dup1\n      swap3\n      swap2\n      swap1\n      dup2\n      dup2\n      mstore\n      0x20\n      add\n      dup3\n      dup1\n      sload\n      tag_42\n      swap1\n      tag_41\n      jump\t// in\n    tag_42:\n      dup1\n      iszero\n      tag_43\n      jumpi\n      dup1\n      0x1f\n      lt\n      tag_44\n      jumpi\n      0x0100\n      dup1\n      dup4\n      sload\n      div\n      mul\n      dup4\n      mstore\n      swap2\n      0x20\n      add\n      swap2\n      jump(tag_43)\n    tag_44:\n      dup3\n      add\n      swap2\n      swap1\n      0x00\n      mstore\n      keccak256(0x00, 0x20)\n      swap1\n    tag_45:\n      dup2\n      sload\n      dup2\n      mstore\n      swap1\n      0x01\n      add\n      swap1\n      0x20\n      add\n      dup1\n      dup4\n      gt\n      tag_45\n      jumpi\n      dup3\n      swap1\n      sub\n      0x1f\n      and\n      dup3\n      add\n      swap2\n    tag_43:\n      pop\n      pop\n      pop\n      pop\n      pop\n      dup2\n      jump\t// out\n        /* \"MathFunctions.sol\":456:1129  function getDigit(int num) public {... */\n    tag_23:\n        /* \"MathFunctions.sol\":511:512  0 */\n      0x00\n        /* \"MathFunctions.sol\":504:507  num */\n      dup2\n        /* \"MathFunctions.sol\":504:512  num >= 0 */\n      slt\n      iszero\n        /* \"MathFunctions.sol\":504:524  num >= 0 && num <= 9 */\n      dup1\n      iszero\n      tag_47\n      jumpi\n      pop\n        /* \"MathFunctions.sol\":523:524  9 */\n      0x09\n        /* \"MathFunctions.sol\":516:519  num */\n      dup2\n        /* \"MathFunctions.sol\":516:524  num <= 9 */\n      sgt\n      iszero\n        /* \"MathFunctions.sol\":504:524  num >= 0 && num <= 9 */\n    tag_47:\n        /* \"MathFunctions.sol\":500:1123  if (num >= 0 && num <= 9) {... */\n      iszero\n      tag_48\n      jumpi\n        /* \"MathFunctions.sol\":551:552  0 */\n      0x00\n        /* \"MathFunctions.sol\":544:547  num */\n      dup2\n        /* \"MathFunctions.sol\":544:552  num == 0 */\n      sub\n        /* \"MathFunctions.sol\":540:1051  if (num == 0) digitInWord = \"zero\";... */\n      tag_49\n      jumpi\n        /* \"MathFunctions.sol\":554:574  digitInWord = \"zero\" */\n      mload(0x40)\n      dup1\n      0x40\n      add\n      0x40\n      mstore\n      dup1\n      0x04\n      dup2\n      mstore\n      0x20\n      add\n      0x7a65726f00000000000000000000000000000000000000000000000000000000\n      dup2\n      mstore\n      pop\n        /* \"MathFunctions.sol\":554:565  digitInWord */\n      0x01\n        /* \"MathFunctions.sol\":554:574  digitInWord = \"zero\" */\n      swap1\n      dup2\n      tag_50\n      swap2\n      swap1\n      tag_34\n      jump\t// in\n    tag_50:\n      pop\n        /* \"MathFunctions.sol\":540:1051  if (num == 0) digitInWord = \"zero\";... */\n      jump(tag_51)\n    tag_49:\n        /* \"MathFunctions.sol\":604:605  1 */\n      0x01\n        /* \"MathFunctions.sol\":597:600  num */\n      dup2\n        /* \"MathFunctions.sol\":597:605  num == 1 */\n      sub\n        /* \"MathFunctions.sol\":593:1051  if (num == 1) digitInWord = \"one\";... */\n      tag_52\n      jumpi\n        /* \"MathFunctions.sol\":607:626  digitInWord = \"one\" */\n      mload(0x40)\n      dup1\n      0x40\n      add\n      0x40\n      mstore\n      dup1\n      0x03\n      dup2\n      mstore\n      0x20\n      add\n      0x6f6e650000000000000000000000000000000000000000000000000000000000\n      dup2\n      mstore\n      pop\n        /* \"MathFunctions.sol\":607:618  digitInWord */\n      0x01\n        /* \"MathFunctions.sol\":607:626  digitInWord = \"one\" */\n      swap1\n      dup2\n      tag_53\n      swap2\n      swap1\n      tag_34\n      jump\t// in\n    tag_53:\n      pop\n        /* \"MathFunctions.sol\":593:1051  if (num == 1) digitInWord = \"one\";... */\n      jump(tag_54)\n    tag_52:\n        /* \"MathFunctions.sol\":656:657  2 */\n      0x02\n        /* \"MathFunctions.sol\":649:652  num */\n      dup2\n        /* \"MathFunctions.sol\":649:657  num == 2 */\n      sub\n        /* \"MathFunctions.sol\":645:1051  if (num == 2) digitInWord = \"two\";... */\n      tag_55\n      jumpi\n        /* \"MathFunctions.sol\":659:678  digitInWord = \"two\" */\n      mload(0x40)\n      dup1\n      0x40\n      add\n      0x40\n      mstore\n      dup1\n      0x03\n      dup2\n      mstore\n      0x20\n      add\n      0x74776f0000000000000000000000000000000000000000000000000000000000\n      dup2\n      mstore\n      pop\n        /* \"MathFunctions.sol\":659:670  digitInWord */\n      0x01\n        /* \"MathFunctions.sol\":659:678  digitInWord = \"two\" */\n      swap1\n      dup2\n      tag_56\n      swap2\n      swap1\n      tag_34\n      jump\t// in\n    tag_56:\n      pop\n        /* \"MathFunctions.sol\":645:1051  if (num == 2) digitInWord = \"two\";... */\n      jump(tag_57)\n    tag_55:\n        /* \"MathFunctions.sol\":708:709  3 */\n      0x03\n        /* \"MathFunctions.sol\":701:704  num */\n      dup2\n        /* \"MathFunctions.sol\":701:709  num == 3 */\n      sub\n        /* \"MathFunctions.sol\":697:1051  if (num == 3) digitInWord = \"three\";... */\n      tag_58\n      jumpi\n        /* \"MathFunctions.sol\":711:732  digitInWord = \"three\" */\n      mload(0x40)\n      dup1\n      0x40\n      add\n      0x40\n      mstore\n      dup1\n      0x05\n      dup2\n      mstore\n      0x20\n      add\n      0x7468726565000000000000000000000000000000000000000000000000000000\n      dup2\n      mstore\n      pop\n        /* \"MathFunctions.sol\":711:722  digitInWord */\n      0x01\n        /* \"MathFunctions.sol\":711:732  digitInWord = \"three\" */\n      swap1\n      dup2\n      tag_59\n      swap2\n      swap1\n      tag_34\n      jump\t// in\n    tag_59:\n      pop\n        /* \"MathFunctions.sol\":697:1051  if (num == 3) digitInWord = \"three\";... */\n      jump(tag_60)\n    tag_58:\n        /* \"MathFunctions.sol\":762:763  4 */\n      0x04\n        /* \"MathFunctions.sol\":755:758  num */\n      dup2\n        /* \"MathFunctions.sol\":755:763  num == 4 */\n      sub\n        /* \"MathFunctions.sol\":751:1051  if (num == 4) digitInWord = \"four\";... */\n      tag_61\n      jumpi\n        /* \"MathFunctions.sol\":765:785  digitInWord = \"four\" */\n      mload(0x40)\n      dup1\n      0x40\n      add\n      0x40\n      mstore\n      dup1\n      0x04\n      dup2\n      mstore\n      0x20\n      add\n      0x666f757200000000000000000000000000000000000000000000000000000000\n      dup2\n      mstore\n      pop\n        /* \"MathFunctions.sol\":765:776  digitInWord */\n      0x01\n        /* \"MathFunctions.sol\":765:785  digitInWord = \"four\" */\n      swap1\n      dup2\n      tag_62\n      swap2\n      swap1\n      tag_34\n      jump\t// in\n    tag_62:\n      pop\n        /* \"MathFunctions.sol\":751:1051  if (num == 4) digitInWord = \"four\";... */\n      jump(tag_63)\n    tag_61:\n        /* \"MathFunctions.sol\":815:816  5 */\n      0x05\n        /* \"MathFunctions.sol\":808:811  num */\n      dup2\n        /* \"MathFunctions.sol\":808:816  num == 5 */\n      sub\n        /* \"MathFunctions.sol\":804:1051  if (num == 5) digitInWord = \"five\";... */\n      tag_64\n      jumpi\n        /* \"MathFunctions.sol\":818:838  digitInWord = \"five\" */\n      mload(0x40)\n      dup1\n      0x40\n      add\n      0x40\n      mstore\n      dup1\n      0x04\n      dup2\n      mstore\n      0x20\n      add\n      0x6669766500000000000000000000000000000000000000000000000000000000\n      dup2\n      mstore\n      pop\n        /* \"MathFunctions.sol\":818:829  digitInWord */\n      0x01\n        /* \"MathFunctions.sol\":818:838  digitInWord = \"five\" */\n      swap1\n      dup2\n      tag_65\n      swap2\n      swap1\n      tag_34\n      jump\t// in\n    tag_65:\n      pop\n        /* \"MathFunctions.sol\":804:1051  if (num == 5) digitInWord = \"five\";... */\n      jump(tag_66)\n    tag_64:\n        /* \"MathFunctions.sol\":868:869  6 */\n      0x06\n        /* \"MathFunctions.sol\":861:864  num */\n      dup2\n        /* \"MathFunctions.sol\":861:869  num == 6 */\n      sub\n        /* \"MathFunctions.sol\":857:1051  if (num == 6) digitInWord = \"six\";... */\n      tag_67\n      jumpi\n        /* \"MathFunctions.sol\":871:890  digitInWord = \"six\" */\n      mload(0x40)\n      dup1\n      0x40\n      add\n      0x40\n      mstore\n      dup1\n      0x03\n      dup2\n      mstore\n      0x20\n      add\n      0x7369780000000000000000000000000000000000000000000000000000000000\n      dup2\n      mstore\n      pop\n        /* \"MathFunctions.sol\":871:882  digitInWord */\n      0x01\n        /* \"MathFunctions.sol\":871:890  digitInWord = \"six\" */\n      swap1\n      dup2\n      tag_68\n      swap2\n      swap1\n      tag_34\n      jump\t// in\n    tag_68:\n      pop\n        /* \"MathFunctions.sol\":857:1051  if (num == 6) digitInWord = \"six\";... */\n      jump(tag_69)\n    tag_67:\n        /* \"MathFunctions.sol\":920:921  7 */\n      0x07\n        /* \"MathFunctions.sol\":913:916  num */\n      dup2\n        /* \"MathFunctions.sol\":913:921  num == 7 */\n      sub\n        /* \"MathFunctions.sol\":909:1051  if (num == 7) digitInWord = \"seven\";... */\n      tag_70\n      jumpi\n        /* \"MathFunctions.sol\":923:944  digitInWord = \"seven\" */\n      mload(0x40)\n      dup1\n      0x40\n      add\n      0x40\n      mstore\n      dup1\n      0x05\n      dup2\n      mstore\n      0x20\n      add\n      0x736576656e000000000000000000000000000000000000000000000000000000\n      dup2\n      mstore\n      pop\n        /* \"MathFunctions.sol\":923:934  digitInWord */\n      0x01\n        /* \"MathFunctions.sol\":923:944  digitInWord = \"seven\" */\n      swap1\n      dup2\n      tag_71\n      swap2\n      swap1\n      tag_34\n      jump\t// in\n    tag_71:\n      pop\n        /* \"MathFunctions.sol\":909:1051  if (num == 7) digitInWord = \"seven\";... */\n      jump(tag_72)\n    tag_70:\n        /* \"MathFunctions.sol\":974:975  8 */\n      0x08\n        /* \"MathFunctions.sol\":967:970  num */\n      dup2\n        /* \"MathFunctions.sol\":967:975  num == 8 */\n      sub\n        /* \"MathFunctions.sol\":963:1051  if (num == 8) digitInWord = \"eight\";... */\n      tag_73\n      jumpi\n        /* \"MathFunctions.sol\":977:998  digitInWord = \"eight\" */\n      mload(0x40)\n      dup1\n      0x40\n      add\n      0x40\n      mstore\n      dup1\n      0x05\n      dup2\n      mstore\n      0x20\n      add\n      0x6569676874000000000000000000000000000000000000000000000000000000\n      dup2\n      mstore\n      pop\n        /* \"MathFunctions.sol\":977:988  digitInWord */\n      0x01\n        /* \"MathFunctions.sol\":977:998  digitInWord = \"eight\" */\n      swap1\n      dup2\n      tag_74\n      swap2\n      swap1\n      tag_34\n      jump\t// in\n    tag_74:\n      pop\n        /* \"MathFunctions.sol\":963:1051  if (num == 8) digitInWord = \"eight\";... */\n      jump(tag_75)\n    tag_73:\n        /* \"MathFunctions.sol\":1028:1029  9 */\n      0x09\n        /* \"MathFunctions.sol\":1021:1024  num */\n      dup2\n        /* \"MathFunctions.sol\":1021:1029  num == 9 */\n      sub\n        /* \"MathFunctions.sol\":1017:1051  if (num == 9) digitInWord = \"nine\" */\n      tag_76\n      jumpi\n        /* \"MathFunctions.sol\":1031:1051  digitInWord = \"nine\" */\n      mload(0x40)\n      dup1\n      0x40\n      add\n      0x40\n      mstore\n      dup1\n      0x04\n      dup2\n      mstore\n      0x20\n      add\n      0x6e696e6500000000000000000000000000000000000000000000000000000000\n      dup2\n      mstore\n      pop\n        /* \"MathFunctions.sol\":1031:1042  digitInWord */\n      0x01\n        /* \"MathFunctions.sol\":1031:1051  digitInWord = \"nine\" */\n      swap1\n      dup2\n      tag_77\n      swap2\n      swap1\n      tag_34\n      jump\t// in\n    tag_77:\n      pop\n        /* \"MathFunctions.sol\":1017:1051  if (num == 9) digitInWord = \"nine\" */\n    tag_76:\n        /* \"MathFunctions.sol\":963:1051  if (num == 8) digitInWord = \"eight\";... */\n    tag_75:\n        /* \"MathFunctions.sol\":909:1051  if (num == 7) digitInWord = \"seven\";... */\n    tag_72:\n        /* \"MathFunctions.sol\":857:1051  if (num == 6) digitInWord = \"six\";... */\n    tag_69:\n        /* \"MathFunctions.sol\":804:1051  if (num == 5) digitInWord = \"five\";... */\n    tag_66:\n        /* \"MathFunctions.sol\":751:1051  if (num == 4) digitInWord = \"four\";... */\n    tag_63:\n        /* \"MathFunctions.sol\":697:1051  if (num == 3) digitInWord = \"three\";... */\n    tag_60:\n        /* \"MathFunctions.sol\":645:1051  if (num == 2) digitInWord = \"two\";... */\n    tag_57:\n        /* \"MathFunctions.sol\":593:1051  if (num == 1) digitInWord = \"one\";... */\n    tag_54:\n        /* \"MathFunctions.sol\":540:1051  if (num == 0) digitInWord = \"zero\";... */\n    tag_51:\n        /* \"MathFunctions.sol\":500:1123  if (num >= 0 && num <= 9) {... */\n      jump(tag_78)\n    tag_48:\n        /* \"MathFunctions.sol\":1082:1111  digitInWord = \"invalid Input\" */\n      mload(0x40)\n      dup1\n      0x40\n      add\n      0x40\n      mstore\n      dup1\n      0x0d\n      dup2\n      mstore\n      0x20\n      add\n      0x696e76616c696420496e70757400000000000000000000000000000000000000\n      dup2\n      mstore\n      pop\n        /* \"MathFunctions.sol\":1082:1093  digitInWord */\n      0x01\n        /* \"MathFunctions.sol\":1082:1111  digitInWord = \"invalid Input\" */\n      swap1\n      dup2\n      tag_79\n      swap2\n      swap1\n      tag_34\n      jump\t// in\n    tag_79:\n      pop\n        /* \"MathFunctions.sol\":500:1123  if (num >= 0 && num <= 9) {... */\n    tag_78:\n        /* \"MathFunctions.sol\":456:1129  function getDigit(int num) public {... */\n      pop\n      jump\t// out\n        /* \"MathFunctions.sol\":176:450  function findLargest(int num1,int num2,int num3) public{... */\n    tag_27:\n        /* \"MathFunctions.sol\":253:257  num2 */\n      dup2\n        /* \"MathFunctions.sol\":245:249  num1 */\n      dup4\n        /* \"MathFunctions.sol\":245:257  num1 >= num2 */\n      slt\n      iszero\n        /* \"MathFunctions.sol\":245:273  num1 >= num2 && num1 >= num3 */\n      dup1\n      iszero\n      tag_81\n      jumpi\n      pop\n        /* \"MathFunctions.sol\":269:273  num3 */\n      dup1\n        /* \"MathFunctions.sol\":261:265  num1 */\n      dup4\n        /* \"MathFunctions.sol\":261:273  num1 >= num3 */\n      slt\n      iszero\n        /* \"MathFunctions.sol\":245:273  num1 >= num2 && num1 >= num3 */\n    tag_81:\n        /* \"MathFunctions.sol\":241:444  if (num1 >= num2 && num1 >= num3) {... */\n      iszero\n      tag_82\n      jumpi\n        /* \"MathFunctions.sol\":301:305  num1 */\n      dup3\n        /* \"MathFunctions.sol\":285:298  largestNumber */\n      0x00\n        /* \"MathFunctions.sol\":285:305  largestNumber = num1 */\n      dup2\n      swap1\n      sstore\n      pop\n        /* \"MathFunctions.sol\":241:444  if (num1 >= num2 && num1 >= num3) {... */\n      jump(tag_83)\n    tag_82:\n        /* \"MathFunctions.sol\":334:338  num1 */\n      dup3\n        /* \"MathFunctions.sol\":326:330  num2 */\n      dup3\n        /* \"MathFunctions.sol\":326:338  num2 >= num1 */\n      slt\n      iszero\n        /* \"MathFunctions.sol\":326:354  num2 >= num1 && num2 >= num3 */\n      dup1\n      iszero\n      tag_84\n      jumpi\n      pop\n        /* \"MathFunctions.sol\":350:354  num3 */\n      dup1\n        /* \"MathFunctions.sol\":342:346  num2 */\n      dup3\n        /* \"MathFunctions.sol\":342:354  num2 >= num3 */\n      slt\n      iszero\n        /* \"MathFunctions.sol\":326:354  num2 >= num1 && num2 >= num3 */\n    tag_84:\n        /* \"MathFunctions.sol\":322:444  if (num2 >= num1 && num2 >= num3) {... */\n      iszero\n      tag_85\n      jumpi\n        /* \"MathFunctions.sol\":382:386  num2 */\n      dup2\n        /* \"MathFunctions.sol\":366:379  largestNumber */\n      0x00\n        /* \"MathFunctions.sol\":366:386  largestNumber = num2 */\n      dup2\n      swap1\n      sstore\n      pop\n        /* \"MathFunctions.sol\":322:444  if (num2 >= num1 && num2 >= num3) {... */\n      jump(tag_86)\n    tag_85:\n        /* \"MathFunctions.sol\":429:433  num3 */\n      dup1\n        /* \"MathFunctions.sol\":413:426  largestNumber */\n      0x00\n        /* \"MathFunctions.sol\":413:433  largestNumber = num3 */\n      dup2\n      swap1\n      sstore\n      pop\n        /* \"MathFunctions.sol\":322:444  if (num2 >= num1 && num2 >= num3) {... */\n    tag_86:\n        /* \"MathFunctions.sol\":241:444  if (num1 >= num2 && num1 >= num3) {... */\n    tag_83:\n        /* \"MathFunctions.sol\":176:450  function findLargest(int num1,int num2,int num3) public{... */\n      pop\n      pop\n      pop\n      jump\t// out\n        /* \"MathFunctions.sol\":143:169  string public signOfNumber */\n    tag_29:\n      0x02\n      dup1\n      sload\n      tag_87\n      swap1\n      tag_41\n      jump\t// in\n    tag_87:\n      dup1\n      0x1f\n      add\n      0x20\n      dup1\n      swap2\n      div\n      mul\n      0x20\n      add\n      mload(0x40)\n      swap1\n      dup2\n      add\n      0x40\n      mstore\n      dup1\n      swap3\n      swap2\n      swap1\n      dup2\n      dup2\n      mstore\n      0x20\n      add\n      dup3\n      dup1\n      sload\n      tag_88\n      swap1\n      tag_41\n      jump\t// in\n    tag_88:\n      dup1\n      iszero\n      tag_89\n      jumpi\n      dup1\n      0x1f\n      lt\n      tag_90\n      jumpi\n      0x0100\n      dup1\n      dup4\n      sload\n      div\n      mul\n      dup4\n      mstore\n      swap2\n      0x20\n      add\n      swap2\n      jump(tag_89)\n    tag_90:\n      dup3\n      add\n      swap2\n      swap1\n      0x00\n      mstore\n      keccak256(0x00, 0x20)\n      swap1\n    tag_91:\n      dup2\n      sload\n      dup2\n      mstore\n      swap1\n      0x01\n      add\n      swap1\n      0x20\n      add\n      dup1\n      dup4\n      gt\n      tag_91\n      jumpi\n      dup3\n      swap1\n      sub\n      0x1f\n      and\n      dup3\n      add\n      swap2\n    tag_89:\n      pop\n      pop\n      pop\n      pop\n      pop\n      dup2\n      jump\t// out\n        /* \"#utility.yul\":7:83   */\n    tag_92:\n        /* \"#utility.yul\":43:50   */\n      0x00\n        /* \"#utility.yul\":72:77   */\n      dup2\n        /* \"#utility.yul\":61:77   */\n      swap1\n      pop\n        /* \"#utility.yul\":7:83   */\n      swap2\n      swap1\n      pop\n      jump\t// out\n        /* \"#utility.yul\":89:204   */\n    tag_93:\n        /* \"#utility.yul\":174:197   */\n      tag_125\n        /* \"#utility.yul\":191:196   */\n      dup2\n        /* \"#utility.yul\":174:197   */\n      tag_92\n      jump\t// in\n    tag_125:\n        /* \"#utility.yul\":169:172   */\n      dup3\n        /* \"#utility.yul\":162:198   */\n      mstore\n        /* \"#utility.yul\":89:204   */\n      pop\n      pop\n      jump\t// out\n        /* \"#utility.yul\":210:428   */\n    tag_12:\n        /* \"#utility.yul\":301:305   */\n      0x00\n        /* \"#utility.yul\":339:341   */\n      0x20\n        /* \"#utility.yul\":328:337   */\n      dup3\n        /* \"#utility.yul\":324:342   */\n      add\n        /* \"#utility.yul\":316:342   */\n      swap1\n      pop\n        /* \"#utility.yul\":352:421   */\n      tag_127\n        /* \"#utility.yul\":418:419   */\n      0x00\n        /* \"#utility.yul\":407:416   */\n      dup4\n        /* \"#utility.yul\":403:420   */\n      add\n        /* \"#utility.yul\":394:400   */\n      dup5\n        /* \"#utility.yul\":352:421   */\n      tag_93\n      jump\t// in\n    tag_127:\n        /* \"#utility.yul\":210:428   */\n      swap3\n      swap2\n      pop\n      pop\n      jump\t// out\n        /* \"#utility.yul\":515:632   */\n    tag_95:\n        /* \"#utility.yul\":624:625   */\n      0x00\n        /* \"#utility.yul\":621:622   */\n      0x00\n        /* \"#utility.yul\":614:626   */\n      revert\n        /* \"#utility.yul\":761:881   */\n    tag_97:\n        /* \"#utility.yul\":833:856   */\n      tag_132\n        /* \"#utility.yul\":850:855   */\n      dup2\n        /* \"#utility.yul\":833:856   */\n      tag_92\n      jump\t// in\n    tag_132:\n        /* \"#utility.yul\":826:831   */\n      dup2\n        /* \"#utility.yul\":823:857   */\n      eq\n        /* \"#utility.yul\":813:875   */\n      tag_133\n      jumpi\n        /* \"#utility.yul\":871:872   */\n      0x00\n        /* \"#utility.yul\":868:869   */\n      0x00\n        /* \"#utility.yul\":861:873   */\n      revert\n        /* \"#utility.yul\":813:875   */\n    tag_133:\n        /* \"#utility.yul\":761:881   */\n      pop\n      jump\t// out\n        /* \"#utility.yul\":887:1024   */\n    tag_98:\n        /* \"#utility.yul\":932:937   */\n      0x00\n        /* \"#utility.yul\":970:976   */\n      dup2\n        /* \"#utility.yul\":957:977   */\n      calldataload\n        /* \"#utility.yul\":948:977   */\n      swap1\n      pop\n        /* \"#utility.yul\":986:1018   */\n      tag_135\n        /* \"#utility.yul\":1012:1017   */\n      dup2\n        /* \"#utility.yul\":986:1018   */\n      tag_97\n      jump\t// in\n    tag_135:\n        /* \"#utility.yul\":887:1024   */\n      swap3\n      swap2\n      pop\n      pop\n      jump\t// out\n        /* \"#utility.yul\":1030:1357   */\n    tag_15:\n        /* \"#utility.yul\":1088:1094   */\n      0x00\n        /* \"#utility.yul\":1137:1139   */\n      0x20\n        /* \"#utility.yul\":1125:1134   */\n      dup3\n        /* \"#utility.yul\":1116:1123   */\n      dup5\n        /* \"#utility.yul\":1112:1135   */\n      sub\n        /* \"#utility.yul\":1108:1140   */\n      slt\n        /* \"#utility.yul\":1105:1224   */\n      iszero\n      tag_137\n      jumpi\n        /* \"#utility.yul\":1143:1222   */\n      tag_138\n      tag_95\n      jump\t// in\n    tag_138:\n        /* \"#utility.yul\":1105:1224   */\n    tag_137:\n        /* \"#utility.yul\":1263:1264   */\n      0x00\n        /* \"#utility.yul\":1288:1340   */\n      tag_139\n        /* \"#utility.yul\":1332:1339   */\n      dup5\n        /* \"#utility.yul\":1323:1329   */\n      dup3\n        /* \"#utility.yul\":1312:1321   */\n      dup6\n        /* \"#utility.yul\":1308:1330   */\n      add\n        /* \"#utility.yul\":1288:1340   */\n      tag_98\n      jump\t// in\n    tag_139:\n        /* \"#utility.yul\":1278:1340   */\n      swap2\n      pop\n        /* \"#utility.yul\":1234:1350   */\n      pop\n        /* \"#utility.yul\":1030:1357   */\n      swap3\n      swap2\n      pop\n      pop\n      jump\t// out\n        /* \"#utility.yul\":1363:1462   */\n    tag_99:\n        /* \"#utility.yul\":1415:1421   */\n      0x00\n        /* \"#utility.yul\":1449:1454   */\n      dup2\n        /* \"#utility.yul\":1443:1455   */\n      mload\n        /* \"#utility.yul\":1433:1455   */\n      swap1\n      pop\n        /* \"#utility.yul\":1363:1462   */\n      swap2\n      swap1\n      pop\n      jump\t// out\n        /* \"#utility.yul\":1468:1637   */\n    tag_100:\n        /* \"#utility.yul\":1552:1563   */\n      0x00\n        /* \"#utility.yul\":1586:1592   */\n      dup3\n        /* \"#utility.yul\":1581:1584   */\n      dup3\n        /* \"#utility.yul\":1574:1593   */\n      mstore\n        /* \"#utility.yul\":1626:1630   */\n      0x20\n        /* \"#utility.yul\":1621:1624   */\n      dup3\n        /* \"#utility.yul\":1617:1631   */\n      add\n        /* \"#utility.yul\":1602:1631   */\n      swap1\n      pop\n        /* \"#utility.yul\":1468:1637   */\n      swap3\n      swap2\n      pop\n      pop\n      jump\t// out\n        /* \"#utility.yul\":1643:1782   */\n    tag_101:\n        /* \"#utility.yul\":1732:1738   */\n      dup3\n        /* \"#utility.yul\":1727:1730   */\n      dup2\n        /* \"#utility.yul\":1722:1725   */\n      dup4\n        /* \"#utility.yul\":1716:1739   */\n      mcopy\n        /* \"#utility.yul\":1773:1774   */\n      0x00\n        /* \"#utility.yul\":1764:1770   */\n      dup4\n        /* \"#utility.yul\":1759:1762   */\n      dup4\n        /* \"#utility.yul\":1755:1771   */\n      add\n        /* \"#utility.yul\":1748:1775   */\n      mstore\n        /* \"#utility.yul\":1643:1782   */\n      pop\n      pop\n      pop\n      jump\t// out\n        /* \"#utility.yul\":1788:1890   */\n    tag_102:\n        /* \"#utility.yul\":1829:1835   */\n      0x00\n        /* \"#utility.yul\":1880:1882   */\n      0x1f\n        /* \"#utility.yul\":1876:1883   */\n      not\n        /* \"#utility.yul\":1871:1873   */\n      0x1f\n        /* \"#utility.yul\":1864:1869   */\n      dup4\n        /* \"#utility.yul\":1860:1874   */\n      add\n        /* \"#utility.yul\":1856:1884   */\n      and\n        /* \"#utility.yul\":1846:1884   */\n      swap1\n      pop\n        /* \"#utility.yul\":1788:1890   */\n      swap2\n      swap1\n      pop\n      jump\t// out\n        /* \"#utility.yul\":1896:2273   */\n    tag_103:\n        /* \"#utility.yul\":1984:1987   */\n      0x00\n        /* \"#utility.yul\":2012:2051   */\n      tag_145\n        /* \"#utility.yul\":2045:2050   */\n      dup3\n        /* \"#utility.yul\":2012:2051   */\n      tag_99\n      jump\t// in\n    tag_145:\n        /* \"#utility.yul\":2067:2138   */\n      tag_146\n        /* \"#utility.yul\":2131:2137   */\n      dup2\n        /* \"#utility.yul\":2126:2129   */\n      dup6\n        /* \"#utility.yul\":2067:2138   */\n      tag_100\n      jump\t// in\n    tag_146:\n        /* \"#utility.yul\":2060:2138   */\n      swap4\n      pop\n        /* \"#utility.yul\":2147:2212   */\n      tag_147\n        /* \"#utility.yul\":2205:2211   */\n      dup2\n        /* \"#utility.yul\":2200:2203   */\n      dup6\n        /* \"#utility.yul\":2193:2197   */\n      0x20\n        /* \"#utility.yul\":2186:2191   */\n      dup7\n        /* \"#utility.yul\":2182:2198   */\n      add\n        /* \"#utility.yul\":2147:2212   */\n      tag_101\n      jump\t// in\n    tag_147:\n        /* \"#utility.yul\":2237:2266   */\n      tag_148\n        /* \"#utility.yul\":2259:2265   */\n      dup2\n        /* \"#utility.yul\":2237:2266   */\n      tag_102\n      jump\t// in\n    tag_148:\n        /* \"#utility.yul\":2232:2235   */\n      dup5\n        /* \"#utility.yul\":2228:2267   */\n      add\n        /* \"#utility.yul\":2221:2267   */\n      swap2\n      pop\n        /* \"#utility.yul\":1988:2273   */\n      pop\n        /* \"#utility.yul\":1896:2273   */\n      swap3\n      swap2\n      pop\n      pop\n      jump\t// out\n        /* \"#utility.yul\":2279:2592   */\n    tag_20:\n        /* \"#utility.yul\":2392:2396   */\n      0x00\n        /* \"#utility.yul\":2430:2432   */\n      0x20\n        /* \"#utility.yul\":2419:2428   */\n      dup3\n        /* \"#utility.yul\":2415:2433   */\n      add\n        /* \"#utility.yul\":2407:2433   */\n      swap1\n      pop\n        /* \"#utility.yul\":2479:2488   */\n      dup2\n        /* \"#utility.yul\":2473:2477   */\n      dup2\n        /* \"#utility.yul\":2469:2489   */\n      sub\n        /* \"#utility.yul\":2465:2466   */\n      0x00\n        /* \"#utility.yul\":2454:2463   */\n      dup4\n        /* \"#utility.yul\":2450:2467   */\n      add\n        /* \"#utility.yul\":2443:2490   */\n      mstore\n        /* \"#utility.yul\":2507:2585   */\n      tag_150\n        /* \"#utility.yul\":2580:2584   */\n      dup2\n        /* \"#utility.yul\":2571:2577   */\n      dup5\n        /* \"#utility.yul\":2507:2585   */\n      tag_103\n      jump\t// in\n    tag_150:\n        /* \"#utility.yul\":2499:2585   */\n      swap1\n      pop\n        /* \"#utility.yul\":2279:2592   */\n      swap3\n      swap2\n      pop\n      pop\n      jump\t// out\n        /* \"#utility.yul\":2598:3211   */\n    tag_26:\n        /* \"#utility.yul\":2672:2678   */\n      0x00\n        /* \"#utility.yul\":2680:2686   */\n      0x00\n        /* \"#utility.yul\":2688:2694   */\n      0x00\n        /* \"#utility.yul\":2737:2739   */\n      0x60\n        /* \"#utility.yul\":2725:2734   */\n      dup5\n        /* \"#utility.yul\":2716:2723   */\n      dup7\n        /* \"#utility.yul\":2712:2735   */\n      sub\n        /* \"#utility.yul\":2708:2740   */\n      slt\n        /* \"#utility.yul\":2705:2824   */\n      iszero\n      tag_152\n      jumpi\n        /* \"#utility.yul\":2743:2822   */\n      tag_153\n      tag_95\n      jump\t// in\n    tag_153:\n        /* \"#utility.yul\":2705:2824   */\n    tag_152:\n        /* \"#utility.yul\":2863:2864   */\n      0x00\n        /* \"#utility.yul\":2888:2940   */\n      tag_154\n        /* \"#utility.yul\":2932:2939   */\n      dup7\n        /* \"#utility.yul\":2923:2929   */\n      dup3\n        /* \"#utility.yul\":2912:2921   */\n      dup8\n        /* \"#utility.yul\":2908:2930   */\n      add\n        /* \"#utility.yul\":2888:2940   */\n      tag_98\n      jump\t// in\n    tag_154:\n        /* \"#utility.yul\":2878:2940   */\n      swap4\n      pop\n        /* \"#utility.yul\":2834:2950   */\n      pop\n        /* \"#utility.yul\":2989:2991   */\n      0x20\n        /* \"#utility.yul\":3015:3067   */\n      tag_155\n        /* \"#utility.yul\":3059:3066   */\n      dup7\n        /* \"#utility.yul\":3050:3056   */\n      dup3\n        /* \"#utility.yul\":3039:3048   */\n      dup8\n        /* \"#utility.yul\":3035:3057   */\n      add\n        /* \"#utility.yul\":3015:3067   */\n      tag_98\n      jump\t// in\n    tag_155:\n        /* \"#utility.yul\":3005:3067   */\n      swap3\n      pop\n        /* \"#utility.yul\":2960:3077   */\n      pop\n        /* \"#utility.yul\":3116:3118   */\n      0x40\n        /* \"#utility.yul\":3142:3194   */\n      tag_156\n        /* \"#utility.yul\":3186:3193   */\n      dup7\n        /* \"#utility.yul\":3177:3183   */\n      dup3\n        /* \"#utility.yul\":3166:3175   */\n      dup8\n        /* \"#utility.yul\":3162:3184   */\n      add\n        /* \"#utility.yul\":3142:3194   */\n      tag_98\n      jump\t// in\n    tag_156:\n        /* \"#utility.yul\":3132:3194   */\n      swap2\n      pop\n        /* \"#utility.yul\":3087:3204   */\n      pop\n        /* \"#utility.yul\":2598:3211   */\n      swap3\n      pop\n      swap3\n      pop\n      swap3\n      jump\t// out\n        /* \"#utility.yul\":3217:3397   */\n    tag_104:\n        /* \"#utility.yul\":3265:3342   */\n      0x4e487b7100000000000000000000000000000000000000000000000000000000\n        /* \"#utility.yul\":3262:3263   */\n      0x00\n        /* \"#utility.yul\":3255:3343   */\n      mstore\n        /* \"#utility.yul\":3362:3366   */\n      0x41\n        /* \"#utility.yul\":3359:3360   */\n      0x04\n        /* \"#utility.yul\":3352:3367   */\n      mstore\n        /* \"#utility.yul\":3386:3390   */\n      0x24\n        /* \"#utility.yul\":3383:3384   */\n      0x00\n        /* \"#utility.yul\":3376:3391   */\n      revert\n        /* \"#utility.yul\":3403:3583   */\n    tag_105:\n        /* \"#utility.yul\":3451:3528   */\n      0x4e487b7100000000000000000000000000000000000000000000000000000000\n        /* \"#utility.yul\":3448:3449   */\n      0x00\n        /* \"#utility.yul\":3441:3529   */\n      mstore\n        /* \"#utility.yul\":3548:3552   */\n      0x22\n        /* \"#utility.yul\":3545:3546   */\n      0x04\n        /* \"#utility.yul\":3538:3553   */\n      mstore\n        /* \"#utility.yul\":3572:3576   */\n      0x24\n        /* \"#utility.yul\":3569:3570   */\n      0x00\n        /* \"#utility.yul\":3562:3577   */\n      revert\n        /* \"#utility.yul\":3589:3909   */\n    tag_41:\n        /* \"#utility.yul\":3633:3639   */\n      0x00\n        /* \"#utility.yul\":3670:3671   */\n      0x02\n        /* \"#utility.yul\":3664:3668   */\n      dup3\n        /* \"#utility.yul\":3660:3672   */\n      div\n        /* \"#utility.yul\":3650:3672   */\n      swap1\n      pop\n        /* \"#utility.yul\":3717:3718   */\n      0x01\n        /* \"#utility.yul\":3711:3715   */\n      dup3\n        /* \"#utility.yul\":3707:3719   */\n      and\n        /* \"#utility.yul\":3738:3756   */\n      dup1\n        /* \"#utility.yul\":3728:3809   */\n      tag_160\n      jumpi\n        /* \"#utility.yul\":3794:3798   */\n      0x7f\n        /* \"#utility.yul\":3786:3792   */\n      dup3\n        /* \"#utility.yul\":3782:3799   */\n      and\n        /* \"#utility.yul\":3772:3799   */\n      swap2\n      pop\n        /* \"#utility.yul\":3728:3809   */\n    tag_160:\n        /* \"#utility.yul\":3856:3858   */\n      0x20\n        /* \"#utility.yul\":3848:3854   */\n      dup3\n        /* \"#utility.yul\":3845:3859   */\n      lt\n        /* \"#utility.yul\":3825:3843   */\n      dup2\n        /* \"#utility.yul\":3822:3860   */\n      sub\n        /* \"#utility.yul\":3819:3903   */\n      tag_161\n      jumpi\n        /* \"#utility.yul\":3875:3893   */\n      tag_162\n      tag_105\n      jump\t// in\n    tag_162:\n        /* \"#utility.yul\":3819:3903   */\n    tag_161:\n        /* \"#utility.yul\":3640:3909   */\n      pop\n        /* \"#utility.yul\":3589:3909   */\n      swap2\n      swap1\n      pop\n      jump\t// out\n        /* \"#utility.yul\":3915:4056   */\n    tag_106:\n        /* \"#utility.yul\":3964:3968   */\n      0x00\n        /* \"#utility.yul\":3987:3990   */\n      dup2\n        /* \"#utility.yul\":3979:3990   */\n      swap1\n      pop\n        /* \"#utility.yul\":4010:4013   */\n      dup2\n        /* \"#utility.yul\":4007:4008   */\n      0x00\n        /* \"#utility.yul\":4000:4014   */\n      mstore\n        /* \"#utility.yul\":4044:4048   */\n      0x20\n        /* \"#utility.yul\":4041:4042   */\n      0x00\n        /* \"#utility.yul\":4031:4049   */\n      keccak256\n        /* \"#utility.yul\":4023:4049   */\n      swap1\n      pop\n        /* \"#utility.yul\":3915:4056   */\n      swap2\n      swap1\n      pop\n      jump\t// out\n        /* \"#utility.yul\":4062:4155   */\n    tag_107:\n        /* \"#utility.yul\":4099:4105   */\n      0x00\n        /* \"#utility.yul\":4146:4148   */\n      0x20\n        /* \"#utility.yul\":4141:4143   */\n      0x1f\n        /* \"#utility.yul\":4134:4139   */\n      dup4\n        /* \"#utility.yul\":4130:4144   */\n      add\n        /* \"#utility.yul\":4126:4149   */\n      div\n        /* \"#utility.yul\":4116:4149   */\n      swap1\n      pop\n        /* \"#utility.yul\":4062:4155   */\n      swap2\n      swap1\n      pop\n      jump\t// out\n        /* \"#utility.yul\":4161:4268   */\n    tag_108:\n        /* \"#utility.yul\":4205:4213   */\n      0x00\n        /* \"#utility.yul\":4255:4260   */\n      dup3\n        /* \"#utility.yul\":4249:4253   */\n      dup3\n        /* \"#utility.yul\":4245:4261   */\n      shl\n        /* \"#utility.yul\":4224:4261   */\n      swap1\n      pop\n        /* \"#utility.yul\":4161:4268   */\n      swap3\n      swap2\n      pop\n      pop\n      jump\t// out\n        /* \"#utility.yul\":4274:4667   */\n    tag_109:\n        /* \"#utility.yul\":4343:4349   */\n      0x00\n        /* \"#utility.yul\":4393:4394   */\n      0x08\n        /* \"#utility.yul\":4381:4391   */\n      dup4\n        /* \"#utility.yul\":4377:4395   */\n      mul\n        /* \"#utility.yul\":4416:4513   */\n      tag_167\n        /* \"#utility.yul\":4446:4512   */\n      0xffffffffffffffffffffffffffffffffffffffffffffffffffffffffffffffff\n        /* \"#utility.yul\":4435:4444   */\n      dup3\n        /* \"#utility.yul\":4416:4513   */\n      tag_108\n      jump\t// in\n    tag_167:\n        /* \"#utility.yul\":4534:4573   */\n      tag_168\n        /* \"#utility.yul\":4564:4572   */\n      dup7\n        /* \"#utility.yul\":4553:4562   */\n      dup4\n        /* \"#utility.yul\":4534:4573   */\n      tag_108\n      jump\t// in\n    tag_168:\n        /* \"#utility.yul\":4522:4573   */\n      swap6\n      pop\n        /* \"#utility.yul\":4606:4610   */\n      dup1\n        /* \"#utility.yul\":4602:4611   */\n      not\n        /* \"#utility.yul\":4595:4600   */\n      dup5\n        /* \"#utility.yul\":4591:4612   */\n      and\n        /* \"#utility.yul\":4582:4612   */\n      swap4\n      pop\n        /* \"#utility.yul\":4655:4659   */\n      dup1\n        /* \"#utility.yul\":4645:4653   */\n      dup7\n        /* \"#utility.yul\":4641:4660   */\n      and\n        /* \"#utility.yul\":4634:4639   */\n      dup5\n        /* \"#utility.yul\":4631:4661   */\n      or\n        /* \"#utility.yul\":4621:4661   */\n      swap3\n      pop\n        /* \"#utility.yul\":4350:4667   */\n      pop\n      pop\n        /* \"#utility.yul\":4274:4667   */\n      swap4\n      swap3\n      pop\n      pop\n      pop\n      jump\t// out\n        /* \"#utility.yul\":4673:4750   */\n    tag_110:\n        /* \"#utility.yul\":4710:4717   */\n      0x00\n        /* \"#utility.yul\":4739:4744   */\n      dup2\n        /* \"#utility.yul\":4728:4744   */\n      swap1\n      pop\n        /* \"#utility.yul\":4673:4750   */\n      swap2\n      swap1\n      pop\n      jump\t// out\n        /* \"#utility.yul\":4756:4816   */\n    tag_111:\n        /* \"#utility.yul\":4784:4787   */\n      0x00\n        /* \"#utility.yul\":4805:4810   */\n      dup2\n        /* \"#utility.yul\":4798:4810   */\n      swap1\n      pop\n        /* \"#utility.yul\":4756:4816   */\n      swap2\n      swap1\n      pop\n      jump\t// out\n        /* \"#utility.yul\":4822:4964   */\n    tag_112:\n        /* \"#utility.yul\":4872:4881   */\n      0x00\n        /* \"#utility.yul\":4905:4958   */\n      tag_172\n        /* \"#utility.yul\":4923:4957   */\n      tag_173\n        /* \"#utility.yul\":4932:4956   */\n      tag_174\n        /* \"#utility.yul\":4950:4955   */\n      dup5\n        /* \"#utility.yul\":4932:4956   */\n      tag_110\n      jump\t// in\n    tag_174:\n        /* \"#utility.yul\":4923:4957   */\n      tag_111\n      jump\t// in\n    tag_173:\n        /* \"#utility.yul\":4905:4958   */\n      tag_110\n      jump\t// in\n    tag_172:\n        /* \"#utility.yul\":4892:4958   */\n      swap1\n      pop\n        /* \"#utility.yul\":4822:4964   */\n      swap2\n      swap1\n      pop\n      jump\t// out\n        /* \"#utility.yul\":4970:5045   */\n    tag_113:\n        /* \"#utility.yul\":5013:5016   */\n      0x00\n        /* \"#utility.yul\":5034:5039   */\n      dup2\n        /* \"#utility.yul\":5027:5039   */\n      swap1\n      pop\n        /* \"#utility.yul\":4970:5045   */\n      swap2\n      swap1\n      pop\n      jump\t// out\n        /* \"#utility.yul\":5051:5320   */\n    tag_114:\n        /* \"#utility.yul\":5161:5200   */\n      tag_177\n        /* \"#utility.yul\":5192:5199   */\n      dup4\n        /* \"#utility.yul\":5161:5200   */\n      tag_112\n      jump\t// in\n    tag_177:\n        /* \"#utility.yul\":5222:5313   */\n      tag_178\n        /* \"#utility.yul\":5271:5312   */\n      tag_179\n        /* \"#utility.yul\":5295:5311   */\n      dup3\n        /* \"#utility.yul\":5271:5312   */\n      tag_113\n      jump\t// in\n    tag_179:\n        /* \"#utility.yul\":5263:5269   */\n      dup5\n        /* \"#utility.yul\":5256:5260   */\n      dup5\n        /* \"#utility.yul\":5250:5261   */\n      sload\n        /* \"#utility.yul\":5222:5313   */\n      tag_109\n      jump\t// in\n    tag_178:\n        /* \"#utility.yul\":5216:5220   */\n      dup3\n        /* \"#utility.yul\":5209:5314   */\n      sstore\n        /* \"#utility.yul\":5127:5320   */\n      pop\n        /* \"#utility.yul\":5051:5320   */\n      pop\n      pop\n      pop\n      jump\t// out\n        /* \"#utility.yul\":5326:5399   */\n    tag_115:\n        /* \"#utility.yul\":5371:5374   */\n      0x00\n        /* \"#utility.yul\":5392:5393   */\n      0x00\n        /* \"#utility.yul\":5385:5393   */\n      swap1\n      pop\n        /* \"#utility.yul\":5326:5399   */\n      swap1\n      jump\t// out\n        /* \"#utility.yul\":5405:5594   */\n    tag_116:\n        /* \"#utility.yul\":5482:5514   */\n      tag_182\n      tag_115\n      jump\t// in\n    tag_182:\n        /* \"#utility.yul\":5523:5588   */\n      tag_183\n        /* \"#utility.yul\":5581:5587   */\n      dup2\n        /* \"#utility.yul\":5573:5579   */\n      dup5\n        /* \"#utility.yul\":5567:5571   */\n      dup5\n        /* \"#utility.yul\":5523:5588   */\n      tag_114\n      jump\t// in\n    tag_183:\n        /* \"#utility.yul\":5458:5594   */\n      pop\n        /* \"#utility.yul\":5405:5594   */\n      pop\n      pop\n      jump\t// out\n        /* \"#utility.yul\":5600:5786   */\n    tag_117:\n        /* \"#utility.yul\":5660:5780   */\n    tag_185:\n        /* \"#utility.yul\":5677:5680   */\n      dup2\n        /* \"#utility.yul\":5670:5675   */\n      dup2\n        /* \"#utility.yul\":5667:5681   */\n      lt\n        /* \"#utility.yul\":5660:5780   */\n      iszero\n      tag_187\n      jumpi\n        /* \"#utility.yul\":5731:5770   */\n      tag_188\n        /* \"#utility.yul\":5768:5769   */\n      0x00\n        /* \"#utility.yul\":5761:5766   */\n      dup3\n        /* \"#utility.yul\":5731:5770   */\n      tag_116\n      jump\t// in\n    tag_188:\n        /* \"#utility.yul\":5704:5705   */\n      0x01\n        /* \"#utility.yul\":5697:5702   */\n      dup2\n        /* \"#utility.yul\":5693:5706   */\n      add\n        /* \"#utility.yul\":5684:5706   */\n      swap1\n      pop\n        /* \"#utility.yul\":5660:5780   */\n      jump(tag_185)\n    tag_187:\n        /* \"#utility.yul\":5600:5786   */\n      pop\n      pop\n      jump\t// out\n        /* \"#utility.yul\":5792:6335   */\n    tag_118:\n        /* \"#utility.yul\":5893:5895   */\n      0x1f\n        /* \"#utility.yul\":5888:5891   */\n      dup3\n        /* \"#utility.yul\":5885:5896   */\n      gt\n        /* \"#utility.yul\":5882:6328   */\n      iszero\n      tag_190\n      jumpi\n        /* \"#utility.yul\":5927:5965   */\n      tag_191\n        /* \"#utility.yul\":5959:5964   */\n      dup2\n        /* \"#utility.yul\":5927:5965   */\n      tag_106\n      jump\t// in\n    tag_191:\n        /* \"#utility.yul\":6011:6040   */\n      tag_192\n        /* \"#utility.yul\":6029:6039   */\n      dup5\n        /* \"#utility.yul\":6011:6040   */\n      tag_107\n      jump\t// in\n    tag_192:\n        /* \"#utility.yul\":6001:6009   */\n      dup2\n        /* \"#utility.yul\":5997:6041   */\n      add\n        /* \"#utility.yul\":6194:6196   */\n      0x20\n        /* \"#utility.yul\":6182:6192   */\n      dup6\n        /* \"#utility.yul\":6179:6197   */\n      lt\n        /* \"#utility.yul\":6176:6225   */\n      iszero\n      tag_193\n      jumpi\n        /* \"#utility.yul\":6215:6223   */\n      dup2\n        /* \"#utility.yul\":6200:6223   */\n      swap1\n      pop\n        /* \"#utility.yul\":6176:6225   */\n    tag_193:\n        /* \"#utility.yul\":6238:6318   */\n      tag_194\n        /* \"#utility.yul\":6294:6316   */\n      tag_195\n        /* \"#utility.yul\":6312:6315   */\n      dup6\n        /* \"#utility.yul\":6294:6316   */\n      tag_107\n      jump\t// in\n    tag_195:\n        /* \"#utility.yul\":6284:6292   */\n      dup4\n        /* \"#utility.yul\":6280:6317   */\n      add\n        /* \"#utility.yul\":6267:6278   */\n      dup3\n        /* \"#utility.yul\":6238:6318   */\n      tag_117\n      jump\t// in\n    tag_194:\n        /* \"#utility.yul\":5897:6328   */\n      pop\n      pop\n        /* \"#utility.yul\":5882:6328   */\n    tag_190:\n        /* \"#utility.yul\":5792:6335   */\n      pop\n      pop\n      pop\n      jump\t// out\n        /* \"#utility.yul\":6341:6458   */\n    tag_119:\n        /* \"#utility.yul\":6395:6403   */\n      0x00\n        /* \"#utility.yul\":6445:6450   */\n      dup3\n        /* \"#utility.yul\":6439:6443   */\n      dup3\n        /* \"#utility.yul\":6435:6451   */\n      shr\n        /* \"#utility.yul\":6414:6451   */\n      swap1\n      pop\n        /* \"#utility.yul\":6341:6458   */\n      swap3\n      swap2\n      pop\n      pop\n      jump\t// out\n        /* \"#utility.yul\":6464:6633   */\n    tag_120:\n        /* \"#utility.yul\":6508:6514   */\n      0x00\n        /* \"#utility.yul\":6541:6592   */\n      tag_198\n        /* \"#utility.yul\":6589:6590   */\n      0x00\n        /* \"#utility.yul\":6585:6591   */\n      not\n        /* \"#utility.yul\":6577:6582   */\n      dup5\n        /* \"#utility.yul\":6574:6575   */\n      0x08\n        /* \"#utility.yul\":6570:6583   */\n      mul\n        /* \"#utility.yul\":6541:6592   */\n      tag_119\n      jump\t// in\n    tag_198:\n        /* \"#utility.yul\":6537:6593   */\n      not\n        /* \"#utility.yul\":6622:6626   */\n      dup1\n        /* \"#utility.yul\":6616:6620   */\n      dup4\n        /* \"#utility.yul\":6612:6627   */\n      and\n        /* \"#utility.yul\":6602:6627   */\n      swap2\n      pop\n        /* \"#utility.yul\":6515:6633   */\n      pop\n        /* \"#utility.yul\":6464:6633   */\n      swap3\n      swap2\n      pop\n      pop\n      jump\t// out\n        /* \"#utility.yul\":6638:6933   */\n    tag_121:\n        /* \"#utility.yul\":6714:6718   */\n      0x00\n        /* \"#utility.yul\":6860:6889   */\n      tag_200\n        /* \"#utility.yul\":6885:6888   */\n      dup4\n        /* \"#utility.yul\":6879:6883   */\n      dup4\n        /* \"#utility.yul\":6860:6889   */\n      tag_120\n      jump\t// in\n    tag_200:\n        /* \"#utility.yul\":6852:6889   */\n      swap2\n      pop\n        /* \"#utility.yul\":6922:6925   */\n      dup3\n        /* \"#utility.yul\":6919:6920   */\n      0x02\n        /* \"#utility.yul\":6915:6926   */\n      mul\n        /* \"#utility.yul\":6909:6913   */\n      dup3\n        /* \"#utility.yul\":6906:6927   */\n      or\n        /* \"#utility.yul\":6898:6927   */\n      swap1\n      pop\n        /* \"#utility.yul\":6638:6933   */\n      swap3\n      swap2\n      pop\n      pop\n      jump\t// out\n        /* \"#utility.yul\":6938:8333   */\n    tag_34:\n        /* \"#utility.yul\":7055:7092   */\n      tag_202\n        /* \"#utility.yul\":7088:7091   */\n      dup3\n        /* \"#utility.yul\":7055:7092   */\n      tag_99\n      jump\t// in\n    tag_202:\n        /* \"#utility.yul\":7157:7175   */\n      0xffffffffffffffff\n        /* \"#utility.yul\":7149:7155   */\n      dup2\n        /* \"#utility.yul\":7146:7176   */\n      gt\n        /* \"#utility.yul\":7143:7199   */\n      iszero\n      tag_203\n      jumpi\n        /* \"#utility.yul\":7179:7197   */\n      tag_204\n      tag_104\n      jump\t// in\n    tag_204:\n        /* \"#utility.yul\":7143:7199   */\n    tag_203:\n        /* \"#utility.yul\":7223:7261   */\n      tag_205\n        /* \"#utility.yul\":7255:7259   */\n      dup3\n        /* \"#utility.yul\":7249:7260   */\n      sload\n        /* \"#utility.yul\":7223:7261   */\n      tag_41\n      jump\t// in\n    tag_205:\n        /* \"#utility.yul\":7308:7375   */\n      tag_206\n        /* \"#utility.yul\":7368:7374   */\n      dup3\n        /* \"#utility.yul\":7360:7366   */\n      dup3\n        /* \"#utility.yul\":7354:7358   */\n      dup6\n        /* \"#utility.yul\":7308:7375   */\n      tag_118\n      jump\t// in\n    tag_206:\n        /* \"#utility.yul\":7402:7403   */\n      0x00\n        /* \"#utility.yul\":7426:7430   */\n      0x20\n        /* \"#utility.yul\":7413:7430   */\n      swap1\n      pop\n        /* \"#utility.yul\":7458:7460   */\n      0x1f\n        /* \"#utility.yul\":7450:7456   */\n      dup4\n        /* \"#utility.yul\":7447:7461   */\n      gt\n        /* \"#utility.yul\":7475:7476   */\n      0x01\n        /* \"#utility.yul\":7470:8088   */\n      dup2\n      eq\n      tag_208\n      jumpi\n        /* \"#utility.yul\":8132:8133   */\n      0x00\n        /* \"#utility.yul\":8149:8155   */\n      dup5\n        /* \"#utility.yul\":8146:8223   */\n      iszero\n      tag_209\n      jumpi\n        /* \"#utility.yul\":8198:8207   */\n      dup3\n        /* \"#utility.yul\":8193:8196   */\n      dup8\n        /* \"#utility.yul\":8189:8208   */\n      add\n        /* \"#utility.yul\":8183:8209   */\n      mload\n        /* \"#utility.yul\":8174:8209   */\n      swap1\n      pop\n        /* \"#utility.yul\":8146:8223   */\n    tag_209:\n        /* \"#utility.yul\":8249:8316   */\n      tag_210\n        /* \"#utility.yul\":8309:8315   */\n      dup6\n        /* \"#utility.yul\":8302:8307   */\n      dup3\n        /* \"#utility.yul\":8249:8316   */\n      tag_121\n      jump\t// in\n    tag_210:\n        /* \"#utility.yul\":8243:8247   */\n      dup7\n        /* \"#utility.yul\":8236:8317   */\n      sstore\n        /* \"#utility.yul\":8105:8327   */\n      pop\n        /* \"#utility.yul\":7440:8327   */\n      jump(tag_207)\n        /* \"#utility.yul\":7470:8088   */\n    tag_208:\n        /* \"#utility.yul\":7522:7526   */\n      0x1f\n        /* \"#utility.yul\":7518:7527   */\n      not\n        /* \"#utility.yul\":7510:7516   */\n      dup5\n        /* \"#utility.yul\":7506:7528   */\n      and\n        /* \"#utility.yul\":7556:7593   */\n      tag_211\n        /* \"#utility.yul\":7588:7592   */\n      dup7\n        /* \"#utility.yul\":7556:7593   */\n      tag_106\n      jump\t// in\n    tag_211:\n        /* \"#utility.yul\":7615:7616   */\n      0x00\n        /* \"#utility.yul\":7629:7837   */\n    tag_212:\n        /* \"#utility.yul\":7643:7650   */\n      dup3\n        /* \"#utility.yul\":7640:7641   */\n      dup2\n        /* \"#utility.yul\":7637:7651   */\n      lt\n        /* \"#utility.yul\":7629:7837   */\n      iszero\n      tag_214\n      jumpi\n        /* \"#utility.yul\":7722:7731   */\n      dup5\n        /* \"#utility.yul\":7717:7720   */\n      dup10\n        /* \"#utility.yul\":7713:7732   */\n      add\n        /* \"#utility.yul\":7707:7733   */\n      mload\n        /* \"#utility.yul\":7699:7705   */\n      dup3\n        /* \"#utility.yul\":7692:7734   */\n      sstore\n        /* \"#utility.yul\":7773:7774   */\n      0x01\n        /* \"#utility.yul\":7765:7771   */\n      dup3\n        /* \"#utility.yul\":7761:7775   */\n      add\n        /* \"#utility.yul\":7751:7775   */\n      swap2\n      pop\n        /* \"#utility.yul\":7820:7822   */\n      0x20\n        /* \"#utility.yul\":7809:7818   */\n      dup6\n        /* \"#utility.yul\":7805:7823   */\n      add\n        /* \"#utility.yul\":7792:7823   */\n      swap5\n      pop\n        /* \"#utility.yul\":7666:7670   */\n      0x20\n        /* \"#utility.yul\":7663:7664   */\n      dup2\n        /* \"#utility.yul\":7659:7671   */\n      add\n        /* \"#utility.yul\":7654:7671   */\n      swap1\n      pop\n        /* \"#utility.yul\":7629:7837   */\n      jump(tag_212)\n    tag_214:\n        /* \"#utility.yul\":7865:7871   */\n      dup7\n        /* \"#utility.yul\":7856:7863   */\n      dup4\n        /* \"#utility.yul\":7853:7872   */\n      lt\n        /* \"#utility.yul\":7850:8029   */\n      iszero\n      tag_215\n      jumpi\n        /* \"#utility.yul\":7923:7932   */\n      dup5\n        /* \"#utility.yul\":7918:7921   */\n      dup10\n        /* \"#utility.yul\":7914:7933   */\n      add\n        /* \"#utility.yul\":7908:7934   */\n      mload\n        /* \"#utility.yul\":7966:8014   */\n      tag_216\n        /* \"#utility.yul\":8008:8012   */\n      0x1f\n        /* \"#utility.yul\":8000:8006   */\n      dup10\n        /* \"#utility.yul\":7996:8013   */\n      and\n        /* \"#utility.yul\":7985:7994   */\n      dup3\n        /* \"#utility.yul\":7966:8014   */\n      tag_120\n      jump\t// in\n    tag_216:\n        /* \"#utility.yul\":7958:7964   */\n      dup4\n        /* \"#utility.yul\":7951:8015   */\n      sstore\n        /* \"#utility.yul\":7873:8029   */\n      pop\n        /* \"#utility.yul\":7850:8029   */\n    tag_215:\n        /* \"#utility.yul\":8075:8076   */\n      0x01\n        /* \"#utility.yul\":8071:8072   */\n      0x02\n        /* \"#utility.yul\":8063:8069   */\n      dup9\n        /* \"#utility.yul\":8059:8073   */\n      mul\n        /* \"#utility.yul\":8055:8077   */\n      add\n        /* \"#utility.yul\":8049:8053   */\n      dup9\n        /* \"#utility.yul\":8042:8078   */\n      sstore\n        /* \"#utility.yul\":7477:8088   */\n      pop\n      pop\n      pop\n        /* \"#utility.yul\":7440:8327   */\n    tag_207:\n      pop\n        /* \"#utility.yul\":7030:8333   */\n      pop\n      pop\n      pop\n        /* \"#utility.yul\":6938:8333   */\n      pop\n      pop\n      jump\t// out\n\n    auxdata: 0xa2646970667358221220dbcf5f9c1e3485f4613ed313edcf0b4ef2d38cbd3817308371d93be1f5965d4164736f6c634300081c0033\n}\n",
				"bytecode": {
					"linkReferences": {},
					"object": "6080604052348015600e575f5ffd5b50610ba88061001c5f395ff3fe608060405234801561000f575f5ffd5b5060043610610060575f3560e01c806303f233cd14610064578063294fe43b14610082578063602ec5c81461009e578063af3fbef8146100bc578063c821075f146100d8578063edad6531146100f4575b5f5ffd5b61006c610112565b604051610079919061071e565b60405180910390f35b61009c60048036038101906100979190610765565b610117565b005b6100a6610205565b6040516100b39190610800565b60405180910390f35b6100d660048036038101906100d19190610765565b610291565b005b6100f260048036038101906100ed9190610820565b61062d565b005b6100fc61067a565b6040516101099190610800565b60405180910390f35b5f5481565b5f811315610169576040518060400160405280600881526020017f706f736974697665000000000000000000000000000000000000000000000000815250600290816101639190610aa3565b50610202565b5f8112156101bb576040518060400160405280600881526020017f6e65676174697665000000000000000000000000000000000000000000000000815250600290816101b59190610aa3565b50610201565b6040518060400160405280600481526020017f7a65726f00000000000000000000000000000000000000000000000000000000815250600290816101ff9190610aa3565b505b5b50565b60018054610212906108ca565b80601f016020809104026020016040519081016040528092919081815260200182805461023e906108ca565b80156102895780601f1061026057610100808354040283529160200191610289565b820191905f5260205f20905b81548152906001019060200180831161026c57829003601f168201915b505050505081565b5f81121580156102a2575060098113155b156105e4575f81036102f8576040518060400160405280600481526020017f7a65726f00000000000000000000000000000000000000000000000000000000815250600190816102f29190610aa3565b506105df565b6001810361034a576040518060400160405280600381526020017f6f6e650000000000000000000000000000000000000000000000000000000000815250600190816103449190610aa3565b506105de565b6002810361039c576040518060400160405280600381526020017f74776f0000000000000000000000000000000000000000000000000000000000815250600190816103969190610aa3565b506105dd565b600381036103ee576040518060400160405280600581526020017f7468726565000000000000000000000000000000000000000000000000000000815250600190816103e89190610aa3565b506105dc565b60048103610440576040518060400160405280600481526020017f666f7572000000000000000000000000000000000000000000000000000000008152506001908161043a9190610aa3565b506105db565b60058103610492576040518060400160405280600481526020017f66697665000000000000000000000000000000000000000000000000000000008152506001908161048c9190610aa3565b506105da565b600681036104e4576040518060400160405280600381526020017f7369780000000000000000000000000000000000000000000000000000000000815250600190816104de9190610aa3565b506105d9565b60078103610536576040518060400160405280600581526020017f736576656e000000000000000000000000000000000000000000000000000000815250600190816105309190610aa3565b506105d8565b60088103610588576040518060400160405280600581526020017f6569676874000000000000000000000000000000000000000000000000000000815250600190816105829190610aa3565b506105d7565b600981036105d6576040518060400160405280600481526020017f6e696e6500000000000000000000000000000000000000000000000000000000815250600190816105d49190610aa3565b505b5b5b5b5b5b5b5b5b5b61062a565b6040518060400160405280600d81526020017f696e76616c696420496e70757400000000000000000000000000000000000000815250600190816106289190610aa3565b505b50565b81831215801561063d5750808312155b1561064d57825f81905550610675565b82821215801561065d5750808212155b1561066d57815f81905550610674565b805f819055505b5b505050565b60028054610687906108ca565b80601f01602080910402602001604051908101604052809291908181526020018280546106b3906108ca565b80156106fe5780601f106106d5576101008083540402835291602001916106fe565b820191905f5260205f20905b8154815290600101906020018083116106e157829003601f168201915b505050505081565b5f819050919050565b61071881610706565b82525050565b5f6020820190506107315f83018461070f565b92915050565b5f5ffd5b61074481610706565b811461074e575f5ffd5b50565b5f8135905061075f8161073b565b92915050565b5f6020828403121561077a57610779610737565b5b5f61078784828501610751565b91505092915050565b5f81519050919050565b5f82825260208201905092915050565b8281835e5f83830152505050565b5f601f19601f8301169050919050565b5f6107d282610790565b6107dc818561079a565b93506107ec8185602086016107aa565b6107f5816107b8565b840191505092915050565b5f6020820190508181035f83015261081881846107c8565b905092915050565b5f5f5f6060848603121561083757610836610737565b5b5f61084486828701610751565b935050602061085586828701610751565b925050604061086686828701610751565b9150509250925092565b7f4e487b71000000000000000000000000000000000000000000000000000000005f52604160045260245ffd5b7f4e487b71000000000000000000000000000000000000000000000000000000005f52602260045260245ffd5b5f60028204905060018216806108e157607f821691505b6020821081036108f4576108f361089d565b5b50919050565b5f819050815f5260205f209050919050565b5f6020601f8301049050919050565b5f82821b905092915050565b5f600883026109567fffffffffffffffffffffffffffffffffffffffffffffffffffffffffffffffff8261091b565b610960868361091b565b95508019841693508086168417925050509392505050565b5f819050919050565b5f819050919050565b5f6109a461099f61099a84610978565b610981565b610978565b9050919050565b5f819050919050565b6109bd8361098a565b6109d16109c9826109ab565b848454610927565b825550505050565b5f5f905090565b6109e86109d9565b6109f38184846109b4565b505050565b5b81811015610a1657610a0b5f826109e0565b6001810190506109f9565b5050565b601f821115610a5b57610a2c816108fa565b610a358461090c565b81016020851015610a44578190505b610a58610a508561090c565b8301826109f8565b50505b505050565b5f82821c905092915050565b5f610a7b5f1984600802610a60565b1980831691505092915050565b5f610a938383610a6c565b9150826002028217905092915050565b610aac82610790565b67ffffffffffffffff811115610ac557610ac4610870565b5b610acf82546108ca565b610ada828285610a1a565b5f60209050601f831160018114610b0b575f8415610af9578287015190505b610b038582610a88565b865550610b6a565b601f198416610b19866108fa565b5f5b82811015610b4057848901518255600182019150602085019450602081019050610b1b565b86831015610b5d5784890151610b59601f891682610a6c565b8355505b6001600288020188555050505b50505050505056fea2646970667358221220dbcf5f9c1e3485f4613ed313edcf0b4ef2d38cbd3817308371d93be1f5965d4164736f6c634300081c0033",
					"opcodes": "PUSH1 0x80 PUSH1 0x40 MSTORE CALLVALUE DUP1 ISZERO PUSH1 0xE JUMPI PUSH0 PUSH0 REVERT JUMPDEST POP PUSH2 0xBA8 DUP1 PUSH2 0x1C PUSH0 CODECOPY PUSH0 RETURN INVALID PUSH1 0x80 PUSH1 0x40 MSTORE CALLVALUE DUP1 ISZERO PUSH2 0xF JUMPI PUSH0 PUSH0 REVERT JUMPDEST POP PUSH1 0x4 CALLDATASIZE LT PUSH2 0x60 JUMPI PUSH0 CALLDATALOAD PUSH1 0xE0 SHR DUP1 PUSH4 0x3F233CD EQ PUSH2 0x64 JUMPI DUP1 PUSH4 0x294FE43B EQ PUSH2 0x82 JUMPI DUP1 PUSH4 0x602EC5C8 EQ PUSH2 0x9E JUMPI DUP1 PUSH4 0xAF3FBEF8 EQ PUSH2 0xBC JUMPI DUP1 PUSH4 0xC821075F EQ PUSH2 0xD8 JUMPI DUP1 PUSH4 0xEDAD6531 EQ PUSH2 0xF4 JUMPI JUMPDEST PUSH0 PUSH0 REVERT JUMPDEST PUSH2 0x6C PUSH2 0x112 JUMP JUMPDEST PUSH1 0x40 MLOAD PUSH2 0x79 SWAP2 SWAP1 PUSH2 0x71E JUMP JUMPDEST PUSH1 0x40 MLOAD DUP1 SWAP2 SUB SWAP1 RETURN JUMPDEST PUSH2 0x9C PUSH1 0x4 DUP1 CALLDATASIZE SUB DUP2 ADD SWAP1 PUSH2 0x97 SWAP2 SWAP1 PUSH2 0x765 JUMP JUMPDEST PUSH2 0x117 JUMP JUMPDEST STOP JUMPDEST PUSH2 0xA6 PUSH2 0x205 JUMP JUMPDEST PUSH1 0x40 MLOAD PUSH2 0xB3 SWAP2 SWAP1 PUSH2 0x800 JUMP JUMPDEST PUSH1 0x40 MLOAD DUP1 SWAP2 SUB SWAP1 RETURN JUMPDEST PUSH2 0xD6 PUSH1 0x4 DUP1 CALLDATASIZE SUB DUP2 ADD SWAP1 PUSH2 0xD1 SWAP2 SWAP1 PUSH2 0x765 JUMP JUMPDEST PUSH2 0x291 JUMP JUMPDEST STOP JUMPDEST PUSH2 0xF2 PUSH1 0x4 DUP1 CALLDATASIZE SUB DUP2 ADD SWAP1 PUSH2 0xED SWAP2 SWAP1 PUSH2 0x820 JUMP JUMPDEST PUSH2 0x62D JUMP JUMPDEST STOP JUMPDEST PUSH2 0xFC PUSH2 0x67A JUMP JUMPDEST PUSH1 0x40 MLOAD PUSH2 0x109 SWAP2 SWAP1 PUSH2 0x800 JUMP JUMPDEST PUSH1 0x40 MLOAD DUP1 SWAP2 SUB SWAP1 RETURN JUMPDEST PUSH0 SLOAD DUP2 JUMP JUMPDEST PUSH0 DUP2 SGT ISZERO PUSH2 0x169 JUMPI PUSH1 0x40 MLOAD DUP1 PUSH1 0x40 ADD PUSH1 0x40 MSTORE DUP1 PUSH1 0x8 DUP2 MSTORE PUSH1 0x20 ADD PUSH32 0x706F736974697665000000000000000000000000000000000000000000000000 DUP2 MSTORE POP PUSH1 0x2 SWAP1 DUP2 PUSH2 0x163 SWAP2 SWAP1 PUSH2 0xAA3 JUMP JUMPDEST POP PUSH2 0x202 JUMP JUMPDEST PUSH0 DUP2 SLT ISZERO PUSH2 0x1BB JUMPI PUSH1 0x40 MLOAD DUP1 PUSH1 0x40 ADD PUSH1 0x40 MSTORE DUP1 PUSH1 0x8 DUP2 MSTORE PUSH1 0x20 ADD PUSH32 0x6E65676174697665000000000000000000000000000000000000000000000000 DUP2 MSTORE POP PUSH1 0x2 SWAP1 DUP2 PUSH2 0x1B5 SWAP2 SWAP1 PUSH2 0xAA3 JUMP JUMPDEST POP PUSH2 0x201 JUMP JUMPDEST PUSH1 0x40 MLOAD DUP1 PUSH1 0x40 ADD PUSH1 0x40 MSTORE DUP1 PUSH1 0x4 DUP2 MSTORE PUSH1 0x20 ADD PUSH32 0x7A65726F00000000000000000000000000000000000000000000000000000000 DUP2 MSTORE POP PUSH1 0x2 SWAP1 DUP2 PUSH2 0x1FF SWAP2 SWAP1 PUSH2 0xAA3 JUMP JUMPDEST POP JUMPDEST JUMPDEST POP JUMP JUMPDEST PUSH1 0x1 DUP1 SLOAD PUSH2 0x212 SWAP1 PUSH2 0x8CA JUMP JUMPDEST DUP1 PUSH1 0x1F ADD PUSH1 0x20 DUP1 SWAP2 DIV MUL PUSH1 0x20 ADD PUSH1 0x40 MLOAD SWAP1 DUP2 ADD PUSH1 0x40 MSTORE DUP1 SWAP3 SWAP2 SWAP1 DUP2 DUP2 MSTORE PUSH1 0x20 ADD DUP3 DUP1 SLOAD PUSH2 0x23E SWAP1 PUSH2 0x8CA JUMP JUMPDEST DUP1 ISZERO PUSH2 0x289 JUMPI DUP1 PUSH1 0x1F LT PUSH2 0x260 JUMPI PUSH2 0x100 DUP1 DUP4 SLOAD DIV MUL DUP4 MSTORE SWAP2 PUSH1 0x20 ADD SWAP2 PUSH2 0x289 JUMP JUMPDEST DUP3 ADD SWAP2 SWAP1 PUSH0 MSTORE PUSH1 0x20 PUSH0 KECCAK256 SWAP1 JUMPDEST DUP2 SLOAD DUP2 MSTORE SWAP1 PUSH1 0x1 ADD SWAP1 PUSH1 0x20 ADD DUP1 DUP4 GT PUSH2 0x26C JUMPI DUP3 SWAP1 SUB PUSH1 0x1F AND DUP3 ADD SWAP2 JUMPDEST POP POP POP POP POP DUP2 JUMP JUMPDEST PUSH0 DUP2 SLT ISZERO DUP1 ISZERO PUSH2 0x2A2 JUMPI POP PUSH1 0x9 DUP2 SGT ISZERO JUMPDEST ISZERO PUSH2 0x5E4 JUMPI PUSH0 DUP2 SUB PUSH2 0x2F8 JUMPI PUSH1 0x40 MLOAD DUP1 PUSH1 0x40 ADD PUSH1 0x40 MSTORE DUP1 PUSH1 0x4 DUP2 MSTORE PUSH1 0x20 ADD PUSH32 0x7A65726F00000000000000000000000000000000000000000000000000000000 DUP2 MSTORE POP PUSH1 0x1 SWAP1 DUP2 PUSH2 0x2F2 SWAP2 SWAP1 PUSH2 0xAA3 JUMP JUMPDEST POP PUSH2 0x5DF JUMP JUMPDEST PUSH1 0x1 DUP2 SUB PUSH2 0x34A JUMPI PUSH1 0x40 MLOAD DUP1 PUSH1 0x40 ADD PUSH1 0x40 MSTORE DUP1 PUSH1 0x3 DUP2 MSTORE PUSH1 0x20 ADD PUSH32 0x6F6E650000000000000000000000000000000000000000000000000000000000 DUP2 MSTORE POP PUSH1 0x1 SWAP1 DUP2 PUSH2 0x344 SWAP2 SWAP1 PUSH2 0xAA3 JUMP JUMPDEST POP PUSH2 0x5DE JUMP JUMPDEST PUSH1 0x2 DUP2 SUB PUSH2 0x39C JUMPI PUSH1 0x40 MLOAD DUP1 PUSH1 0x40 ADD PUSH1 0x40 MSTORE DUP1 PUSH1 0x3 DUP2 MSTORE PUSH1 0x20 ADD PUSH32 0x74776F0000000000000000000000000000000000000000000000000000000000 DUP2 MSTORE POP PUSH1 0x1 SWAP1 DUP2 PUSH2 0x396 SWAP2 SWAP1 PUSH2 0xAA3 JUMP JUMPDEST POP PUSH2 0x5DD JUMP JUMPDEST PUSH1 0x3 DUP2 SUB PUSH2 0x3EE JUMPI PUSH1 0x40 MLOAD DUP1 PUSH1 0x40 ADD PUSH1 0x40 MSTORE DUP1 PUSH1 0x5 DUP2 MSTORE PUSH1 0x20 ADD PUSH32 0x7468726565000000000000000000000000000000000000000000000000000000 DUP2 MSTORE POP PUSH1 0x1 SWAP1 DUP2 PUSH2 0x3E8 SWAP2 SWAP1 PUSH2 0xAA3 JUMP JUMPDEST POP PUSH2 0x5DC JUMP JUMPDEST PUSH1 0x4 DUP2 SUB PUSH2 0x440 JUMPI PUSH1 0x40 MLOAD DUP1 PUSH1 0x40 ADD PUSH1 0x40 MSTORE DUP1 PUSH1 0x4 DUP2 MSTORE PUSH1 0x20 ADD PUSH32 0x666F757200000000000000000000000000000000000000000000000000000000 DUP2 MSTORE POP PUSH1 0x1 SWAP1 DUP2 PUSH2 0x43A SWAP2 SWAP1 PUSH2 0xAA3 JUMP JUMPDEST POP PUSH2 0x5DB JUMP JUMPDEST PUSH1 0x5 DUP2 SUB PUSH2 0x492 JUMPI PUSH1 0x40 MLOAD DUP1 PUSH1 0x40 ADD PUSH1 0x40 MSTORE DUP1 PUSH1 0x4 DUP2 MSTORE PUSH1 0x20 ADD PUSH32 0x6669766500000000000000000000000000000000000000000000000000000000 DUP2 MSTORE POP PUSH1 0x1 SWAP1 DUP2 PUSH2 0x48C SWAP2 SWAP1 PUSH2 0xAA3 JUMP JUMPDEST POP PUSH2 0x5DA JUMP JUMPDEST PUSH1 0x6 DUP2 SUB PUSH2 0x4E4 JUMPI PUSH1 0x40 MLOAD DUP1 PUSH1 0x40 ADD PUSH1 0x40 MSTORE DUP1 PUSH1 0x3 DUP2 MSTORE PUSH1 0x20 ADD PUSH32 0x7369780000000000000000000000000000000000000000000000000000000000 DUP2 MSTORE POP PUSH1 0x1 SWAP1 DUP2 PUSH2 0x4DE SWAP2 SWAP1 PUSH2 0xAA3 JUMP JUMPDEST POP PUSH2 0x5D9 JUMP JUMPDEST PUSH1 0x7 DUP2 SUB PUSH2 0x536 JUMPI PUSH1 0x40 MLOAD DUP1 PUSH1 0x40 ADD PUSH1 0x40 MSTORE DUP1 PUSH1 0x5 DUP2 MSTORE PUSH1 0x20 ADD PUSH32 0x736576656E000000000000000000000000000000000000000000000000000000 DUP2 MSTORE POP PUSH1 0x1 SWAP1 DUP2 PUSH2 0x530 SWAP2 SWAP1 PUSH2 0xAA3 JUMP JUMPDEST POP PUSH2 0x5D8 JUMP JUMPDEST PUSH1 0x8 DUP2 SUB PUSH2 0x588 JUMPI PUSH1 0x40 MLOAD DUP1 PUSH1 0x40 ADD PUSH1 0x40 MSTORE DUP1 PUSH1 0x5 DUP2 MSTORE PUSH1 0x20 ADD PUSH32 0x6569676874000000000000000000000000000000000000000000000000000000 DUP2 MSTORE POP PUSH1 0x1 SWAP1 DUP2 PUSH2 0x582 SWAP2 SWAP1 PUSH2 0xAA3 JUMP JUMPDEST POP PUSH2 0x5D7 JUMP JUMPDEST PUSH1 0x9 DUP2 SUB PUSH2 0x5D6 JUMPI PUSH1 0x40 MLOAD DUP1 PUSH1 0x40 ADD PUSH1 0x40 MSTORE DUP1 PUSH1 0x4 DUP2 MSTORE PUSH1 0x20 ADD PUSH32 0x6E696E6500000000000000000000000000000000000000000000000000000000 DUP2 MSTORE POP PUSH1 0x1 SWAP1 DUP2 PUSH2 0x5D4 SWAP2 SWAP1 PUSH2 0xAA3 JUMP JUMPDEST POP JUMPDEST JUMPDEST JUMPDEST JUMPDEST JUMPDEST JUMPDEST JUMPDEST JUMPDEST JUMPDEST JUMPDEST PUSH2 0x62A JUMP JUMPDEST PUSH1 0x40 MLOAD DUP1 PUSH1 0x40 ADD PUSH1 0x40 MSTORE DUP1 PUSH1 0xD DUP2 MSTORE PUSH1 0x20 ADD PUSH32 0x696E76616C696420496E70757400000000000000000000000000000000000000 DUP2 MSTORE POP PUSH1 0x1 SWAP1 DUP2 PUSH2 0x628 SWAP2 SWAP1 PUSH2 0xAA3 JUMP JUMPDEST POP JUMPDEST POP JUMP JUMPDEST DUP2 DUP4 SLT ISZERO DUP1 ISZERO PUSH2 0x63D JUMPI POP DUP1 DUP4 SLT ISZERO JUMPDEST ISZERO PUSH2 0x64D JUMPI DUP3 PUSH0 DUP2 SWAP1 SSTORE POP PUSH2 0x675 JUMP JUMPDEST DUP3 DUP3 SLT ISZERO DUP1 ISZERO PUSH2 0x65D JUMPI POP DUP1 DUP3 SLT ISZERO JUMPDEST ISZERO PUSH2 0x66D JUMPI DUP2 PUSH0 DUP2 SWAP1 SSTORE POP PUSH2 0x674 JUMP JUMPDEST DUP1 PUSH0 DUP2 SWAP1 SSTORE POP JUMPDEST JUMPDEST POP POP POP JUMP JUMPDEST PUSH1 0x2 DUP1 SLOAD PUSH2 0x687 SWAP1 PUSH2 0x8CA JUMP JUMPDEST DUP1 PUSH1 0x1F ADD PUSH1 0x20 DUP1 SWAP2 DIV MUL PUSH1 0x20 ADD PUSH1 0x40 MLOAD SWAP1 DUP2 ADD PUSH1 0x40 MSTORE DUP1 SWAP3 SWAP2 SWAP1 DUP2 DUP2 MSTORE PUSH1 0x20 ADD DUP3 DUP1 SLOAD PUSH2 0x6B3 SWAP1 PUSH2 0x8CA JUMP JUMPDEST DUP1 ISZERO PUSH2 0x6FE JUMPI DUP1 PUSH1 0x1F LT PUSH2 0x6D5 JUMPI PUSH2 0x100 DUP1 DUP4 SLOAD DIV MUL DUP4 MSTORE SWAP2 PUSH1 0x20 ADD SWAP2 PUSH2 0x6FE JUMP JUMPDEST DUP3 ADD SWAP2 SWAP1 PUSH0 MSTORE PUSH1 0x20 PUSH0 KECCAK256 SWAP1 JUMPDEST DUP2 SLOAD DUP2 MSTORE SWAP1 PUSH1 0x1 ADD SWAP1 PUSH1 0x20 ADD DUP1 DUP4 GT PUSH2 0x6E1 JUMPI DUP3 SWAP1 SUB PUSH1 0x1F AND DUP3 ADD SWAP2 JUMPDEST POP POP POP POP POP DUP2 JUMP JUMPDEST PUSH0 DUP2 SWAP1 POP SWAP2 SWAP1 POP JUMP JUMPDEST PUSH2 0x718 DUP2 PUSH2 0x706 JUMP JUMPDEST DUP3 MSTORE POP POP JUMP JUMPDEST PUSH0 PUSH1 0x20 DUP3 ADD SWAP1 POP PUSH2 0x731 PUSH0 DUP4 ADD DUP5 PUSH2 0x70F JUMP JUMPDEST SWAP3 SWAP2 POP POP JUMP JUMPDEST PUSH0 PUSH0 REVERT JUMPDEST PUSH2 0x744 DUP2 PUSH2 0x706 JUMP JUMPDEST DUP2 EQ PUSH2 0x74E JUMPI PUSH0 PUSH0 REVERT JUMPDEST POP JUMP JUMPDEST PUSH0 DUP2 CALLDATALOAD SWAP1 POP PUSH2 0x75F DUP2 PUSH2 0x73B JUMP JUMPDEST SWAP3 SWAP2 POP POP JUMP JUMPDEST PUSH0 PUSH1 0x20 DUP3 DUP5 SUB SLT ISZERO PUSH2 0x77A JUMPI PUSH2 0x779 PUSH2 0x737 JUMP JUMPDEST JUMPDEST PUSH0 PUSH2 0x787 DUP5 DUP3 DUP6 ADD PUSH2 0x751 JUMP JUMPDEST SWAP2 POP POP SWAP3 SWAP2 POP POP JUMP JUMPDEST PUSH0 DUP2 MLOAD SWAP1 POP SWAP2 SWAP1 POP JUMP JUMPDEST PUSH0 DUP3 DUP3 MSTORE PUSH1 0x20 DUP3 ADD SWAP1 POP SWAP3 SWAP2 POP POP JUMP JUMPDEST DUP3 DUP2 DUP4 MCOPY PUSH0 DUP4 DUP4 ADD MSTORE POP POP POP JUMP JUMPDEST PUSH0 PUSH1 0x1F NOT PUSH1 0x1F DUP4 ADD AND SWAP1 POP SWAP2 SWAP1 POP JUMP JUMPDEST PUSH0 PUSH2 0x7D2 DUP3 PUSH2 0x790 JUMP JUMPDEST PUSH2 0x7DC DUP2 DUP6 PUSH2 0x79A JUMP JUMPDEST SWAP4 POP PUSH2 0x7EC DUP2 DUP6 PUSH1 0x20 DUP7 ADD PUSH2 0x7AA JUMP JUMPDEST PUSH2 0x7F5 DUP2 PUSH2 0x7B8 JUMP JUMPDEST DUP5 ADD SWAP2 POP POP SWAP3 SWAP2 POP POP JUMP JUMPDEST PUSH0 PUSH1 0x20 DUP3 ADD SWAP1 POP DUP2 DUP2 SUB PUSH0 DUP4 ADD MSTORE PUSH2 0x818 DUP2 DUP5 PUSH2 0x7C8 JUMP JUMPDEST SWAP1 POP SWAP3 SWAP2 POP POP JUMP JUMPDEST PUSH0 PUSH0 PUSH0 PUSH1 0x60 DUP5 DUP7 SUB SLT ISZERO PUSH2 0x837 JUMPI PUSH2 0x836 PUSH2 0x737 JUMP JUMPDEST JUMPDEST PUSH0 PUSH2 0x844 DUP7 DUP3 DUP8 ADD PUSH2 0x751 JUMP JUMPDEST SWAP4 POP POP PUSH1 0x20 PUSH2 0x855 DUP7 DUP3 DUP8 ADD PUSH2 0x751 JUMP JUMPDEST SWAP3 POP POP PUSH1 0x40 PUSH2 0x866 DUP7 DUP3 DUP8 ADD PUSH2 0x751 JUMP JUMPDEST SWAP2 POP POP SWAP3 POP SWAP3 POP SWAP3 JUMP JUMPDEST PUSH32 0x4E487B7100000000000000000000000000000000000000000000000000000000 PUSH0 MSTORE PUSH1 0x41 PUSH1 0x4 MSTORE PUSH1 0x24 PUSH0 REVERT JUMPDEST PUSH32 0x4E487B7100000000000000000000000000000000000000000000000000000000 PUSH0 MSTORE PUSH1 0x22 PUSH1 0x4 MSTORE PUSH1 0x24 PUSH0 REVERT JUMPDEST PUSH0 PUSH1 0x2 DUP3 DIV SWAP1 POP PUSH1 0x1 DUP3 AND DUP1 PUSH2 0x8E1 JUMPI PUSH1 0x7F DUP3 AND SWAP2 POP JUMPDEST PUSH1 0x20 DUP3 LT DUP2 SUB PUSH2 0x8F4 JUMPI PUSH2 0x8F3 PUSH2 0x89D JUMP JUMPDEST JUMPDEST POP SWAP2 SWAP1 POP JUMP JUMPDEST PUSH0 DUP2 SWAP1 POP DUP2 PUSH0 MSTORE PUSH1 0x20 PUSH0 KECCAK256 SWAP1 POP SWAP2 SWAP1 POP JUMP JUMPDEST PUSH0 PUSH1 0x20 PUSH1 0x1F DUP4 ADD DIV SWAP1 POP SWAP2 SWAP1 POP JUMP JUMPDEST PUSH0 DUP3 DUP3 SHL SWAP1 POP SWAP3 SWAP2 POP POP JUMP JUMPDEST PUSH0 PUSH1 0x8 DUP4 MUL PUSH2 0x956 PUSH32 0xFFFFFFFFFFFFFFFFFFFFFFFFFFFFFFFFFFFFFFFFFFFFFFFFFFFFFFFFFFFFFFFF DUP3 PUSH2 0x91B JUMP JUMPDEST PUSH2 0x960 DUP7 DUP4 PUSH2 0x91B JUMP JUMPDEST SWAP6 POP DUP1 NOT DUP5 AND SWAP4 POP DUP1 DUP7 AND DUP5 OR SWAP3 POP POP POP SWAP4 SWAP3 POP POP POP JUMP JUMPDEST PUSH0 DUP2 SWAP1 POP SWAP2 SWAP1 POP JUMP JUMPDEST PUSH0 DUP2 SWAP1 POP SWAP2 SWAP1 POP JUMP JUMPDEST PUSH0 PUSH2 0x9A4 PUSH2 0x99F PUSH2 0x99A DUP5 PUSH2 0x978 JUMP JUMPDEST PUSH2 0x981 JUMP JUMPDEST PUSH2 0x978 JUMP JUMPDEST SWAP1 POP SWAP2 SWAP1 POP JUMP JUMPDEST PUSH0 DUP2 SWAP1 POP SWAP2 SWAP1 POP JUMP JUMPDEST PUSH2 0x9BD DUP4 PUSH2 0x98A JUMP JUMPDEST PUSH2 0x9D1 PUSH2 0x9C9 DUP3 PUSH2 0x9AB JUMP JUMPDEST DUP5 DUP5 SLOAD PUSH2 0x927 JUMP JUMPDEST DUP3 SSTORE POP POP POP POP JUMP JUMPDEST PUSH0 PUSH0 SWAP1 POP SWAP1 JUMP JUMPDEST PUSH2 0x9E8 PUSH2 0x9D9 JUMP JUMPDEST PUSH2 0x9F3 DUP2 DUP5 DUP5 PUSH2 0x9B4 JUMP JUMPDEST POP POP POP JUMP JUMPDEST JUMPDEST DUP2 DUP2 LT ISZERO PUSH2 0xA16 JUMPI PUSH2 0xA0B PUSH0 DUP3 PUSH2 0x9E0 JUMP JUMPDEST PUSH1 0x1 DUP2 ADD SWAP1 POP PUSH2 0x9F9 JUMP JUMPDEST POP POP JUMP JUMPDEST PUSH1 0x1F DUP3 GT ISZERO PUSH2 0xA5B JUMPI PUSH2 0xA2C DUP2 PUSH2 0x8FA JUMP JUMPDEST PUSH2 0xA35 DUP5 PUSH2 0x90C JUMP JUMPDEST DUP2 ADD PUSH1 0x20 DUP6 LT ISZERO PUSH2 0xA44 JUMPI DUP2 SWAP1 POP JUMPDEST PUSH2 0xA58 PUSH2 0xA50 DUP6 PUSH2 0x90C JUMP JUMPDEST DUP4 ADD DUP3 PUSH2 0x9F8 JUMP JUMPDEST POP POP JUMPDEST POP POP POP JUMP JUMPDEST PUSH0 DUP3 DUP3 SHR SWAP1 POP SWAP3 SWAP2 POP POP JUMP JUMPDEST PUSH0 PUSH2 0xA7B PUSH0 NOT DUP5 PUSH1 0x8 MUL PUSH2 0xA60 JUMP JUMPDEST NOT DUP1 DUP4 AND SWAP2 POP POP SWAP3 SWAP2 POP POP JUMP JUMPDEST PUSH0 PUSH2 0xA93 DUP4 DUP4 PUSH2 0xA6C JUMP JUMPDEST SWAP2 POP DUP3 PUSH1 0x2 MUL DUP3 OR SWAP1 POP SWAP3 SWAP2 POP POP JUMP JUMPDEST PUSH2 0xAAC DUP3 PUSH2 0x790 JUMP JUMPDEST PUSH8 0xFFFFFFFFFFFFFFFF DUP2 GT ISZERO PUSH2 0xAC5 JUMPI PUSH2 0xAC4 PUSH2 0x870 JUMP JUMPDEST JUMPDEST PUSH2 0xACF DUP3 SLOAD PUSH2 0x8CA JUMP JUMPDEST PUSH2 0xADA DUP3 DUP3 DUP6 PUSH2 0xA1A JUMP JUMPDEST PUSH0 PUSH1 0x20 SWAP1 POP PUSH1 0x1F DUP4 GT PUSH1 0x1 DUP2 EQ PUSH2 0xB0B JUMPI PUSH0 DUP5 ISZERO PUSH2 0xAF9 JUMPI DUP3 DUP8 ADD MLOAD SWAP1 POP JUMPDEST PUSH2 0xB03 DUP6 DUP3 PUSH2 0xA88 JUMP JUMPDEST DUP7 SSTORE POP PUSH2 0xB6A JUMP JUMPDEST PUSH1 0x1F NOT DUP5 AND PUSH2 0xB19 DUP7 PUSH2 0x8FA JUMP JUMPDEST PUSH0 JUMPDEST DUP3 DUP2 LT ISZERO PUSH2 0xB40 JUMPI DUP5 DUP10 ADD MLOAD DUP3 SSTORE PUSH1 0x1 DUP3 ADD SWAP2 POP PUSH1 0x20 DUP6 ADD SWAP5 POP PUSH1 0x20 DUP2 ADD SWAP1 POP PUSH2 0xB1B JUMP JUMPDEST DUP7 DUP4 LT ISZERO PUSH2 0xB5D JUMPI DUP5 DUP10 ADD MLOAD PUSH2 0xB59 PUSH1 0x1F DUP10 AND DUP3 PUSH2 0xA6C JUMP JUMPDEST DUP4 SSTORE POP JUMPDEST PUSH1 0x1 PUSH1 0x2 DUP9 MUL ADD DUP9 SSTORE POP POP POP JUMPDEST POP POP POP POP POP POP JUMP INVALID LOG2 PUSH5 0x6970667358 0x22 SLT KECCAK256 0xDB 0xCF PUSH0 SWAP13 0x1E CALLVALUE DUP6 DELEGATECALL PUSH2 0x3ED3 SGT 0xED 0xCF SIGNEXTEND 0x4E CALLCODE 0xD3 DUP13 0xBD CODESIZE OR ADDRESS DUP4 PUSH18 0xD93BE1F5965D4164736F6C634300081C0033 "
				},
				"gasEstimates": {
					"creation": {
						"codeDepositCost": "596800",
						"executionCost": "630",
						"totalCost": "597430"
					},
					"external": {
						"checkSign(int256)": "infinite",
						"digitInWord()": "infinite",
						"findLargest(int256,int256,int256)": "infinite",
						"getDigit(int256)": "infinite",
						"largestNumber()": "2402",
						"signOfNumber()": "infinite"
					}
				},
				"methodIdentifiers": {
					"checkSign(int256)": "294fe43b",
					"digitInWord()": "602ec5c8",
					"findLargest(int256,int256,int256)": "c821075f",
					"getDigit(int256)": "af3fbef8",
					"largestNumber()": "03f233cd",
					"signOfNumber()": "edad6531"
				}
			},
			"storageLayout": {
				"storage": [
					{
						"astId": 3,
						"contract": "MathFunctions.sol:MathFunctions",
						"label": "largestNumber",
						"offset": 0,
						"slot": "0",
						"type": "t_int256"
					},
					{
						"astId": 5,
						"contract": "MathFunctions.sol:MathFunctions",
						"label": "digitInWord",
						"offset": 0,
						"slot": "1",
						"type": "t_string_storage"
					},
					{
						"astId": 7,
						"contract": "MathFunctions.sol:MathFunctions",
						"label": "signOfNumber",
						"offset": 0,
						"slot": "2",
						"type": "t_string_storage"
					}
				],
				"types": {
					"t_int256": {
						"encoding": "inplace",
						"label": "int256",
						"numberOfBytes": "32"
					},
					"t_string_storage": {
						"encoding": "bytes",
						"label": "string",
						"numberOfBytes": "32"
					}
				}
			},
			"userdoc": {
				"kind": "user",
				"methods": {},
				"version": 1
			}
		}
	}
}