{
	"LeapYearFunctions.sol": {
		"LeapYearFunctions": {
			"abi": [
				{
					"inputs": [
						{
							"internalType": "uint16",
							"name": "year",
							"type": "uint16"
						}
					],
					"name": "isLeapYear",
					"outputs": [
						{
							"internalType": "string",
							"name": "",
							"type": "string"
						}
					],
					"stateMutability": "pure",
					"type": "function"
				}
			],
			"devdoc": {
				"kind": "dev",
				"methods": {},
				"version": 1
			},
			"evm": {
				"assembly": "    /* \"LeapYearFunctions.sol\":245:738  contract LeapYearFunctions {... */\n  mstore(0x40, 0x80)\n  callvalue\n  dup1\n  iszero\n  tag_1\n  jumpi\n  revert(0x00, 0x00)\ntag_1:\n  pop\n  dataSize(sub_0)\n  dup1\n  dataOffset(sub_0)\n  0x00\n  codecopy\n  0x00\n  return\nstop\n\nsub_0: assembly {\n        /* \"LeapYearFunctions.sol\":245:738  contract LeapYearFunctions {... */\n      mstore(0x40, 0x80)\n      callvalue\n      dup1\n      iszero\n      tag_1\n      jumpi\n      revert(0x00, 0x00)\n    tag_1:\n      pop\n      jumpi(tag_2, lt(calldatasize, 0x04))\n      shr(0xe0, calldataload(0x00))\n      dup1\n      0xa6f0e577\n      eq\n      tag_3\n      jumpi\n    tag_2:\n      revert(0x00, 0x00)\n        /* \"LeapYearFunctions.sol\":279:736  function isLeapYear(uint16 year) public pure returns (string memory) {... */\n    tag_3:\n      tag_4\n      0x04\n      dup1\n      calldatasize\n      sub\n      dup2\n      add\n      swap1\n      tag_5\n      swap2\n      swap1\n      tag_6\n      jump\t// in\n    tag_5:\n      tag_7\n      jump\t// in\n    tag_4:\n      mload(0x40)\n      tag_8\n      swap2\n      swap1\n      tag_9\n      jump\t// in\n    tag_8:\n      mload(0x40)\n      dup1\n      swap2\n      sub\n      swap1\n      return\n    tag_7:\n        /* \"LeapYearFunctions.sol\":333:346  string memory */\n      0x60\n        /* \"LeapYearFunctions.sol\":370:374  1000 */\n      0x03e8\n        /* \"LeapYearFunctions.sol\":363:367  year */\n      dup3\n        /* \"LeapYearFunctions.sol\":363:374  year < 1000 */\n      0xffff\n      and\n      lt\n        /* \"LeapYearFunctions.sol\":363:389  year < 1000 || year > 9999 */\n      dup1\n      tag_11\n      jumpi\n      pop\n        /* \"LeapYearFunctions.sol\":385:389  9999 */\n      0x270f\n        /* \"LeapYearFunctions.sol\":378:382  year */\n      dup3\n        /* \"LeapYearFunctions.sol\":378:389  year > 9999 */\n      0xffff\n      and\n      gt\n        /* \"LeapYearFunctions.sol\":363:389  year < 1000 || year > 9999 */\n    tag_11:\n        /* \"LeapYearFunctions.sol\":359:468  if (year < 1000 || year > 9999) {... */\n      iszero\n      tag_12\n      jumpi\n        /* \"LeapYearFunctions.sol\":405:457  return \"Invalid input! Please enter a 4-digit year.\" */\n      mload(0x40)\n      dup1\n      0x60\n      add\n      0x40\n      mstore\n      dup1\n      0x2b\n      dup2\n      mstore\n      0x20\n      add\n      data_b53e56eebe371da216d60b6bfc8b6790737779e0d7e1ac60512f5f41773cc9c5\n      0x2b\n      swap2\n      codecopy\n      swap1\n      pop\n      jump(tag_10)\n        /* \"LeapYearFunctions.sol\":359:468  if (year < 1000 || year > 9999) {... */\n    tag_12:\n        /* \"LeapYearFunctions.sol\":493:494  0 */\n      0x00\n        /* \"LeapYearFunctions.sol\":488:489  4 */\n      0x04\n        /* \"LeapYearFunctions.sol\":481:485  year */\n      dup4\n        /* \"LeapYearFunctions.sol\":481:489  year % 4 */\n      tag_13\n      swap2\n      swap1\n      tag_14\n      jump\t// in\n    tag_13:\n        /* \"LeapYearFunctions.sol\":481:494  year % 4 == 0 */\n      0xffff\n      and\n      sub\n        /* \"LeapYearFunctions.sol\":477:730  if (year % 4 == 0) {... */\n      tag_15\n      jumpi\n        /* \"LeapYearFunctions.sol\":528:529  0 */\n      0x00\n        /* \"LeapYearFunctions.sol\":521:524  100 */\n      0x64\n        /* \"LeapYearFunctions.sol\":514:518  year */\n      dup4\n        /* \"LeapYearFunctions.sol\":514:524  year % 100 */\n      tag_16\n      swap2\n      swap1\n      tag_14\n      jump\t// in\n    tag_16:\n        /* \"LeapYearFunctions.sol\":514:529  year % 100 != 0 */\n      0xffff\n      and\n      eq\n      iszero\n        /* \"LeapYearFunctions.sol\":514:548  year % 100 != 0 || year % 400 == 0 */\n      dup1\n      tag_17\n      jumpi\n      pop\n        /* \"LeapYearFunctions.sol\":547:548  0 */\n      0x00\n        /* \"LeapYearFunctions.sol\":540:543  400 */\n      0x0190\n        /* \"LeapYearFunctions.sol\":533:537  year */\n      dup4\n        /* \"LeapYearFunctions.sol\":533:543  year % 400 */\n      tag_18\n      swap2\n      swap1\n      tag_14\n      jump\t// in\n    tag_18:\n        /* \"LeapYearFunctions.sol\":533:548  year % 400 == 0 */\n      0xffff\n      and\n      eq\n        /* \"LeapYearFunctions.sol\":514:548  year % 100 != 0 || year % 400 == 0 */\n    tag_17:\n        /* \"LeapYearFunctions.sol\":510:665  if (year % 100 != 0 || year % 400 == 0) {... */\n      iszero\n      tag_19\n      jumpi\n        /* \"LeapYearFunctions.sol\":568:586  return \"Leap Year\" */\n      mload(0x40)\n      dup1\n      0x40\n      add\n      0x40\n      mstore\n      dup1\n      0x09\n      dup2\n      mstore\n      0x20\n      add\n      0x4c65617020596561720000000000000000000000000000000000000000000000\n      dup2\n      mstore\n      pop\n      swap1\n      pop\n      jump(tag_10)\n        /* \"LeapYearFunctions.sol\":510:665  if (year % 100 != 0 || year % 400 == 0) {... */\n    tag_19:\n        /* \"LeapYearFunctions.sol\":626:650  return \"Not a Leap Year\" */\n      mload(0x40)\n      dup1\n      0x40\n      add\n      0x40\n      mstore\n      dup1\n      0x0f\n      dup2\n      mstore\n      0x20\n      add\n      0x4e6f742061204c65617020596561720000000000000000000000000000000000\n      dup2\n      mstore\n      pop\n      swap1\n      pop\n      jump(tag_10)\n        /* \"LeapYearFunctions.sol\":477:730  if (year % 4 == 0) {... */\n    tag_15:\n        /* \"LeapYearFunctions.sol\":695:719  return \"Not a Leap Year\" */\n      mload(0x40)\n      dup1\n      0x40\n      add\n      0x40\n      mstore\n      dup1\n      0x0f\n      dup2\n      mstore\n      0x20\n      add\n      0x4e6f742061204c65617020596561720000000000000000000000000000000000\n      dup2\n      mstore\n      pop\n      swap1\n      pop\n        /* \"LeapYearFunctions.sol\":279:736  function isLeapYear(uint16 year) public pure returns (string memory) {... */\n    tag_10:\n      swap2\n      swap1\n      pop\n      jump\t// out\n        /* \"#utility.yul\":88:205   */\n    tag_23:\n        /* \"#utility.yul\":197:198   */\n      0x00\n        /* \"#utility.yul\":194:195   */\n      0x00\n        /* \"#utility.yul\":187:199   */\n      revert\n        /* \"#utility.yul\":334:423   */\n    tag_25:\n        /* \"#utility.yul\":370:377   */\n      0x00\n        /* \"#utility.yul\":410:416   */\n      0xffff\n        /* \"#utility.yul\":403:408   */\n      dup3\n        /* \"#utility.yul\":399:417   */\n      and\n        /* \"#utility.yul\":388:417   */\n      swap1\n      pop\n        /* \"#utility.yul\":334:423   */\n      swap2\n      swap1\n      pop\n      jump\t// out\n        /* \"#utility.yul\":429:549   */\n    tag_26:\n        /* \"#utility.yul\":501:524   */\n      tag_40\n        /* \"#utility.yul\":518:523   */\n      dup2\n        /* \"#utility.yul\":501:524   */\n      tag_25\n      jump\t// in\n    tag_40:\n        /* \"#utility.yul\":494:499   */\n      dup2\n        /* \"#utility.yul\":491:525   */\n      eq\n        /* \"#utility.yul\":481:543   */\n      tag_41\n      jumpi\n        /* \"#utility.yul\":539:540   */\n      0x00\n        /* \"#utility.yul\":536:537   */\n      0x00\n        /* \"#utility.yul\":529:541   */\n      revert\n        /* \"#utility.yul\":481:543   */\n    tag_41:\n        /* \"#utility.yul\":429:549   */\n      pop\n      jump\t// out\n        /* \"#utility.yul\":555:692   */\n    tag_27:\n        /* \"#utility.yul\":600:605   */\n      0x00\n        /* \"#utility.yul\":638:644   */\n      dup2\n        /* \"#utility.yul\":625:645   */\n      calldataload\n        /* \"#utility.yul\":616:645   */\n      swap1\n      pop\n        /* \"#utility.yul\":654:686   */\n      tag_43\n        /* \"#utility.yul\":680:685   */\n      dup2\n        /* \"#utility.yul\":654:686   */\n      tag_26\n      jump\t// in\n    tag_43:\n        /* \"#utility.yul\":555:692   */\n      swap3\n      swap2\n      pop\n      pop\n      jump\t// out\n        /* \"#utility.yul\":698:1025   */\n    tag_6:\n        /* \"#utility.yul\":756:762   */\n      0x00\n        /* \"#utility.yul\":805:807   */\n      0x20\n        /* \"#utility.yul\":793:802   */\n      dup3\n        /* \"#utility.yul\":784:791   */\n      dup5\n        /* \"#utility.yul\":780:803   */\n      sub\n        /* \"#utility.yul\":776:808   */\n      slt\n        /* \"#utility.yul\":773:892   */\n      iszero\n      tag_45\n      jumpi\n        /* \"#utility.yul\":811:890   */\n      tag_46\n      tag_23\n      jump\t// in\n    tag_46:\n        /* \"#utility.yul\":773:892   */\n    tag_45:\n        /* \"#utility.yul\":931:932   */\n      0x00\n        /* \"#utility.yul\":956:1008   */\n      tag_47\n        /* \"#utility.yul\":1000:1007   */\n      dup5\n        /* \"#utility.yul\":991:997   */\n      dup3\n        /* \"#utility.yul\":980:989   */\n      dup6\n        /* \"#utility.yul\":976:998   */\n      add\n        /* \"#utility.yul\":956:1008   */\n      tag_27\n      jump\t// in\n    tag_47:\n        /* \"#utility.yul\":946:1008   */\n      swap2\n      pop\n        /* \"#utility.yul\":902:1018   */\n      pop\n        /* \"#utility.yul\":698:1025   */\n      swap3\n      swap2\n      pop\n      pop\n      jump\t// out\n        /* \"#utility.yul\":1031:1130   */\n    tag_28:\n        /* \"#utility.yul\":1083:1089   */\n      0x00\n        /* \"#utility.yul\":1117:1122   */\n      dup2\n        /* \"#utility.yul\":1111:1123   */\n      mload\n        /* \"#utility.yul\":1101:1123   */\n      swap1\n      pop\n        /* \"#utility.yul\":1031:1130   */\n      swap2\n      swap1\n      pop\n      jump\t// out\n        /* \"#utility.yul\":1136:1305   */\n    tag_29:\n        /* \"#utility.yul\":1220:1231   */\n      0x00\n        /* \"#utility.yul\":1254:1260   */\n      dup3\n        /* \"#utility.yul\":1249:1252   */\n      dup3\n        /* \"#utility.yul\":1242:1261   */\n      mstore\n        /* \"#utility.yul\":1294:1298   */\n      0x20\n        /* \"#utility.yul\":1289:1292   */\n      dup3\n        /* \"#utility.yul\":1285:1299   */\n      add\n        /* \"#utility.yul\":1270:1299   */\n      swap1\n      pop\n        /* \"#utility.yul\":1136:1305   */\n      swap3\n      swap2\n      pop\n      pop\n      jump\t// out\n        /* \"#utility.yul\":1311:1450   */\n    tag_30:\n        /* \"#utility.yul\":1400:1406   */\n      dup3\n        /* \"#utility.yul\":1395:1398   */\n      dup2\n        /* \"#utility.yul\":1390:1393   */\n      dup4\n        /* \"#utility.yul\":1384:1407   */\n      mcopy\n        /* \"#utility.yul\":1441:1442   */\n      0x00\n        /* \"#utility.yul\":1432:1438   */\n      dup4\n        /* \"#utility.yul\":1427:1430   */\n      dup4\n        /* \"#utility.yul\":1423:1439   */\n      add\n        /* \"#utility.yul\":1416:1443   */\n      mstore\n        /* \"#utility.yul\":1311:1450   */\n      pop\n      pop\n      pop\n      jump\t// out\n        /* \"#utility.yul\":1456:1558   */\n    tag_31:\n        /* \"#utility.yul\":1497:1503   */\n      0x00\n        /* \"#utility.yul\":1548:1550   */\n      0x1f\n        /* \"#utility.yul\":1544:1551   */\n      not\n        /* \"#utility.yul\":1539:1541   */\n      0x1f\n        /* \"#utility.yul\":1532:1537   */\n      dup4\n        /* \"#utility.yul\":1528:1542   */\n      add\n        /* \"#utility.yul\":1524:1552   */\n      and\n        /* \"#utility.yul\":1514:1552   */\n      swap1\n      pop\n        /* \"#utility.yul\":1456:1558   */\n      swap2\n      swap1\n      pop\n      jump\t// out\n        /* \"#utility.yul\":1564:1941   */\n    tag_32:\n        /* \"#utility.yul\":1652:1655   */\n      0x00\n        /* \"#utility.yul\":1680:1719   */\n      tag_53\n        /* \"#utility.yul\":1713:1718   */\n      dup3\n        /* \"#utility.yul\":1680:1719   */\n      tag_28\n      jump\t// in\n    tag_53:\n        /* \"#utility.yul\":1735:1806   */\n      tag_54\n        /* \"#utility.yul\":1799:1805   */\n      dup2\n        /* \"#utility.yul\":1794:1797   */\n      dup6\n        /* \"#utility.yul\":1735:1806   */\n      tag_29\n      jump\t// in\n    tag_54:\n        /* \"#utility.yul\":1728:1806   */\n      swap4\n      pop\n        /* \"#utility.yul\":1815:1880   */\n      tag_55\n        /* \"#utility.yul\":1873:1879   */\n      dup2\n        /* \"#utility.yul\":1868:1871   */\n      dup6\n        /* \"#utility.yul\":1861:1865   */\n      0x20\n        /* \"#utility.yul\":1854:1859   */\n      dup7\n        /* \"#utility.yul\":1850:1866   */\n      add\n        /* \"#utility.yul\":1815:1880   */\n      tag_30\n      jump\t// in\n    tag_55:\n        /* \"#utility.yul\":1905:1934   */\n      tag_56\n        /* \"#utility.yul\":1927:1933   */\n      dup2\n        /* \"#utility.yul\":1905:1934   */\n      tag_31\n      jump\t// in\n    tag_56:\n        /* \"#utility.yul\":1900:1903   */\n      dup5\n        /* \"#utility.yul\":1896:1935   */\n      add\n        /* \"#utility.yul\":1889:1935   */\n      swap2\n      pop\n        /* \"#utility.yul\":1656:1941   */\n      pop\n        /* \"#utility.yul\":1564:1941   */\n      swap3\n      swap2\n      pop\n      pop\n      jump\t// out\n        /* \"#utility.yul\":1947:2260   */\n    tag_9:\n        /* \"#utility.yul\":2060:2064   */\n      0x00\n        /* \"#utility.yul\":2098:2100   */\n      0x20\n        /* \"#utility.yul\":2087:2096   */\n      dup3\n        /* \"#utility.yul\":2083:2101   */\n      add\n        /* \"#utility.yul\":2075:2101   */\n      swap1\n      pop\n        /* \"#utility.yul\":2147:2156   */\n      dup2\n        /* \"#utility.yul\":2141:2145   */\n      dup2\n        /* \"#utility.yul\":2137:2157   */\n      sub\n        /* \"#utility.yul\":2133:2134   */\n      0x00\n        /* \"#utility.yul\":2122:2131   */\n      dup4\n        /* \"#utility.yul\":2118:2135   */\n      add\n        /* \"#utility.yul\":2111:2158   */\n      mstore\n        /* \"#utility.yul\":2175:2253   */\n      tag_58\n        /* \"#utility.yul\":2248:2252   */\n      dup2\n        /* \"#utility.yul\":2239:2245   */\n      dup5\n        /* \"#utility.yul\":2175:2253   */\n      tag_32\n      jump\t// in\n    tag_58:\n        /* \"#utility.yul\":2167:2253   */\n      swap1\n      pop\n        /* \"#utility.yul\":1947:2260   */\n      swap3\n      swap2\n      pop\n      pop\n      jump\t// out\n        /* \"#utility.yul\":2266:2446   */\n    tag_33:\n        /* \"#utility.yul\":2314:2391   */\n      0x4e487b7100000000000000000000000000000000000000000000000000000000\n        /* \"#utility.yul\":2311:2312   */\n      0x00\n        /* \"#utility.yul\":2304:2392   */\n      mstore\n        /* \"#utility.yul\":2411:2415   */\n      0x12\n        /* \"#utility.yul\":2408:2409   */\n      0x04\n        /* \"#utility.yul\":2401:2416   */\n      mstore\n        /* \"#utility.yul\":2435:2439   */\n      0x24\n        /* \"#utility.yul\":2432:2433   */\n      0x00\n        /* \"#utility.yul\":2425:2440   */\n      revert\n        /* \"#utility.yul\":2452:2625   */\n    tag_14:\n        /* \"#utility.yul\":2483:2484   */\n      0x00\n        /* \"#utility.yul\":2500:2519   */\n      tag_61\n        /* \"#utility.yul\":2517:2518   */\n      dup3\n        /* \"#utility.yul\":2500:2519   */\n      tag_25\n      jump\t// in\n    tag_61:\n        /* \"#utility.yul\":2495:2519   */\n      swap2\n      pop\n        /* \"#utility.yul\":2533:2552   */\n      tag_62\n        /* \"#utility.yul\":2550:2551   */\n      dup4\n        /* \"#utility.yul\":2533:2552   */\n      tag_25\n      jump\t// in\n    tag_62:\n        /* \"#utility.yul\":2528:2552   */\n      swap3\n      pop\n        /* \"#utility.yul\":2571:2572   */\n      dup3\n        /* \"#utility.yul\":2561:2596   */\n      tag_63\n      jumpi\n        /* \"#utility.yul\":2576:2594   */\n      tag_64\n      tag_33\n      jump\t// in\n    tag_64:\n        /* \"#utility.yul\":2561:2596   */\n    tag_63:\n        /* \"#utility.yul\":2617:2618   */\n      dup3\n        /* \"#utility.yul\":2614:2615   */\n      dup3\n        /* \"#utility.yul\":2610:2619   */\n      mod\n        /* \"#utility.yul\":2605:2619   */\n      swap1\n      pop\n        /* \"#utility.yul\":2452:2625   */\n      swap3\n      swap2\n      pop\n      pop\n      jump\t// out\n    stop\n    data_b53e56eebe371da216d60b6bfc8b6790737779e0d7e1ac60512f5f41773cc9c5 496e76616c696420696e7075742120506c6561736520656e746572206120342d646967697420796561722e\n\n    auxdata: 0xa26469706673582212208930ac587cdb0e5bc28a22309b4dc52d8f5acc7cda81bd44e4ee5c9f728ad52264736f6c634300081c0033\n}\n",
				"bytecode": {
					"linkReferences": {},
					"object": "6080604052348015600e575f5ffd5b506103548061001c5f395ff3fe608060405234801561000f575f5ffd5b5060043610610029575f3560e01c8063a6f0e5771461002d575b5f5ffd5b610047600480360381019061004291906101db565b61005d565b6040516100549190610276565b60405180910390f35b60606103e88261ffff161080610078575061270f8261ffff16115b1561009d576040518060600160405280602b81526020016102f4602b9139905061019b565b5f6004836100ab91906102c3565b61ffff1603610162575f6064836100c291906102c3565b61ffff161415806100e357505f610190836100dd91906102c3565b61ffff16145b15610125576040518060400160405280600981526020017f4c65617020596561720000000000000000000000000000000000000000000000815250905061019b565b6040518060400160405280600f81526020017f4e6f742061204c65617020596561720000000000000000000000000000000000815250905061019b565b6040518060400160405280600f81526020017f4e6f742061204c6561702059656172000000000000000000000000000000000081525090505b919050565b5f5ffd5b5f61ffff82169050919050565b6101ba816101a4565b81146101c4575f5ffd5b50565b5f813590506101d5816101b1565b92915050565b5f602082840312156101f0576101ef6101a0565b5b5f6101fd848285016101c7565b91505092915050565b5f81519050919050565b5f82825260208201905092915050565b8281835e5f83830152505050565b5f601f19601f8301169050919050565b5f61024882610206565b6102528185610210565b9350610262818560208601610220565b61026b8161022e565b840191505092915050565b5f6020820190508181035f83015261028e818461023e565b905092915050565b7f4e487b71000000000000000000000000000000000000000000000000000000005f52601260045260245ffd5b5f6102cd826101a4565b91506102d8836101a4565b9250826102e8576102e7610296565b5b82820690509291505056fe496e76616c696420696e7075742120506c6561736520656e746572206120342d646967697420796561722ea26469706673582212208930ac587cdb0e5bc28a22309b4dc52d8f5acc7cda81bd44e4ee5c9f728ad52264736f6c634300081c0033",
					"opcodes": "PUSH1 0x80 PUSH1 0x40 MSTORE CALLVALUE DUP1 ISZERO PUSH1 0xE JUMPI PUSH0 PUSH0 REVERT JUMPDEST POP PUSH2 0x354 DUP1 PUSH2 0x1C PUSH0 CODECOPY PUSH0 RETURN INVALID PUSH1 0x80 PUSH1 0x40 MSTORE CALLVALUE DUP1 ISZERO PUSH2 0xF JUMPI PUSH0 PUSH0 REVERT JUMPDEST POP PUSH1 0x4 CALLDATASIZE LT PUSH2 0x29 JUMPI PUSH0 CALLDATALOAD PUSH1 0xE0 SHR DUP1 PUSH4 0xA6F0E577 EQ PUSH2 0x2D JUMPI JUMPDEST PUSH0 PUSH0 REVERT JUMPDEST PUSH2 0x47 PUSH1 0x4 DUP1 CALLDATASIZE SUB DUP2 ADD SWAP1 PUSH2 0x42 SWAP2 SWAP1 PUSH2 0x1DB JUMP JUMPDEST PUSH2 0x5D JUMP JUMPDEST PUSH1 0x40 MLOAD PUSH2 0x54 SWAP2 SWAP1 PUSH2 0x276 JUMP JUMPDEST PUSH1 0x40 MLOAD DUP1 SWAP2 SUB SWAP1 RETURN JUMPDEST PUSH1 0x60 PUSH2 0x3E8 DUP3 PUSH2 0xFFFF AND LT DUP1 PUSH2 0x78 JUMPI POP PUSH2 0x270F DUP3 PUSH2 0xFFFF AND GT JUMPDEST ISZERO PUSH2 0x9D JUMPI PUSH1 0x40 MLOAD DUP1 PUSH1 0x60 ADD PUSH1 0x40 MSTORE DUP1 PUSH1 0x2B DUP2 MSTORE PUSH1 0x20 ADD PUSH2 0x2F4 PUSH1 0x2B SWAP2 CODECOPY SWAP1 POP PUSH2 0x19B JUMP JUMPDEST PUSH0 PUSH1 0x4 DUP4 PUSH2 0xAB SWAP2 SWAP1 PUSH2 0x2C3 JUMP JUMPDEST PUSH2 0xFFFF AND SUB PUSH2 0x162 JUMPI PUSH0 PUSH1 0x64 DUP4 PUSH2 0xC2 SWAP2 SWAP1 PUSH2 0x2C3 JUMP JUMPDEST PUSH2 0xFFFF AND EQ ISZERO DUP1 PUSH2 0xE3 JUMPI POP PUSH0 PUSH2 0x190 DUP4 PUSH2 0xDD SWAP2 SWAP1 PUSH2 0x2C3 JUMP JUMPDEST PUSH2 0xFFFF AND EQ JUMPDEST ISZERO PUSH2 0x125 JUMPI PUSH1 0x40 MLOAD DUP1 PUSH1 0x40 ADD PUSH1 0x40 MSTORE DUP1 PUSH1 0x9 DUP2 MSTORE PUSH1 0x20 ADD PUSH32 0x4C65617020596561720000000000000000000000000000000000000000000000 DUP2 MSTORE POP SWAP1 POP PUSH2 0x19B JUMP JUMPDEST PUSH1 0x40 MLOAD DUP1 PUSH1 0x40 ADD PUSH1 0x40 MSTORE DUP1 PUSH1 0xF DUP2 MSTORE PUSH1 0x20 ADD PUSH32 0x4E6F742061204C65617020596561720000000000000000000000000000000000 DUP2 MSTORE POP SWAP1 POP PUSH2 0x19B JUMP JUMPDEST PUSH1 0x40 MLOAD DUP1 PUSH1 0x40 ADD PUSH1 0x40 MSTORE DUP1 PUSH1 0xF DUP2 MSTORE PUSH1 0x20 ADD PUSH32 0x4E6F742061204C65617020596561720000000000000000000000000000000000 DUP2 MSTORE POP SWAP1 POP JUMPDEST SWAP2 SWAP1 POP JUMP JUMPDEST PUSH0 PUSH0 REVERT JUMPDEST PUSH0 PUSH2 0xFFFF DUP3 AND SWAP1 POP SWAP2 SWAP1 POP JUMP JUMPDEST PUSH2 0x1BA DUP2 PUSH2 0x1A4 JUMP JUMPDEST DUP2 EQ PUSH2 0x1C4 JUMPI PUSH0 PUSH0 REVERT JUMPDEST POP JUMP JUMPDEST PUSH0 DUP2 CALLDATALOAD SWAP1 POP PUSH2 0x1D5 DUP2 PUSH2 0x1B1 JUMP JUMPDEST SWAP3 SWAP2 POP POP JUMP JUMPDEST PUSH0 PUSH1 0x20 DUP3 DUP5 SUB SLT ISZERO PUSH2 0x1F0 JUMPI PUSH2 0x1EF PUSH2 0x1A0 JUMP JUMPDEST JUMPDEST PUSH0 PUSH2 0x1FD DUP5 DUP3 DUP6 ADD PUSH2 0x1C7 JUMP JUMPDEST SWAP2 POP POP SWAP3 SWAP2 POP POP JUMP JUMPDEST PUSH0 DUP2 MLOAD SWAP1 POP SWAP2 SWAP1 POP JUMP JUMPDEST PUSH0 DUP3 DUP3 MSTORE PUSH1 0x20 DUP3 ADD SWAP1 POP SWAP3 SWAP2 POP POP JUMP JUMPDEST DUP3 DUP2 DUP4 MCOPY PUSH0 DUP4 DUP4 ADD MSTORE POP POP POP JUMP JUMPDEST PUSH0 PUSH1 0x1F NOT PUSH1 0x1F DUP4 ADD AND SWAP1 POP SWAP2 SWAP1 POP JUMP JUMPDEST PUSH0 PUSH2 0x248 DUP3 PUSH2 0x206 JUMP JUMPDEST PUSH2 0x252 DUP2 DUP6 PUSH2 0x210 JUMP JUMPDEST SWAP4 POP PUSH2 0x262 DUP2 DUP6 PUSH1 0x20 DUP7 ADD PUSH2 0x220 JUMP JUMPDEST PUSH2 0x26B DUP2 PUSH2 0x22E JUMP JUMPDEST DUP5 ADD SWAP2 POP POP SWAP3 SWAP2 POP POP JUMP JUMPDEST PUSH0 PUSH1 0x20 DUP3 ADD SWAP1 POP DUP2 DUP2 SUB PUSH0 DUP4 ADD MSTORE PUSH2 0x28E DUP2 DUP5 PUSH2 0x23E JUMP JUMPDEST SWAP1 POP SWAP3 SWAP2 POP POP JUMP JUMPDEST PUSH32 0x4E487B7100000000000000000000000000000000000000000000000000000000 PUSH0 MSTORE PUSH1 0x12 PUSH1 0x4 MSTORE PUSH1 0x24 PUSH0 REVERT JUMPDEST PUSH0 PUSH2 0x2CD DUP3 PUSH2 0x1A4 JUMP JUMPDEST SWAP2 POP PUSH2 0x2D8 DUP4 PUSH2 0x1A4 JUMP JUMPDEST SWAP3 POP DUP3 PUSH2 0x2E8 JUMPI PUSH2 0x2E7 PUSH2 0x296 JUMP JUMPDEST JUMPDEST DUP3 DUP3 MOD SWAP1 POP SWAP3 SWAP2 POP POP JUMP INVALID BLOBHASH PUSH15 0x76616C696420696E7075742120506C PUSH6 0x61736520656E PUSH21 0x6572206120342D646967697420796561722EA26469 PUSH17 0x6673582212208930AC587CDB0E5BC28A22 ADDRESS SWAP12 0x4D 0xC5 0x2D DUP16 GAS 0xCC PUSH29 0xDA81BD44E4EE5C9F728AD52264736F6C634300081C0033000000000000 "
				},
				"gasEstimates": {
					"creation": {
						"codeDepositCost": "170400",
						"executionCost": "212",
						"totalCost": "170612"
					},
					"external": {
						"isLeapYear(uint16)": "infinite"
					}
				},
				"methodIdentifiers": {
					"isLeapYear(uint16)": "a6f0e577"
				}
			},
			"storageLayout": {
				"storage": [],
				"types": null
			},
			"userdoc": {
				"kind": "user",
				"methods": {},
				"version": 1
			}
		}
	}
}